:100000000C94BB210C94EC210C94EC210C94EC216D
:100010000C94EC210C94EC210C94EC210C94EC212C
:100020000C94EC210C9426EB0C9426EB0C9426EB10
:100030000C94EC210C9455C00C94EC210C94EC2104
:100040000C94EC210C94C9F60C94EC210C94EC214A
:100050000C94EC210C94EC210D944F0C0C94E3E7E0
:100060000C94EC210C94C2410C94B8410C94EC21FA
:100070000C94EC210C94EC210C94EC210C94EC21CC
:100080000C94203B0C94EC210C94EC210C94EC216E
:100090000C94EC210C94EC210C94EC210C94EC21AC
:1000A0000C94EC210C94EC210C94F23A0C94EC217D
:1000B0000C94EC210C94EC210C94EC210C94EC218C
:1000C0000C94EC210C94EC210C94EC210C94EC217C
:1000D0000C94EC210C94EC210C94EC210C94EC216C
:1000E0000C94EC21F541054216422142294240423E
:1000F0002D4240423142354240423B425C757E7562
:100100009E75C375E8759F770D7630765376787651
:100110009D76C276E7760C779F77317756777B7737
:100120000E791179157918791B7945791F7922791A
:10013000267929792C7930793379367945793A7964
:100140003D79407928D60BD60ED62BD611D614D6AB
:1001500017D623D61AD636D61DD620D6EAE8EDE82D
:10016000DCE8E0E8E6E824E9F1E8F5E8FBE8FFE8A8
:1001700003E909E90DE911E924E917E91BE91FE998
:100180008AEC8FEC94EC9EECA8EC21EDB2ECBAEC8E
:10019000C2ECCCECD6ECE0ECEFECF9EC21ED03EDAD
:1001A0000DED17ED1E0262013C0182013C013C0194
:1001B0003C013C013C013C013C013C013C013C0157
:1001C0003C013C013C013C013C013C013C013C0147
:1001D0003C013C013C013C013C013C013C013C0137
:1001E000A8013C013C013C013C013C013C013C01BB
:1001F0003C01C6013C013C013C013C013C013C018D
:100200003C013C013C013C015402F602084AD73B48
:100210003BCE016E84BCBFFDC12F3D6C74319ABDD5
:1002200056833DDA3D00C77F11BED9E4BB4C3E91F9
:100230006BAAAABE000000803F05A84CCDB2D44EE8
:10024000B93836A9020C50B9918688083CA6AAAAEA
:100250002ABE000000803F000C9461690C941DD6FA
:100260000C9485BD0C9411E90C9426CB0C94A042FF
:100270000C948AC80C9424E90D9448400C9439B12C
:100280000C9434CE0C949DC60C94B6830C9401BD92
:100290000D94FC240C94C67E0C94B8D10C949383DA
:1002A0000C9442CE0C94A0D10D94F2220C94A8C8C8
:1002B0000C947B770C94F5C60D94E95A0C94A19498
:1002C0000C94B0D10D940F400D94FC230C941BE9B9
:1002D0000C9494EC0C9426790C9447810C9476F34E
:1002E0000C94C96E0C9403940C9435F20C9429422E
:1002F0000C94D2CF0C94AA6E0C943A790C942BBD2A
:100300000C94DC7F0D948E410C9478760C9418F14B
:100310000C94DCE80C94E8750C9414D60C943542DB
:100320000C94DC710C94B4C80C9400BE0C94B2EC28
:100330000D94E0220C94A8EC0D94A23F0C942AF1A9
:100340000C94BCBD0C94C2830C94FF920C942BD6DD
:100350000D9488410C9432C00C94A1420C949EECF4
:100360000C941F790C94AFBC0C94C0C80C94E8B0EA
:100370000C9436D60C9405CB0C94DCC60C942CBE95
:100380000C94B2830C942D420C94BAC80D94614124
:100390000C94FBE80C94DDCD0D94FD220C9469C601
:1003A0000C94D6EC0D94A83F0C9445C00C940D769B
:1003B0000C94BE830C943EC60D949A220C94BCD12E
:1003C0000C9433790C9430790C9408C60C941FE982
:1003D0000C944FC00C949D760C94E0E80C949F779D
:1003E0000C9446F60C94D0D10C94F5E80C94C4D13E
:1003F0000C9417E90C9482C60D943A230C948AEC61
:100400000C941AD60D94A2220C94F5CD0C940E796E
:100410000C943DB10C9446E80C9484920C94D2C593
:100420000C945C750C94B7C50C9415790C943142FE
:100430000C942DE80C94A4420C947CBC0D94524175
:100440000C9410C90C940ED60C942D430C94B498B3
:100450000D94EC220D948F220C940DED0C941BCE78
:100460000D941B230C9444CB0C94D8C80C9489BED7
:100470000C9409E90C9421ED0D94F8220C94B483AA
:100480000C94CCEC0C940CD40C9437C00C94C2ECAF
:100490000C9411790C9490C80D9416230C9420D6CA
:1004A0000C94C6CF0C9429790D94A5410C945677E1
:1004B0000C947E750C9435CB0C949E750C9403E9CA
:1004C0000C9441920C94AEC80C940EC70C9423C6A5
:1004D0000C94E3D10C949CD10C94FFE80C94F7920B
:1004E0000C94A2C80D9407230C94A6BD0C94B4CF11
:1004F0000C9418D40C94ECCD0C94EDE80C9452B1FF
:100500000C94ACD10C9430F10C9493F40C9411D65F
:100510000C9400D40C94C3750C9417D60C9404F06E
:100520000C947FCA0C9487BD0C94A3CA0C94CB4244
:100530000C940C770C9436790C940DE90C94E6E845
:100540000C94BAEC0C94EAE80C94E7C80D94F523EB
:100550000C9430760C94CCCF0C94C0830C94E7763A
:100560000C94DEBD0C9423D60C9416420C94C276E7
:100570000D940C230C9418790C947EC80C9496E876
:100580000C943CC00C9440420C9403ED0C94C0D1EC
:100590000C948FEC0C9422790C94B8830D94A50BD9
:1005A0000C94F1E80C94A4D10C9450C60C9408C996
:1005B0000C9484CA0C94AEE80C94B8EF0C941B799C
:1005C0000C943B420C9440790D9402230C94A3921A
:1005D0000D94E6220C94B4D10C947EF30C9417ED98
:1005E0000C94F4EF0D94A0220D94AA220D94454092
:1005F0000C948FBD0C94DF860C94C1B40C94DBCEAC
:100600000C9408CE0C94F5410C9486F30C94C3C65C
:100610000C94DBEF0C9428D60C9453760C943D7913
:100620000C940BD60C9409960C9421420C94BA832A
:100630000C9453CB0D9411230C94E1E70C9406F029
:100640000C944EB10C948D700C9445E80C94317759
:100650000D94A53F0C9405420C94E0EC0C94EFEC47
:100660000C949CC80C943FAA0C9443920C9474CAAA
:100670000C94C0CF0C94B0C60C9459BD0D9452513B
:100680000C9445790D9481270C942C790C94F9ECF9
:100690000C94BC830C94EDC50C9496C80C948EF30A
:1006A0000D94A8260C94CFC80C94A8D14E414E4965
:1006B0004E495459494E46CDCCCC3D0AD7233C1720
:1006C000B7D13877CC2B329595E6241FB14F0A006D
:1006D0000020410000C84200401C4620BCBE4CCA5D
:1006E0001B0E5AAEC59D7400407A10F35A00A072DA
:1006F0004E18090010A5D4E80000E876481700005D
:10070000E40B54020000CA9A3B000000E1F505002A
:100710000080969800000040420F000000A0860173
:10072000000000102700000000E803000000006443
:1007300000000000000A00000000000100000000AE
:10074000002C76D888DC674F0823DFC1DFAE59E183
:10075000B1B796E5E3E453C63AE651997696E8E6F2
:10076000C28426EB898C9B62ED407C6FFCEFBC9CC5
:100770009F40F2BAA56FA5F490055A2AF75C936BD7
:100780006CF9676DC11BFCE0E40D47FEF520E6B592
:1007900000D0ED902E0300943577050080841E086C
:1007A0000000204E0A000000C80C333333330F988A
:1007B0006E12831141EF8D2114893BE65516CFFE51
:1007C000E6DB18D1844B381BF77C1D901DA4BBE4DD
:1007D00024203284725E228100C9F124ECA1E53D1F
:1007E00027434F4D4D554E49434154494F4E0044C8
:1007F000525952554E004552524F525300494E469F
:100800004F004543484F0047322F47332062616411
:1008100020706172616D65746572730A00536C6556
:1008200065702E2E2E005A2050726F626520506126
:100830007374204265640A005A2050726F6265200A
:100840005061737420426564004D65736820706F59
:10085000696E74206F7574206F662072616E6765B3
:100860000A00436C69636B20746F20526573756D69
:10087000652E2E2E004E6F204D6F76652E00456E34
:10088000642066696C65206C6973740A0042656750
:10089000696E2066696C65206C6973740A004E6F1E
:1008A000206D656469610A00286E6F2066696C6559
:1008B000290043757272656E742066696C653A2012
:1008C000005344207072696E74696E672062797497
:1008D0006520004E6F74205344207072696E7469F5
:1008E0006E670A0044656C6574696F6E20666169A5
:1008F0006C65642C2046696C653A200046696C651D
:100900002064656C657465643A0025697920256901
:1009100064202569682025696D202569730050725F
:10092000696E742074696D653A2000496E76616C59
:1009300069642050696E204D6F64650A004520256A
:1009400053006F66660044454255473A004D3131C9
:100950003320530042656420436F6F6C696E672ECD
:100960002E2E004265642048656174696E672E2EE4
:100970002E0053686D656565426F74204F46462EA4
:10098000002F2F20004D31343520533C696E6465B3
:10099000783E206F7574206F662072616E676520E7
:1009A00028302D31290A003F4A206F7574206F6668
:1009B0002072616E67652028302E303120746F20E0
:1009C000302E33290A0046523A0020466C6F773A9F
:1009D000200050726F7465637465642050696E0AFC
:1009E0000020536572766F200020643A0020693A37
:1009F0000020703A006469730043290A0061626C48
:100A0000656420286D696E2074656D702000436FE9
:100A10006C642065787472756465732061726520FA
:100A2000004D34323120696E636F727265637420D9
:100A3000706172616D657465722075736167650AB6
:100A4000004F666673657473204170706C696564ED
:100A5000004572723A20546F6F2066617221005413
:100A60006F6F206661722066726F6D2072656665B9
:100A700072656E636520706F696E740A004545503B
:100A8000524F4D204F4B0A00446F6E6520707269C3
:100A90006E74696E672066696C650A004D373700B1
:100AA0004D3331000208FD07F607EF07E1074572F5
:100AB000726F722077726974696E6720746F204557
:100AC0004550524F4D210A004E6F20436865636BBD
:100AD00073756D2077697468206C696E65206E751A
:100AE0006D6265722C204C617374204C696E653A9E
:100AF0002000636865636B73756D206D69736D614C
:100B00007463682C204C617374204C696E653A20C4
:100B1000004C696E65204E756D62657220697320A8
:100B20006E6F74204C617374204C696E65204E7535
:100B30006D6265722B312C204C617374204C696E90
:100B4000653A20004D3131300053442072656164B4
:100B5000206572726F720A002121204B494C4C2093
:100B6000636175736564206279204B494C4C206247
:100B70007574746F6E2F70696E0A002121204B49C5
:100B80004C4C2063617573656420627920746F6FCB
:100B9000206D75636820696E616374697665207481
:100BA000696D65202D2063757272656E7420636FA8
:100BB0006D6D616E643A2000627573793A207061E0
:100BC0007573656420666F7220696E7075740A00B3
:100BD000627573793A2070617573656420666F720F
:100BE00020757365720A00627573793A2070726FAE
:100BF00063657373696E670A004D656469612052AD
:100C0000656D6F766564004D6564696120496E733A
:100C1000657274656400506C65617365205265731C
:100C20006574005052494E5445522048414C544539
:100C3000440025533A202553004B494C4C45442E43
:100C400020005072696E7465722068616C7465640E
:100C50002E206B696C6C28292063616C6C656421A3
:100C60000A00363726033C3D380E2E303E121A1C41
:100C7000180AFF430907084400016F6B00526573AF
:100C8000656E643A200023646566696E652044459C
:100C90004641554C545F004B6420004B6920004B8B
:100CA000702000504944204175746F74756E652042
:100CB00066696E6973686564212050757420746874
:100CC00065206C617374204B702C204B6920616E21
:100CD00064204B6420636F6E7374616E747320665E
:100CE000726F6D2062656C6F7720696E746F204340
:100CF0006F6E66696775726174696F6E2E680A003F
:100D0000504944204175746F74756E652066616941
:100D10006C6564212074696D656F75740A000A2022
:100D2000436C617373696320504944200A00204B6F
:100D3000643A2000204B693A2000204B703A200092
:100D40002054753A2000204B753A2000206D6178C0
:100D50003A2000206D696E3A200020643A2000207D
:100D6000626961733A2000504944204175746F7480
:100D7000756E652073746172740A00504944204195
:100D800075746F74756E65206661696C6564212089
:100D900054656D706572617475726520746F6F2033
:100DA000686967680A00504944204175746F74751A
:100DB0006E6500504944204175746F74756E6520EE
:100DC0006661696C65642120426164206578747293
:100DD00075646572206E756D6265720A0045727287
:100DE0003A207574663820666F6E74206E6F7420BA
:100DF000696E697469616C697A65642E00000C0F14
:100E000000FE07022503BB017FFE08FE08FE050861
:100E10000806000040F0C888889878100508080681
:100E20000000C0F88888888888F805050506000154
:100E30002030F830200508080600002070F8202037
:100E40002020E00509090600FF2070A8A8B88888BE
:100E50007020070505070001D86C366CD805090914
:100E60000600FFF8A88888888888A8F8050A0A0676
:100E700000FE205050505088A8A888700303030635
:100E8000000340A040FFFFFFFFFFFFFFFFFFFFFF4A
:100E9000FFFFFFFFFFFFFFFFFFFFFF000000060552
:100EA000FF01070706020080808080800080030326
:100EB00003060105A0A0A005060606000050F85094
:100EC00050F8500509090600FF2070A8A07028A856
:100ED0007020050707060000C8C810204098980534
:100EE000070706000040A0A040A890680103030681
:100EF00002058080800309090601FF2040408080B0
:100F0000804040200309090601FF80404020202046
:100F100040408005070706000020A8702070A82028
:100F20000505050600012020F82020020303060124
:100F3000FFC04080050101060003F802020206011D
:100F400000C0C005070706000008101020404080C0
:100F5000050707060000708898A8C888700307076F
:100F600006010040C040404040E005070706000081
:100F7000708808102040F8050707060000F80810E0
:100F80003008887005070706000010305090F810F0
:100F900010050707060000F880F0080888700507AC
:100FA00007060000304080F08888700507070600BB
:100FB00000F80810102020200507070600007088A0
:100FC0008870888870050707060000708888780890
:100FD0001060020505060100C0C000C0C002060680
:100FE0000601FFC0C000C0408003050506010120C6
:100FF00040804020050303060002F800F8030505C1
:101000000601018040204080050707060000708827
:1010100010202000200507070600007088B8A8B837
:101020008070050707060000708888F888888805A2
:101030000707060000F04848704848F00507070613
:10104000000070888080808870050707060000F027
:101050004848484848F0050707060000F88080F037
:101060008080F8050707060000F88080F080808007
:1010700005070706000070888080988870050707BC
:10108000060000888888F88888880307070601001A
:10109000E04040404040E0050707060000381010DF
:1010A000101090600507070600008890A0C0A0906F
:1010B00088050707060000808080808080F805078B
:1010C0000706000088D8A8888888880507070600D2
:1010D000008888C8A89888880507070600007088D7
:1010E0008888888870050707060000F08888F080E7
:1010F000808005070706000070888888A89068052A
:101100000707060000F08888F0A09088050707060A
:10111000000070888070088870050707060000F8D6
:1011200020202020202005070706000088888888C6
:101130008888700507070600008888888850502036
:1011400005070706000088888888A8A850050707B3
:101150000600008888502050888805070706000090
:1011600088885020202020050707060000F8081076
:10117000204080F80309090601FFE080808080801C
:101180008080E0050707060000804040201010081E
:101190000309090601FFE020202020202020E0058F
:1011A00003030600052050880501010600FEF80330
:1011B00003030601058040200505050600007008B0
:1011C0007888780507070600008080F0888888F016
:1011D0000505050600007080808870050707060079
:1011E000000808788888887805050506000070885A
:1011F000F08070050707060000304840E04040409E
:101200000507070600FE70888888780870050707BC
:101210000600008080F088888888030707060100A0
:101220004000C0404040E00409090601FE100030C3
:10123000101010109060050707060000808088904D
:10124000E09088030707060100C04040404040E0AE
:10125000050505060000D0A8A8A8A80505050600F4
:1012600000B0C88888880505050600007088888851
:10127000700507070600FEF0888888F08080050763
:10128000070600FE788888887808080505050600A6
:1012900000B0C880808005050506000078807008D1
:1012A000F00507070600002020F82020201805057B
:1012B00005060000888888986805050506000088EE
:1012C000888850200505050600008888A8A85005D4
:1012D000050506000088502050880507070600FE17
:1012E00088888850204080050505060000F81020F9
:1012F00040F80309090601FF20404040804040407B
:10130000200109090602FF80808080808080808023
:101310000309090601FF804040402040404080050D
:10132000030306000248A890FF6563686F3A004512
:1013300072726F723A0042696C696E656172204C1C
:101340006576656C696E6720477269643A0A005376
:10135000544F505045442E20005072696E7465728F
:101360002073746F707065642064756520746F20DD
:101370006572726F72732E204669782074686520DA
:101380006572726F7220616E6420757365204D39CD
:10139000393920746F20726573746172742E20283D
:1013A00054656D7065726174757265206973207221
:1013B000657365742E2053657420697420616674AA
:1013C00065722072657374617274696E67290A00B0
:1013D00021212053544F502063616C6C656420625E
:1013E000656361757365206F6620424C546F756349
:1013F00068206572726F72202D207265737461723D
:10140000742077697468204D3939390A00486F743F
:10141000656E6420746F6F20636F6C640A0053659F
:101420006E64204D31303820746F20726573756D95
:10143000650A0053656E64204D31303820746F208A
:1014400068656174206E6F7A7A6C650A00496E7304
:101450006572742066696C616D656E7420616E647E
:101460002073656E64204D3130380A004C4F5700B0
:1014700048494748004F4B004572726F723A20410D
:101480006C6C200020636F6E6E656374696F6E2EE6
:101490002E2E200054657374696E672000544D43EE
:1014A00020434F4E4E454354494F4E204552524FD4
:1014B00052004732362048656174696E67204E6F6E
:1014C0007A7A6C65004732362048656174696E67C8
:1014D000204265640057616974696E6720666F72A7
:1014E000206865617475702E0A004669786564200D
:1014F0004C656E677468205072696D6500446F6E4C
:1015000065205072696D696E67004D616E75616C22
:10151000207072696D696E672E2E2E00473236205C
:1015200043616E63656C6564004C656176696E67E6
:1015300020473236003F53706563696669656420F1
:10154000582C5920636F6F7264696E617465206FE7
:101550007574206F6620626F756E64732E0A003F8B
:1015600028522965706561742076616C7565206EFE
:101570006F7420706C61757369626C653B206D756A
:101580007374206265206174206C6561737420310E
:101590002E0A003F537065636966696564206E6F4B
:1015A0007A7A6C652074656D7065726174757265A8
:1015B000206E6F7420706C61757369626C652E0AA1
:1015C000003F5370656369666965642066696C6194
:1015D0006D656E742073697A65206E6F7420706C0F
:1015E00061757369626C652E0A003F5370656369AB
:1015F00066696564207072696D65206C656E6774DC
:1016000068206E6F7420706C61757369626C652EF2
:101610000A003F537065636966696564206E6F7A7E
:101620007A6C652073697A65206E6F7420706C61C6
:10163000757369626C652E0A003F5265747261634E
:1016400074696F6E204D756C7469706C6965722079
:101650006D75737420626520737065636966696572
:10166000642E0A003F5370656369666965642052A1
:10167000657472616374696F6E204D756C74697006
:101680006C696572206E6F7420706C61757369622D
:101690006C652E0A003F5370656369666965642056
:1016A0006C6179657220686569676874206E6F7413
:1016B00020706C61757369626C652E0A0043292E77
:1016C0000A003F53706563696669656420626564FA
:1016D0002074656D7065726174757265206E6F74CB
:1016E00020706C61757369626C65202834302D0040
:1016F000473236207374617274696E672E2E2E0A1B
:10170000004C6F6164206D6D00556E6C6F616420DC
:101710006D6D0046696C2E204469612E004520697C
:101720006E206D6DC2B300200820466163740020F6
:1017300008204D6178002008204D696E00417574C5
:101740006F74656D70005654726176204D696E003D
:10175000566D696E00566D6178204500566D617852
:10176000205A00566D6178205900566D61782058D6
:101770000045305F53455249414C5F52585F5049D4
:101780004E0045305F53455249414C5F54585F50BD
:10179000494E005A5F53455249414C5F52585F5081
:1017A000494E005A5F53455249414C5F54585F506F
:1017B000494E00595F53455249414C5F52585F5062
:1017C000494E00595F53455249414C5F54585F5050
:1017D000494E00585F53455249414C5F52585F5043
:1017E000494E00585F53455249414C5F54585F5031
:1017F000494E005A5F53544F505F50494E005A5F54
:10180000535445505F50494E005A5F4D494E5F500A
:10181000494E005A5F454E41424C455F50494E008B
:101820005A5F4449525F50494E00595F53544F50DC
:101830005F50494E00595F535445505F50494E0028
:10184000595F4D494E5F50494E00595F454E4142E8
:101850004C455F50494E00595F4449525F50494ED4
:1018600000585F53544F505F50494E00585F5354D7
:1018700045505F50494E00585F4D494E5F50494EAC
:1018800000585F454E41424C455F50494E00585FFD
:101890004449525F50494E00535549434944455FBE
:1018A00050494E00534552564F335F50494E0053F6
:1018B0004552564F325F50494E00534552564F31B4
:1018C0005F50494E00534552564F305F50494E00CD
:1018D000534453530053445F4445544543545F506D
:1018E000494E0052414D50535F44395F50494E00BC
:1018F00052414D50535F44385F50494E0052414D64
:1019000050535F4431305F50494E004D4F53464570
:10191000545F445F50494E004D4158363637355F6D
:1019200053535F50494E004C45445F50494E004C64
:1019300043445F50494E535F5253004C43445F5001
:10194000494E535F454E41424C45004C43445F5025
:10195000494E535F4434004B494C4C5F50494E0054
:101960004845415445525F4245445F50494E004806
:1019700045415445525F305F50494E0046414E311B
:101980005F50494E0046414E5F50494E0045315F21
:10199000535445505F50494E0045315F454E4142DA
:1019A0004C455F50494E0045315F4449525F5049B4
:1019B0004E0045315F43535F50494E0045305F5301
:1019C0005445505F50494E0045305F454E41424CB2
:1019D000455F50494E0045305F4449525F50494E83
:1019E00000455F4D5558325F50494E00455F4D559B
:1019F00058315F50494E00455F4D5558305F504952
:101A00004E00444F474C43445F53434B00444F47C1
:101A10004C43445F4D4F53490042544E5F454E4343
:101A20000042544E5F454E320042544E5F454E31A7
:101A3000004245455045525F50494E004156525F65
:101A400053535F50494E004156525F53434B5F50D2
:101A5000494E004156525F4D4F53495F50494E0029
:101A60004156525F4D49534F5F50494E0054454DCA
:101A7000505F4245445F50494E0054454D505F31E0
:101A80005F50494E0054454D505F305F50494E0005
:101A900046494C57494454485F50494E00545844B5
:101AA00030005258443000416363656C6572617464
:101AB000696F6E3A20500050574D3A20202534640B
:101AC0000020202020434F4D002020206E6F6E2DDF
:101AD0007374616E646172642050574D206D6F6441
:101AE0006500202020636F6D7061726520696E74DF
:101AF00065727275707420656E61626C6564002039
:101B000020206F766572666C6F7720696E746572DF
:101B10007275707420656E61626C656400202020AF
:101B20002054494D534B00423A2000413A200020B6
:101B300020202054434352002020202043533A20A9
:101B4000002020202057474D3A20002020202054FC
:101B5000494D45520020697320616C736F20746990
:101B6000656420746F20746869732070696E005416
:101B7000494D45523143000A202E002020506F72FB
:101B8000743A2000202020416E616C6F6720696EDE
:101B9000203D2025356C64003C756E757365642F9F
:101BA000756E6B6E6F776E3E004F75747075742036
:101BB0003D2000496E70757420203D200070726FCA
:101BC00074656374656420002028412532642920EF
:101BD00020002533642000446F6E652E0A00507586
:101BE0006C73696E6720202000556E746F75636892
:101BF0006564200066616C7365004641494C3A207B
:101C00004E6F2074726967676572206465746563DE
:101C10007465640A004641494C3A204E6F69736509
:101C2000206465746563746564202D20706C656143
:101C300073652072652D72756E20746573740A0069
:101C40003D20424C546F7563682070726520563396
:101C50002E3120286F7220636F6D70617469626C21
:101C60006529003D205A20536572766F2050726FAF
:101C70006265003D20424C546F7563682056332ED8
:101C8000310020282B2F2D20346D73293A20003A63
:101C90002033306D73206F72206D6F72650A002ED5
:101CA0002050756C7365207769647468002A2A2057
:101CB000506C656173652074726967676572207026
:101CC000726F62652077697468696E2033302073A3
:101CD0006563202A2A0A004641494C3A20424C5466
:101CE0004F55434820656E61626C6564202D20531A
:101CF0006574207570207468697320646576696303
:101D000065206173206120536572766F2050726F79
:101D10006265207769746820494E56455254494E91
:101D2000472073657420746F202774727565272EA1
:101D30000A0020204445504C4F594544207374619B
:101D400074653A204C4F5720286C6F6769632030C8
:101D5000290020204445504C4F594544207374615C
:101D600074653A204849474820286C6F67696320AA
:101D70003129003D204D656368616E6963616C20A7
:101D80005377697463682064657465637465640A75
:101D9000005741524E494E473A20494E56455254FB
:101DA000494E472073657474696E672070726F6264
:101DB00061626C79206261636B77617264732E0A71
:101DC000002E204465706C6F7920262073746F7725
:101DD00020342074696D65730A003D20424C546FB5
:101DE00075636820436C617373696320312E322CF4
:101DF00020312E332C20536D61727420312E302C03
:101E000020322E302C20322E322C20332E302C201B
:101E1000332E312064657465637465642E0A002E68
:101E200020436865636B20666F7220424C544F55A7
:101E300043480A002E205A5F4D494E5F454E445399
:101E4000544F505F494E56455254494E473A200030
:101E50002E2050726F6265205A5F4D494E5F504987
:101E60004E3A20002C2073746F7720616E676C658A
:101E70003A202020002C206465706C6F7920616E00
:101E8000676C653A2000536572766F2070726F62DE
:101E90006520746573740A2E207573696E672069F6
:101EA0006E6465783A2020005761746368696E67D4
:101EB0002070696E730A00656E6473746F70206DB4
:101EC0006F6E69746F722000470048000000880040
:101ED0008A008C00B300B400000098009A009C00B7
:101EE000A800AA00AC0028012A012C0144004500EA
:101EF0006E00800081006F00B000B10070009000A3
:101F000091007100A000A100720020012101730066
:101F1000A21A00019D1A0101901A3B00851A430084
:101F20007A1A45006D1A4400601A3201531A3301BF
:101F3000471A34013C1A3501311A2501291A1101B9
:101F4000211A1701191A23010D1A3301021A34013B
:101F5000F7192801EC192A01E1192C01D6191C01E5
:101F6000C8191801BC191A01B2192C01A7192201AC
:101F700099191E018D192401851909017C19070180
:101F80006F190A0160190801571929014B19190124
:101F90003B191D012F191B0127190D0118194201A9
:101FA000641A32010B190701571A3301FD180A018F
:101FB000F0180801E31809014B1A3401D518310152
:101FC000D0183501C5180B01BA180601AF18050164
:101FD000A41804012019350198180C018E18370136
:101FE00081182601771803016C1836016118030166
:101FF00057183D014A18380140180E0135183C01A8
:102000002A180E012018300113183E010918120178
:10201000FE172E01F3171201E3172801D3173F0112
:10202000C3173B01B3174001A3172A0193174101BE
:1020300082172C0171174201416D617820450041E2
:102040006D6178205A00416D6178205900416D61C1
:1020500078205800412D54726176656C00412D52F4
:1020600065747261637400416363656C0050726FE4
:1020700062652059204F66667365740050726F6206
:10208000652058204F66667365740045207374653B
:1020900070732F6D6D005A2053746570732F6D6DC2
:1020A00000592053746570732F6D6D005820537460
:1020B0006570732F6D6D00496E6974004D34323850
:1020C0000050726F6265204F666673657473004AD4
:1020D000756E6374696F6E20446576004163636555
:1020E0006C65726174696F6E0056656C6F636974BC
:1020F000790053657420486F6D65204F666673657F
:10210000747300486F6D6520257325732573204611
:1021100069727374005761726E696E673A20486F16
:102120006D696E672042756D702044697669736FC2
:1021300072203C20310A0000008040000000400076
:102140000000000000A0410000A04100000041028A
:1021500002040000A0400000A040000000400080F9
:102160009D43000098430000C843FFFFFF00809F8D
:1021700043000099430000C843436F6E666967756A
:10218000726174696F6E0043616E63656C004269D1
:102190006C696E656172204C6576656C696E67006E
:1021A0004578747275646572730053686D65656512
:1021B000426F7400323032302D31302D31350054C1
:1021C0006865726D6973746F727300426F617264D7
:1021D00020496E666F005072696E74657220496E98
:1021E000666F0053746F70004368616E67652046C8
:1021F000696C616D656E740050726568656174200C
:10220000437573746F6D004368616E6765204D653B
:10221000646961004D32310041626F757420507203
:10222000696E746572004D36303020423000526560
:1022300073756D65205072696E740054756E65001B
:1022400053746F70205072696E74005061757365BD
:10225000205072696E74004E6F204D656469610094
:10226000496E666F2053637265656E0053746172C8
:1022700074205072696E740043616E6E6F742065D5
:102280006E746572207375626469723A2000022E62
:102290002E0053657474696E67732053746F726592
:1022A00064002062797465733B206372632000537D
:1022B000657474696E67732053746F726564202847
:1022C00000454550524F4D206461746173697A65D1
:1022D000206572726F722E0A002073746F726564CB
:1022E0002073657474696E677320726574726965B2
:1022F000766564202800202863616C63756C6174C6
:10230000656429210A0020213D2000454550524F97
:102310004D20435243206D69736D61746368202DB5
:10232000202873746F726564292000496E64657893
:102330003A200044494749504F5453204C6F616440
:1023400065640A0044494749504F5453204C6F611B
:1023500064696E670A00204D61726C696E3D563883
:1023600032290A00454550524F4D207665727369F7
:102370006F6E206D69736D617463682028454550E8
:10238000524F4D3D0048617264636F646564204440
:10239000656661756C742053657474696E6773202B
:1023A0004C6F616465640A003B200000401C4500DE
:1023B000401C450000C8420000C8410000A0420087
:1023C00000A0420000C8430000BE42F4010000F437
:1023D00001000064000000881300001FE0201020AE
:1023E0001020101020102020102010303008400441
:1023F0008003001FE03FF03FF03FF01FE01FE03F91
:10240000F03FF03FF00FC0078003003FFFF03800BF
:102410007030FC3020FC102078102030102C00D0C0
:102420002E31D02F7BD02F7BD02E31D02C00D0203E
:10243000301020781020FC1030FC303800703FFF46
:10244000F03FFFF0380070318630238710278790E7
:102450002F87D02F03D02030102078102078102024
:1024600030102F03D02F87D02787902387103186F5
:10247000303800703FFFF01FFFF81FFFF8041040D6
:10248000020820020820041040082080104100109B
:1024900041000820800410400000001FFFF81FFFCB
:1024A000F83DF00238F04488064510808802450067
:1024B00080F002448080A3F2446080900244108047
:1024C00090024410448802451039CC0739E00000DE
:1024D000000000003870E00000448910000004890A
:1024E00010000018891000000489100000048910F1
:1024F0000000048910000044891000003870E000DA
:102500002568753A25303268750025303268753A8D
:1025100025303268750020202020202020003F0038
:10252000496E697469616C697A6520454550524FFE
:102530004D005072696E742041626F727465640060
:102540004D323520500A4D32340050617573696E3A
:10255000672E2E2E00454550524F4D205665727302
:10256000696F6E204572726F7200454550524F4D33
:1025700020496E646578204572726F72004545503F
:10258000524F4D20435243204572726F720049678B
:102590006E6F726500486F6D696E67204661696C89
:1025A0006564006F70656E00545249474745524557
:1025B00044007A5F6D696E00795F6D696E00785FC7
:1025C0006D696E005265706F7274696E6720656E1A
:1025D0006473746F70207374617475730A0066722B
:1025E00065736800646F696E67004E6F7720000244
:1025F0004E65787420436F726E657200446F6E652D
:10260000004E65787400486F6D696E672058595A9E
:10261000005A2056616C756500496E6465782059D2
:1026200000496E6465782058004C6576656C2043DF
:102630006F726E65727300466164652048656967F4
:1026400068740045646974204D657368004C657654
:10265000656C20426564004732380A4732390053BE
:10266000746F77004465706C6F790053656C662DEC
:10267000546573740053572D4D6F6465004C6F6142
:10268000642053657474696E67730053746F726568
:102690002053657474696E67730050726F626520B1
:1026A0005A204F666673657400416476616E636597
:1026B000642053657474696E677300554E4C4F41C6
:1026C000442046494C414D454E540046494C414DED
:1026D000454E54204348414E47450046616E2053C5
:1026E0007065656400526573746F72652044656639
:1026F00061756C7473005072656865617420242084
:10270000436F6E6600424C546F756368004D3730FE
:102710003220542564004D3630302042302054257C
:1027200064004D373032203B2564004D3730312076
:1027300054256400436F6E74696E75650050757240
:102740006765206D6F726500524553554D45204FAA
:102750005054494F4E533A005052494E5420504124
:10276000555345440020204E6F7A7A6C653A20001C
:10277000313230004245443A204550434F532031D6
:1027800030304B0052756E61776179205761746308
:10279000683A204F4E004D61782054656D700032CC
:1027A0003635004D696E2054656D700045313A2014
:1027B0004550434F53203130304B00505355004764
:1027C000656E657269630050726F746F636F6C0041
:1027D000312E3000426175640031313532303000C5
:1027E000437265616C69747933442052414D505392
:1027F000005061726B696E672E2E2E0000005761CB
:10280000697420666F720066696C616D656E742014
:102810006368616E676500746F2073746172740021
:102820005761697420666F720066696C616D656ED0
:102830007420756E6C6F616400004E6F7A7A6C65FF
:102840002068656174696E6700506C65617365200E
:10285000776169742E2E2E000050726573732062AA
:102860007574746F6E00746F2068656174206E6F8C
:102870007A7A6C650000496E736572742066696CC3
:10288000616D656E7400616E642070726573732093
:10289000627574746F6E00746F20636F6E74696E0E
:1028A0007565005761697420666F720066696C61B6
:1028B0006D656E74206C6F61640000507265737397
:1028C00020427574746F6E00746F20726573756D3D
:1028D00065207072696E7400005761697420666FBC
:1028E00072207072696E7400746F20726573756DFA
:1028F000652E2E2E00005761697420666F72006687
:10290000696C616D656E742070757267650000504A
:1029100072696E74205061757365640020746F6F06
:10292000206C6F6E6720657874727573696F6E20A6
:1029300070726576656E7465640A0020636F6C64FE
:1029400020657874727573696F6E20707265766534
:102950006E7465640A0053686D656565426F742026
:1029600052656164792E005072696E74696E672ECB
:102970002E2E00205A3A0020593A00DB0FC93F455D
:10298000BCDA3F8FB30240FCF0274056946140FE12
:102990004B9B4084A5D840E0231841346A5641E857
:1029A00059974164DBD5416E271742B4B75542CEE3
:1029B0001A9742C8AED542B5885A43D40684BFA6FA
:1029C0005FA7BF7443E0BF10B11AC01C2C58C0E809
:1029D000F697C0B849D6C04E4E17C124D355C18012
:1029E0002497C1A0B5D5C1121A17C244AE55C278FA
:1029F0001797C26CACD5C267885AC30000000000AC
:102A00000000600000000000FC00000FF00000006B
:102A10000007E00000000001861FC01870000000E1
:102A20000000603C0C000001830C601030000000CE
:102A30000000603C0C000001830C303030000000CE
:102A4000000060000C000000030C183000000000C3
:102A5000000060003F0F3C00030C0C6001DF0FE042
:102A6000FE00601C1C061800060C0C6000F31831F8
:102A70008300600C0C0318001E0C0C6000E0303961
:102A80008300600C0C033000030C0C6000C0303875
:102A90000F00600C0C033000018C0C6000C03FF88C
:102AA000FB00600C0C033000018C0C6030C0300166
:102AB0008300600C0C01F001818C0C6030C030018F
:102AC0008300600C0C00E001818C183030C018319C
:102AD0008300600C0C40E001838C301860C00C61F6
:102AE00087C0E01C0CC06000C30C600FC3F007C0BF
:102AF000FFC7FC7F0781C0007E1FC00000000000F0
:102B000000000000000700000000000000000000BE
:102B1000000000000007000000000001FFFFFFFFB1
:102B2000FFFFFFFFFFFFFFFFFF0FFFFFFFFFFFFFA5
:102B3000FFFFFFFFFFFFFF1E00000000000000007E
:102B4000000007FFFF380000000000000000000048
:102B500003FFFF700000000000000000000001FF04
:102B6000FF600000000000000000000000FFFF60A8
:102B700000000000000000000000007FFFC0000017
:102B80000000000000007800003FFFC00FC0FC0004
:102B9000000000007818001FFFC03FE1FF000000A8
:102BA0000000783C000FFFC07FF3FF8000000000B2
:102BB000783C0007FFC0FFFFFFC000000000783C2A
:102BC0000003FFC1F87F87E00000000078000001EB
:102BD000FFC1F03F03E00000000078000000FFC1EB
:102BE000E01E01E01F0003E0783C03F07FC1E01E1F
:102BF00001E07FC00FF8783C07FC3FC1E01E01E117
:102C0000FFE01FFC783C0FFE1FC1E01E01E3FFF058
:102C10003FFE783C1FFE0FC1E01E01E3F3F83F3E8C
:102C2000783C3F3F07C1E01E01E7E0FC7C1F783C99
:102C30003E1F07C1E01E01E7C07C7C0F783C3C0FC3
:102C400003C1E01E01E7807C780F783C3C0F03C194
:102C5000E01E01E7803C7800783C3C0F03C1E01E99
:102C600001E7803C7800783C3C0F03C1E01E01E79F
:102C7000803C7800783C3C0F03C1E01E01E7C03C7B
:102C80007800783C3C0F03C1E01E01E3E03C780093
:102C90007C3C3C0F03C1E01E01E3FF3FF8007FBC1A
:102CA0003C0F03C1E01E01E1FF3FF8003FBFFC0FF6
:102CB00003C1E01E01E0FF3FF8001FBFFC0F03C18E
:102CC000E01E01E07F3FF8000FBFFC0F0360000033
:102CD000000000000000000000000760000000008D
:102CE000000000000000000006700000000000006E
:102CF0000000000000000E3800000000000000008E
:102D0000000000001C1E0000000000000000000089
:102D10000000780FFFFFFFFFFFFFFFFFFFFFFFFF38
:102D2000F001FFFFFFFFFFFFFFFFFFFFFFFF8070CE
:102D3000012C0190012701B0012201C0011D01F009
:102D40000118011002130130020E01600209019006
:102D5000020401C002FF000003FA004003F50080F6
:102D600003F000D003EB002004E6007004E100E073
:102D700004DC004005D700C005D2004006CD00D0DD
:102D800006C8008007C3003008BE00F008B900C0C4
:102D900009B400B00AAF00B00BAA00D00CA5000027
:102DA0000EA000500F9B00C0109600501291000022
:102DB000148C00C0158700B0178200B0197D00D0B8
:102DC0001B7800001E730040206E0090226900F006
:102DD00024640040275F0090295A00E02B55001022
:102DE0002E500020304B0010324600E0334100905E
:102DF000353C001037370070383200A0392D00B054
:102E00003A2800A03B2300603C1E00103D190090B2
:102E10003D1400103E0F00703E0A00C03E05000049
:102E20003F0000403FFBFF803FF6FFC03FF1FF68DF
:102E3000747470733A2F2F6D61726C696E66772EA1
:102E40006F726700322E302E372E32002020506CE9
:102E5000616E6E65724275666665724279746573FD
:102E60003A20002046726565204D656D6F72793A93
:102E70002000436F6D70696C65643A204A616E2072
:102E8000323420323032310A00204C6173742055C4
:102E90007064617465643A20323032302D31302DE7
:102EA0003135207C20417574686F723A2028707229
:102EB000696E746564736F6C69642E636F6D2C202A
:102EC00043522D313053290A00322E302E372E3204
:102ED0000A004D61726C696E0020536F66747761F1
:102EE00072652052657365740A00205761746368C7
:102EF000646F672052657365740A002042726F77B1
:102F00006E206F75742052657365740A00204578D1
:102F10007465726E616C2052657365740A00506F3F
:102F200077657255700A006175746F25632E6700AE
:102F3000473237004D31303031006572726F722088
:102F400077726974696E6720746F2066696C650AB0
:102F500000446F6E6520736176696E672066696CE8
:102F6000652E0A004D323900456E6473746F7073BC
:102F70000025532025632025632025632025630039
:102F8000656E6473746F7073206869743A20000012
:102F9000002100240027002A002D0030003300010A
:102FA000010000040107010A0100000A0B02090CDC
:102FB0000D0E0807030401000000000000000000DF
:102FC0000000000000000000000000000000000001
:102FD00000000000001211100000000000000000BE
:102FE00000000000000000000000000000000000E1
:102FF0000020002300260029002C002F00320000B2
:10300000010000030106010901000022002500283B
:10301000002B002E003100340002010000050108E1
:10302000010B01050505050705080808080202024D
:10303000020A0A0808040404040101010101010153
:10304000010303030303030303040707070C0C0C2A
:103050000C0C0C0C0C020202020606060606060602
:10306000060B0B0B0B0B0B0B0B010210202008089F
:1030700010204010204080020102010804020101DA
:1030800002040810204080804020100804020180C3
:10309000040201804020100804020108040201011A
:1030A0000204081020408001020408102040804DD6
:1030B0006F76652025736D6D004D6F766520302E1F
:1030C000316D6D004D6F766520316D6D004D6F7601
:1030D000652031306D6D004D6F76652041786973E4
:1030E000004578747275646572004D6F7665205A7C
:1030F000004D6F76652059004D6F76652058004F62
:103100006666004F6E00544D4320447269766572C6
:10311000730046616E205370656564207E004D61CA
:10312000696E00537465616C746843686F70204504
:103130006E61626C6564005374657070696E6720BF
:103140004D6F6465004472697665722043757272D2
:10315000656E7400436F6E74726F6C0042616279C9
:1031600073746570205A00466C6F770020520020FF
:10317000204D3930360020204D353639205331006E
:1031800020204D363033200020550046696C616D9B
:10319000656E74206C6F61642F756E6C6F61642056
:1031A0006C656E677468733A004472697665722064
:1031B0007374657070696E67206D6F64653A002086
:1031C00054302045005374657070657220647269D4
:1031D0007665722063757272656E743A0020204DB8
:1031E0003835312058005A2D50726F6265204F6675
:1031F000667365740020204D3330312050005049F3
:10320000442073657474696E67733A002046002029
:10321000480020204D3134352053004D61746572D3
:1032200069616C2068656174757020706172616D90
:1032300065746572733A002020473239205720495F
:103240000020204D3432302053004175746F2042ED
:103250006564204C6576656C696E673A0020204D88
:10326000323036205800486F6D65206F6666736592
:10327000743A00204A0020204D323035204200416F
:103280006476616E6365643A20423C6D696E5F737B
:1032900065676D656E745F74696D655F75733E20FB
:1032A000533C6D696E5F66656564726174653E204E
:1032B000543C6D696E5F74726176656C5F666565BE
:1032C00064726174653E204A3C6A756E635F646532
:1032D000763E0020540020204D32303420500041F2
:1032E0006363656C65726174696F6E2028756E69C1
:1032F00074732F7332293A20503C7072696E745F78
:10330000616363656C3E20523C72657472616374E4
:103310005F616363656C3E20543C74726176656CDA
:103320005F616363656C3E0020204D323031205870
:10333000004D6178696D756D20416363656C6572E0
:103340006174696F6E2028756E6974732F733229EA
:103350003A0020204D3230332058004D6178696D9D
:10336000756D206665656472617465732028756E7D
:103370006974732F73293A005374657073207065F4
:103380007220756E69743A0020440020204D32305E
:10339000302053002044697361626C65640A004602
:1033A000696C616D656E742073657474696E6773A2
:1033B0003A0020204D3134392043203B20556E699E
:1033C000747320696E2043656C736975730A0020FD
:1033D000286D6D29002020473231202020203B20FD
:1033E000556E69747320696E206D6D0024F4D430BD
:1033F00050C38E20C2A24017828B7011127A910D99
:10340000816CD90AA861E108C75866076151430673
:103410001E4B5D05C145A7041A411104093D9803DF
:10342000713931034036DB0265339102D4305402E6
:10343000802E1D02632CEE01752AC501B028A00163
:10344000102781018F2564012B244B01E0223401D8
:10345000AC211F018D200D01801FFC00841EED009A
:10346000971DDF00B81CD200E61BC600201BBC0065
:10347000641AB200B219A8000A19A0006A189900CB
:10348000D117910040178B00B516840031167E00CD
:10349000B31579003A157300C7146F0058146A0009
:1034A000EE1366008813630025135E00C7125B00ED
:1034B0006C12570015125400C111510070114F00C9
:1034C00021114B00D61049008D10470046104400D2
:1034D00002104200C00F4000800F3E00420F3C002F
:1034E000060F3B00CB0E3800930E37005C0E350004
:1034F000270E3400F30D3200C10D3100900D300065
:10350000600D2E00320D2D00050D2C00D90C2B0066
:10351000AE0C2900850C29005C0C2700350C270017
:103520000E0C2600E80B2400C40B2400A00B230083
:103530007D0B23005A0B2100390B2100180B2000B2
:10354000F80A1F00D90A1E00BB0A1E009D0A1D00B2
:10355000800A1D00630A1C00470A1B002C0A1B007E
:10356000110A1A00F7091A00DD091900C409190027
:10357000AB091900920917007B09180063091700AD
:103580004C09160036091600200916000A09150014
:10359000F5081500E0081400CC081400B808140061
:1035A000A4081400900813007D0812006B08130093
:1035B00058081200460812003408110023081100B0
:1035C0001208110001081100F0071000E0071000B8
:1035D000D0071000C0071000B0070F00A1071000AF
:1035E00091070E0083070F0074070F0065070E0098
:1035F00057070E0049070E003B070D002E070E006F
:1036000020070D0013070D0006070D00F9060C003A
:10361000ED060D00E0060C00D4060C00C8060C00F8
:10362000BC060C00B0060C00A4060B0099060C00AA
:103630008D060B0082060B0077060B006C060B0054
:1036400061060A0057060B004C060A0042060A00F3
:1036500038060A002E060A0024060A001A060A0086
:103660001006090007060A00FD050900F405090017
:10367000EB050900E2050900D9050900D00509009C
:10368000C7050900BE050900B5050800AD0508001D
:10369000A50509009C050800940508008C05080094
:1036A000840508007C050800740508006C05070007
:1036B000650508005D050700560508004E05070072
:1036C00047050700400508003805070031050700D9
:1036D0002A050700230507001C050600160507003C
:1036E0000F0507000805060002050700FB04060099
:1036F000F5040700EE040600E8040600E2040700F3
:10370000DB040600D5040600CF040600C904060049
:10371000C3040600BD040600B7040600B10405009A
:10372000AC040600A6040600A00405009B040600E5
:1037300095040500900406008A0405008504050030
:10374000800406007A040500750405007004050075
:103750006B04050066040500610405005C040500B7
:1037600057040500520405004D04050048040500F7
:10377000430405003E0404003A0405003504050036
:10378000300404002C040500270404002304050071
:103790001E0404001A0404001604050011040400A9
:1037A0000D040400090405000404040000040400DE
:1037B000FC030400F8030400F4030400F003040015
:1037C000EC030400E8030400E4030400E003040045
:1037D000DC030400D8030400D4030400D003040075
:1037E000CC030400C8030300C503030024F404D978
:1037F000201BC40C5C0E9804C4095F0265077101AC
:10380000F405F900FB04B30048048700C103690014
:103810005803550003034500BE023A0084023100FC
:1038200053022A002902250004022000E4011C00A2
:10383000C8011900AF01170098011400840113009A
:10384000710110006101100051010E0043010D00D3
:1038500036010B002B010B0020010B0015010900A4
:103860000C01090003010800FB000800F300080038
:10387000EB000700E4000600DE000600D8000600AA
:10388000D2000600CC000500C7000500C2000500FC
:10389000BD000400B9000400B5000400B10004003C
:1038A000AD000400A9000400A5000300A20003006D
:1038B0009F0004009B000300980003009500020095
:1038C00093000300900003008D0002008B000300B2
:1038D00088000200860002008400030081000200CC
:1038E0007F0002007D0002007B00020079000200E0
:1038F00077000100760002007400020072000100EF
:10390000710002006F0002006D0001006C000200F7
:103910006A00010069000200670001006600010002
:103920006500010064000200620001006100010006
:10393000600001005F0002005D0001005C0001000A
:103940005B0001005A00010059000100580001000D
:10395000570001005600010055000100540001000D
:10396000530000005300010052000100510001000B
:10397000500001004F0001004E0000004E00010009
:103980004D0001004C0001004B0000004B00010005
:103990004A00010049000100480000004800010001
:1039A00047000100460000004600010045000000FD
:1039B00045000100440001004300000043000100F5
:1039C00042000000420001004100000041000100EF
:1039D000400001003F0000003F0001003E000000E9
:1039E0003E0001003D0000003D0001003C000000E1
:1039F0003C0000003C0001003B0000003B000100D7
:103A00003A0000003A0001003900000039000100CE
:103A100038000000380000003800010037000000C6
:103A200037000100360000003600000036000100BB
:103A300035000000350000003500010034000000B2
:103A400034000000340001003300000033000000A7
:103A5000330001003200000032000000320001009B
:103A60003100000031000000310001003000000092
:103A700030000000300001002F0000002F00000087
:103A80002F0000002F0001002E0000002E0000007B
:103A90002E0001002D0000002D0000002D00000070
:103AA0002D0001002C0000002C0000002C00000064
:103AB0002C0001002B0000002B0000002B00000058
:103AC0002B0001002A0000002A0000002A0000004C
:103AD0002A00010029000000290000002900000040
:103AE0002900000029000100280000002800000033
:103AF0002800000028000000280001002700000026
:103B00002700000027000000270000002700010018
:103B1000260000002600000026000000260000000D
:103B200026000100250000002500000025000000FF
:103B300025000000250000002500010024000000F1
:103B400024000000240000002400000024000100E4
:103B500023000000230000002300000023000000D9
:103B600023000000230000002300010022000000C9
:103B700022000000220000002200000022000000BD
:103B800022000100210000002100000021000000AF
:103B900021000000210000002100000021000100A0
:103BA0002000000020000000200000002000000095
:103BB0002000000020000000200000002000010084
:103BC0001F0000001F0000001F0000001F00000079
:103BD0001F0000001F0000001F0001001E00000069
:103BE0001E0000001E0000001E0000000437000040
:103BF0001E290000511B0000581000001009000091
:103C0000CC0400007802000041010000496E76619A
:103C10006C69642065787472756465720A00205757
:103C20003A007C3C3E5E2B3D3F2F5B5D3B2C2A22C5
:103C30005C00453100626564002C20737973746503
:103C40006D2073746F7070656421204865617465C0
:103C5000725F49443A200048656174696E67204686
:103C600061696C65640048656174696E67206661AE
:103C7000696C6564004D3131322053687574646F2E
:103C8000776E00202D20496E76616C69642065781E
:103C9000747275646572206E756D62657220210A9A
:103CA00000544845524D414C2052554E41574159C0
:103CB00000546865726D616C2052756E6177617930
:103CC000004572723A204D415854454D50004D41C7
:103CD0005854454D50207472696767657265640079
:103CE0004572723A204D494E54454D50004D494E53
:103CF00054454D5020747269676765726564000AA7
:103D00000A0020205A5F4D494E3A002020595F4D4D
:103D1000494E3A002020585F4D494E3A00202F006E
:103D20002042403A0020403A002053697A653A2008
:103D30000043616E6E6F74206F70656E20737562E4
:103D40006469722000534420496E69742046616999
:103D50006C0053442063617264206F6B0A006F70C3
:103D6000656E526F6F74206661696C65640A0076D7
:103D70006F6C756D652E696E6974206661696C651E
:103D8000640A004E6F20534420636172640A004D40
:103D90003233202573006F70656E206661696C6533
:103DA000642C2046696C653A200046696C65207376
:103DB000656C65637465640A0046696C65206F70A4
:103DC000656E65643A2000454E4420535542524F7B
:103DD0005554494E450A002220706F73002220700E
:103DE0006172656E743A2200535542524F555449E0
:103DF0004E452043414C4C207461726765743A22F1
:103E00000053756263616C6C204F766572666C6FEF
:103E100077004578636565646564206D617820533B
:103E20005542524F5554494E452064657074683A66
:103E3000310A0057726974696E6720746F20666971
:103E40006C653A20004261636B004D6F74696F6E60
:103E5000004D3834004175746F20486F6D65005413
:103E6000656D7065726174757265004142530050F2
:103E70004C410050726568656174202400486F747D
:103E8000656E6420746F6F20636F6C640050726F96
:103E9000636565640044697361626C652053746591
:103EA00070706572730047323800507265686561E2
:103EB00074202420456E640050726568656174202A
:103EC000242042656400436F6F6C646F776E006FEF
:103ED0003E6B3E204D393220580020204D61783A0B
:103EE000200020204D696E3A2000536F66742065D3
:103EF0006E6473746F70733A2000737072656164DE
:103F00004379636C6500737465616C746843686FB2
:103F1000700020647269766572206D6F64653A097D
:103F200000206472697665722063757272656E74C2
:103F30003A200020496E76616C696420657874725D
:103F4000756465722000446966663A202020004648
:103F5000726F6D5374703A00537465707065723A85
:103F600000556E4C6576656C3A004C6576656C65FF
:103F7000643A005261773A20202020000A4C6F6793
:103F80006963616C3A00436F756E7420453A004373
:103F900061703A004348414D4245525F54454D508F
:103FA000455241545552450042414259535445509F
:103FB00050494E470041524353004D4F54494F4ED4
:103FC0005F4D4F44455300544845524D414C5F505E
:103FD000524F54454354494F4E004C4F4E475F4655
:103FE000494C454E414D45004155544F5245504F67
:103FF00052545F53445F5354415455530053444308
:104000004152440050524F4D50545F535550504F01
:10401000525400454D455247454E43595F50415219
:1040200053455200434153455F4C494748545F4212
:1040300052494748544E45535300544F47474C4507
:104040005F4C494748545300534F465457415245DB
:104050005F504F574552004255494C445F504552BE
:1040600043454E54004C4556454C494E475F4441EC
:104070005441005A5F50524F42450052554E4F55E1
:1040800054004155544F4C4556454C005052494EF2
:10409000545F4A4F420050524F47524553530041DC
:1040A00055544F5245504F52545F54454D50005651
:1040B0004F4C554D45545249430042494E41525987
:1040C0005F46494C455F5452414E5346455200535A
:1040D000455249414C5F584F4E5F584F4646004647
:1040E00049524D574152455F4E414D453A4D6172DF
:1040F0006C696E20322E302E372E3220284A616EA7
:1041000020323420323032312032323A30383A34B0
:10411000332920534F555243455F434F44455F5524
:10412000524C3A68747470733A2F2F6769746875CB
:10413000622E636F6D2F4D61726C696E4669726D90
:10414000776172652F4D61726C696E2050524F54C9
:104150004F434F4C5F56455253494F4E3A312E30E4
:10416000204D414348494E455F545950453A5368A4
:104170006D656565426F74204558545255444552EB
:104180005F434F554E543A3120555549443A636583
:104190006465326132662D343161322D3437343802
:1041A0002D396231322D6335356336326633363719
:1041B00066660A003F5A206F7574206F6620726130
:1041C0006E67652028003F59206F7574206F662048
:1041D00072616E676520282D0020746F20003F58A3
:1041E000206F7574206F662072616E676520282DC0
:1041F0000050726F6265204F6666736574205800C8
:10420000656E7175657565696E672022005072690B
:104210006E742066726F6D204D6564696100205A6E
:104220003A200020593A200042656420583A200084
:1042300050726F62696E67204661696C65640A003E
:1042400050726F62696E67204661696C6564002216
:104250000A00556E6B6E6F776E20636F6D6D616EC9
:10426000643A202200456E636C6F73757265004F6F
:1042700046460A004661646520486569676874209F
:1042800000426564204C6576656C696E6720004667
:1042900061696C656420746F20656E61626C652075
:1042A000426564204C6576656C696E670A00496EEC
:1042B00076616C6964206D6573682E0A0050726FB8
:1042C00062696E6720506F696E74002553202569FE
:1042D0002F25690050726F62696E67206D65736883
:1042E00020706F696E742000202844525952554E38
:1042F0002900473239204175746F20426564204C93
:104300006576656C696E67003F20284C2C522C4600
:104310002C4229206F7574206F6620626F756E6461
:10432000732E0A003F2856296572626F7365206CF0
:104330006576656C20696D706C61757369626C651A
:104340002028302D34292E0A00426164205A20761C
:10435000616C75650A004E6F2062696C696E6561FB
:104360007220677269640A0020436F756E7420586A
:104370003A005C013E0311241FBECFEFD1E2DEBF45
:10438000CDBF00E00CBF13E0A0E0B2E0EEE5FBED36
:1043900002E00BBF02C007900D92A23DB107D9F712
:1043A00027E1A2EDB3E001C01D92A639B207E1F703
:1043B00011E2CAEBD1E200E006C021970109802F8B
:1043C000FE010F94B769C93BD10780E00807A9F740
:1043D0000F946C510D949D6D0C9400002F923F92A0
:1043E0004F925F926F927F928F929F92AF92BF9205
:1043F000CF92DF92EF92FF920F931F93CF93DF93B1
:10440000CDB7DEB7E7970FB6F894DEBF0FBECDBFCE
:104410008EAB2091DC032CAB21E02093DC03809158
:1044200025178D3409F45BC3843511F40C9497324D
:10443000873411F00C94A93280912317909124179E
:104440008B31910509F420C1B4F48430910534F422
:1044500082309105DCF597FF2DC03DC38531910574
:1044600011F40C94AB328A31910509F409C1049717
:1044700009F031C3C6C08A32910509F44CC254F424
:104480008D31910509F42BC10CF419C14E9709F433
:1044900045C121C38B35910509F4BAC18C3591050D
:1044A00009F4BBC18A35910509F015C31092DB03ED
:1044B0000C94AB328091590E813011F00C94AB32D8
:1044C0000F9467280E94CB8E0C94AB322091590E2A
:1044D000213011F00C94AB3211E0029709F010E09A
:1044E0000F94672819821A821B821C821D821E82E9
:1044F0001F82188682E50E94195D882309F44BC04B
:104500000E94945C6B017C0120E030E0A9010F94D3
:10451000BC62882309F455C0809143029091440203
:10452000A0914502B091460288A799A7AAA7BBA768
:104530008091470290914802A0914902B0914A02AD
:1045400088AB99ABAAABBBAB809044179090451752
:10455000A0904617B09047174090481750904917C1
:1045600060904A1770904B17A501940168A579A532
:104570008AA59BA50F94BC6281110C94B432A3014F
:10458000920168A979A98AA99BA90F94BC62882382
:10459000C1F00C94B43289E40E94195D882331F093
:1045A0000E94945C69837A838B839C838AE40E9453
:1045B000195D882331F00E94945C6D837E838F8324
:1045C000988720E030E0A90169817A818B819C8104
:1045D0000F94BC6281110C94683320E030E0A90193
:1045E0006D817E818F8198850F94BC6281110C94BE
:1045F00068330E94955487E098E00E94DF520C9443
:10460000AB3280E50E94195D882329F00E94B07EBC
:104610006B017C0103C0C12CD12C760183E50E9483
:10462000195D882361F00E94945C20E030E04AE745
:1046300054E40F9422630F947C6B6B017C010E9405
:1046400034888091FE05811105C060E08DE198E01D
:104650000E9443BC0E9483EDC60ED71EE81EF91EC1
:104660000E9483EDDC01CB018C199D09AE09BF09C5
:10467000B7FD02C00C94AB3280E00E947A3CF0CFD0
:104680000E944A5D0C94AB3287E00E94EA8D811152
:104690000C94AB328CE0E6E9F2E0DE011196019079
:1046A0000D928A95E1F760E070E080E50F94792C37
:1046B000BE016F5F7F4F0E94A4B70C94AB32809114
:1046C0008D058770873011F00C947B3360E08FE4A8
:1046D0000E94355D81110C94AB320C947B330E94A7
:1046E00083ED6093920F7093930F8093940F909348
:1046F000950F87E00E94EA8D81110C94AB32809176
:10470000410F882311F40C945A3560E08FE40E9425
:10471000355D81110C94AB320C945A3520915617AB
:104720003091571740915817509159176091430293
:104730007091440280914502909146020F94096A5B
:10474000AB01BC0188E50E94474769837A838B836C
:104750009C8320915A1730915B1740915C175091C0
:104760005D176091470270914802809149029091D3
:104770004A020F94096AAB01BC0189E50E944747D0
:104780006D837E838F839887BE016B5F7F4FCE01E1
:1047900001960F946044882311F40C94AB3280E0AE
:1047A0000E94A84E0E94A39161E085E40E94355DBD
:1047B00021E0482FBE016B5F7F4FCE0101960F9421
:1047C000B83A6B017C019B01AC010F94FB6C811129
:1047D00019C049815A816B817C8188E292E40E94F0
:1047E00064544D815E816F81788583E292E40E94FA
:1047F0006454B701A6018EE192E40E9464548AE0F9
:104800000E944E3B0E948A910E945AB30C94AB3294
:104810008FE08093DB030C94AB3299E6292E93E072
:10482000392E21E8E22E25E0F22E23E432E039A7EA
:1048300028A732E2C32E37E0D32E00E010E0D101EA
:104840008D911D010E94195D882309F44BC00E94BF
:10485000945C2B013C01133049F0F6012081318139
:10486000428153810F94086A2B013C01A8A5B9A588
:104870002D913D914D915C91C301B2010F94086A55
:104880004B015C012DEB37E346E855EB0F94696C67
:1048900087FD0AC02DEB37E346E855E3C501B401B7
:1048A0000F94BC621816F4F4133051F440924F0286
:1048B00050925002609251027092520201E012C076
:1048C000A5019401F70160817181828193810F9428
:1048D000096AD7016D937D938D939C931397812FD4
:1048E0000E94F48C1F5FB4E0EB0EF11CE8A5F9A563
:1048F0003496F9A7E8A7F4E0CF0ED11C143009F0E4
:104900009ECF002321F08FE492E00E944C8B0E9406
:104910005AB30C94AB328091590E813011F00C9443
:10492000AB3289E40E94195DE82E882321F00E94B1
:10493000905C082F01C000E08AE40E94195DF82E07
:10494000882321F00E94905C182F01C010E0EE2017
:1049500011F0053020F4FF2041F0153030F089E4EB
:1049600098E00E94DF520C94AB3280E1E3E4F2E085
:10497000A4E4B7E101900D928A95E1F7EE2019F1D8
:10498000602F000F770B880B990B0F94C362209157
:10499000BD0E3091BE0E4091BF0E5091C00E0F94CF
:1049A000226320919D0530919E0540919F05509175
:1049B000A0050F94096A609344177093451780937C
:1049C000461790934717FF2019F1612F110F770BAE
:1049D000880B990B0F94C3622091C10E3091C20EC7
:1049E0004091C30E5091C40E0F9422632091A105F3
:1049F0003091A2054091A3055091A4050F94096A36
:104A0000609348177093491780934A1790934B17F8
:104A100060E080E50E94355D8823C1F1EE20D1F091
:104A200020915617309157174091581750915917A8
:104A300060914417709145178091461790914717E0
:104A40000F94086A60934417709345178093461734
:104A500090934717FF20D1F020915A1730915B17A0
:104A600040915C1750915D176091481770914917FC
:104A700080914A1790914B170F94086A60934817DA
:104A80007093491780934A1790934B1740E050E07A
:104A9000BA0186E40E9447476B017C0120E030E0C8
:104AA000A9010F94696C18164CF420E030E040E73F
:104AB00052E4C701B6010F94036B03C060E070E0DD
:104AC000CB0169837A838B839C83CE0101960E94FC
:104AD00056B10C94AB320F94E2390C94AB32809106
:104AE0002317909124178837910509F452C70CF0C9
:104AF000F6C08D34910509F4A8C40CF06BC08A315E
:104B0000910509F4C0C2BCF58431910509F442C293
:104B10007CF48131910509F429C22CF4029708F440
:104B2000EDC10C949432429709F436C60C94943239
:104B30008731910509F463C294F48531910509F434
:104B40005AC2469711F00C9494320F94701A8091C7
:104B50004D15877F806280934D150C94AB32883160
:104B6000910509F461C2499711F00C9494320F94A5
:104B7000A42B0C94AB328F31910509F49AC37CF4C9
:104B80008C31910509F4E0C20CF48BC28D31910592
:104B900009F4E2C24E9709F4E6C20C9494328B32C7
:104BA000910509F44AC44CF48032910509F43EC3DE
:104BB0008A9709F429C40C9494328B34910509F432
:104BC00040C48C34910511F00C9494320E94D7B4F7
:104BD0000C94AB328C36910511F40C94AB320CF082
:104BE00049C08535910509F4DAC55CF58235910532
:104BF00009F4C4C5E4F48135910511F00C949432A4
:104C00000F94870C0E94ECB40E9445880E94B03833
:104C100068EE73E080E090E00E9414520E94B53884
:104C200060E082E799E00E9443BC0C94AB3283358C
:104C3000910509F4AAC58435910509F4ADC50C9414
:104C400094328936910509F455C454F48C35910594
:104C500009F4C8C58836910509F4FBC30C94943255
:104C60008A36910509F45AC48B36910509F499C422
:104C70000C9494328137910509F4F6C48CF48E3685
:104C8000910509F49BC40CF40BC48F36910509F40B
:104C9000A6C48037910511F40C94AB320C94943275
:104CA0008537910509F42BC66CF48237910509F418
:104CB00023C68337910511F00C9494320F9432354A
:104CC0000C94AB328637910509F429C687379105D4
:104CD00011F00C9494320E94EFB30C94AB328E32EC
:104CE00021E0920711F40C9457300CF068C08C3C12
:104CF000910509F459C77CF58139910509F457C626
:104D00008CF48A37910511F40C9426320CF448C6C1
:104D10008D37910509F42FC58C38910509F4C6C467
:104D20000C949432883C910509F4B5C654F48B393F
:104D3000910509F4FAC48E3B910509F4D6C40C948C
:104D40009432893C910509F4EDC68B3C910509F438
:104D50000CC70C9494328D3D910509F483C784F4FB
:104D60008E3C910509F436C70CF421C7833D9105AB
:104D700009F44EC78C3D910509F44DC70C9494324B
:104D80008232A1E09A0711F40C946B2F5CF4823EFE
:104D9000910509F4BDC78831914011F40C94D42ECB
:104DA0000C9494328C32F1E09F0711F40C94C22FD2
:104DB0008D32914011F40C94D72F0C949432863F8D
:104DC00031E0930711F40C9480310CF04BC08A3918
:104DD000B1E09B0711F40C94AB320CF58039F1E093
:104DE0009F0711F40C949B304CF48F32914011F0DA
:104DF0000C9494320E945E470C94AB328139A1E04E
:104E00009A0711F40C949E308239914011F00C9461
:104E100094320F9457440E945AB30C94AB328C3A9C
:104E2000E1E09E0711F40C9420316CF4843A21E007
:104E3000920711F40C94A830853A914011F40C9427
:104E4000AB300C949432843FA1E09A0711F40C9497
:104E50007D31853F914011F00C9494320E9462A202
:104E60000C94AB328B35E2E09E0711F40C94AA311E
:104E70001CF58C3022E0920711F40C949D316CF4F7
:104E8000873FA1E09A0711F40C948331883F914049
:104E900011F40C948C310C9494328933E2E09E0727
:104EA00011F40C9469328835924011F00C949432CC
:104EB0000F94912A0C94AB32803A23E0920709F4C4
:104EC000EAC17CF48335A3E09A0711F40C942332F1
:104ED0008A38934011F00C9494320F9441290C9429
:104EE000AB32873EE3E09E0711F40C946C32893EAE
:104EF000934011F40C947A320C94943280E50E9421
:104F0000195D882329F00E94B07E6B017C0103C0EB
:104F1000C12CD12C760183E50E94195D882361F0B4
:104F20000E94945C20E030E04AE754E40F9422634E
:104F30000F947C6B6B017C010E9434888091211757
:104F400090912217009721F061E00E94DCBC05C01F
:104F500060E082E698E00E9443BC40E0C701B601F1
:104F60000E947A410E94BEE70C94AB3280912617D2
:104F700084FF02C00C945D358091281787FF02C022
:104F80000C945D3580912917837011F00C945D3578
:104F90000C94793580914D1583FF25C08DE898E0FC
:104FA0000E94DF5280914D1583FF17C081E692E188
:104FB0000F94F6028BE1E1E6F2E1DE011196019039
:104FC0000D928A95E1F760E070E0CE0101960F94B2
:104FD0009B21CE0101960F94FB028EE798E00E9480
:104FE000DF520C94AB320E9465558EE998E00E9426
:104FF000DF520C94AB320F942F1B0C94AB32E09128
:105000002117F09122178081882329F0803209F43A
:1050100010823196F8CF60E080912117909122178D
:105020000F943B200C94AB32809197168823F9F0B3
:1050300080E090E0A0EAB1E488A399A3AAA3BBA36F
:105040001C8E1D8E1E8E1F8E19821A821B821C8240
:1050500000E010E020E0AE01405E5F4FBE01645E04
:105060007F4FCE0101960E940D560C94AB320E94E8
:105070008C38882321F00F94811A0E949DB40E94DD
:10508000BEE70C94AB3280914D1583FD02C00C94A9
:10509000AB3283E50E94195D81110C9487350C9425
:1050A000AB3283E40E94CB5C882319F182EB98E059
:1050B0000E94DF5280910B12882391F0BE016F5F36
:1050C0007F4F88E092E10F94BD018E010F5F1F4F6B
:1050D000D8018D918D01882339F00E944E3BF8CF85
:1050E00088EA98E00E94DF528AE00E944E3B0C94CE
:1050F000AB3280914D1582FF21C081EC98E00E9477
:10510000DF526091491570914A1580914B1590912D
:105110004C154AE00E94553B8FE20E944E3B609145
:1051200045157091461580914715909148154AE0B4
:105130000E94553B0E94533C0C94AB3283ED98E0A7
:105140000E94DF520C94AB3280912117909122176C
:105150000F94F11F0C94AB3280914D158E7F80938C
:105160004D150C94AB3280914D1583FD02C00C940B
:10517000AB320F94C83980914D1583FD02C00C9459
:10518000AB324091211750912217BE01645E7F4FD0
:1051900080E00F9412198C01009711F40C94AB323B
:1051A0006C8D7D8D19821C8222E0AC01CE010196AE
:1051B0000F942B07811102C0F12C14C0CE0101966F
:1051C0000F9480188823C1F361E0CE0101960F94FB
:1051D000A101009789F325EEFC0120831C820F9426
:1051E0006D1CF82ECE0101960F94FB02B801FF2032
:1051F00099F08CEF98E00E9482548AE00E944E3B26
:105200001092491510924A1510924B1510924C1598
:105210000E946AC40C94AB3284EE98E00E948254DF
:105220008FE29DE10E94DF520C94AB3280914D15CC
:1052300082FD0E94348880914D1583FD02C00C943C
:10524000AB3260E080E50E94355D182F682F8091B9
:105250002117909122170F943B2083E50E94195D3E
:10526000882381F00E945C5CAB01BC01409349152E
:1052700050934A1560934B1570934C1588E092E15A
:105280000F94931E0F94811A11110C94AB320E944B
:105290009DB40C94AB32209121173091221790913C
:1052A0004D15926090934D15C9010F94F11F0C9408
:1052B000AB320E944EB47B018C0120E831E541E025
:1052C00050E00F941269C9016DE671E00F948F6987
:1052D0004B015C01C801B70120E13EE040E050E035
:1052E0000F941269CA01B90128E130E040E050E0B2
:1052F0000F941269762E672EC62ED72E8CE3282E99
:10530000312C412C512CC801B701A20191010F94FD
:105310001269F62EE72ECA01B901A20191010F947C
:105320001269CB018E010F5F1F4F8114910499F018
:10533000EF92FF927F936F936F927F92BF92AF92A3
:105340009F928F928AE099E09F938F931F930F9380
:105350000F94546213C0A114B104B1F0EF92FF9204
:105360007F936F936F927F92BF92AF928EE099E09E
:105370009F938F931F930F930F9454620FB6F894DB
:10538000DEBF0FBECDBF30C0CD2879F0EF92FF92C7
:105390007F936F936F927F9282E199E09F938F93B7
:1053A0001F930F930F945462E9CF892B69F0EF920A
:1053B000FF927F936F9386E199E09F938F931F9362
:1053C0000F930F945462DACFEF92FF928AE199E043
:1053D0009F938F931F930F930F9454620F900F908E
:1053E0000F900F900F900F9060E0C8010E94DCBCFE
:1053F0000E946555B8018EE199E00E9482548AE0CE
:105400000E944E3B0C94AB326DE070E080E50E9450
:10541000265D8C0197FF02C00C94AB32E82E60E051
:1054200089E40E94355D81110C949835802F0E948B
:10543000673881118AC40C9498350E944A7B0C9479
:10544000AB320E949DB40C94AB320E94ECB40C942D
:10545000AB3280911F0C83FF02C00C94AB320F94CF
:10546000182987FF02C00C94AB3289E40E94195DB1
:10547000882311F40C94D5350E946C5C90E01816CA
:10548000190614F481E090E026E0289FF001299F9E
:10549000F00D1124E353F14F808191810C94DF359D
:1054A00080911F0C83FF02C00C94AB320F9418291B
:1054B000F82E87FF02C00C94AB3289E40E94195D7C
:1054C000082F882311F40C94E8350E946C5C90E05E
:1054D0001816190614F481E090E026E0289FF001E8
:1054E000299FF00D1124E353F14F8081918110E049
:1054F0000C94F8350F941829182F87FD0AC08AE7F5
:105500009CE00E94DF52812F0F94DD0B8AE00E9405
:105510004E3B3CA93093DC030C945A3760E080E5A5
:105520000F941146F82E81E08F1510F40C94AB32D5
:1055300081E40E94CB5C882329F060914A07062F02
:1055400010E002C00FEF10E089E40E94195D88238B
:1055500099F00E946C5C90E01816190614F481E032
:1055600090E026E0289FF001299FF00D1124E353DD
:10557000F14F0481158108C083E50E94195D8823DD
:1055800019F00E945C5C8B01EF2DF0E0E65BF84FB8
:10559000B8010F3F110519F010F06FEF70E0608354
:1055A000DAC760E080E50F941146823008F0D3C777
:1055B000E82FF0E0E65BF84F1082CDC78EE40E9442
:1055C000195D882309F4C7C70E945C5C6093D80406
:1055D0007093D9048093DA049093DB04BCC783E50D
:1055E0000E94CB5C882331F060E083E50F94114684
:1055F00080931F0C0E94655586E499E00E94DF525B
:1056000080911F0C882369F114EAE12E1AE0F12E33
:1056100000E010E020E080911F0C90E0A0E0B0E0FE
:10562000002E04C0B695A795979587950A94D2F752
:1056300080FF0EC0DD24D394D20E222319F08CE219
:105640000E944E3BF701859194910E94DF522D2DCF
:105650000F5F1F4F92E0E90EF11C05301105D9F6DE
:1056600043CD82E499E03ECD83E50E94195D882315
:1056700071F00E946C5C282F30E02D3331051CF452
:105680008093000268C78CE38093000264C70E9485
:1056900065554091000250E060E070E08DE499E0D3
:1056A0000E9446548AE00E944E3B55C780911F0CD1
:1056B00083FD51C789E40E94195D882311F40C947D
:1056C00042360E946C5C90E01816190614F481E0D2
:1056D00090E026E0289FF001299FF00D1124E3536C
:1056E000F14F828193810C944D3680911F0C83FD84
:1056F00032C789E40E94195D882311F40C94543652
:105700000E946C5C90E01816190614F481E090E099
:1057100026E0289FF001299FF00D1124E353F14F5B
:105720008281938110E00C94653683E50E94195DB7
:10573000882309F410C70E946C5C182F90E0CD9765
:105740000CF01CE31093D6030E9483ED6B017C01E7
:10575000212F30E0A8EEB3E00F946669C60ED71E85
:10576000E81EF91EC092D203D092D303E092D40374
:10577000F092D503F0C60F94A42BEDC68091DB0305
:105780008F7D80618093DB03E6C68091DB038F7E93
:1057900080628093DB03DFC60F947B2DDCC683E53C
:1057A0000E94CB5C882309F4D6C60E9483ED6093E7
:1057B000920F7093930F8093940F9093950F0E9484
:1057C000945C20E030E04AE754E40F9422630F94A5
:1057D0007C6B6093D7037093D8038093D903909325
:1057E000DA03B9C60F94182987FDB5C6909126171C
:1057F00094FD04C09091281797FF0AC0A9E6CA2E0D
:10580000A3E0DA2EB0E2EB2EBCE0FB2E10E009C0E4
:1058100090912917937091F7682F81E00F94DB2DF9
:105820009AC6D6018D916D010E94195D882309F4F5
:1058300059C0133009F04FC00E94945C4B015C01C9
:1058400020E030E040EA51E40F94BC6287FF3AC0A8
:10585000A50194016091400C7091410C8091420C23
:105860009091430C0F94036B2B013C019B01AC0105
:105870006091500C7091510C8091520C9091530C8E
:105880000F9422636093500C7093510C8093520CD0
:105890009093530C60913E0770913F0780914007B1
:1058A000909141070F94C162A30192010F9422636A
:1058B0000F947C6B60933E0770933F078093400783
:1058C000909341078092400C9092410CA092420C20
:1058D000B092430C07C00E94945CF701648B758BF7
:1058E000868B978B1F5FF4E0EF0EF11C143009F0EC
:1058F00098CF0E9410882FC60F94B3352CC6809184
:10590000211790912217009709F4B9CBDC012C9153
:10591000222309F4B4CB60E00E94DCBC1CC60091D9
:1059200021171091221794E0F12C40E0915021F1C1
:10593000F8018081282F2B7F213421F4218121330C
:10594000D9F407C08035C1F4818180538A3048F092
:1059500013C0813421F0853421F441E002C0FF24DA
:10596000F39498012E5F3F4F89012F5F3F4FF8015D
:1059700080818032C9F3DACF41110E946555FF2042
:1059800021F081E899E00E94DF52C8010E94593C51
:10599000E2C52093850C2093840C0E943FB4DBC5A4
:1059A0001092850C1092840C0E943FB4D4C560E024
:1059B00070E083E50E94265D823038F00E949554A5
:1059C00085E899E00E94DF52C6C58C01112788E462
:1059D0000E94195D8823E1F00E94905C8A3A91054B
:1059E00044F00E94905C8B3F910534F40E94905CDF
:1059F00005C08AEA90E002C08AEF90E026E0209F8E
:105A0000F001219FF00D1124E353F14F9183808326
:105A100082E40E94195D8823D9F00E94905C05976A
:105A200044F00E94905C8F36910534F40E94905CA3
:105A300005C085E090E002C08EE690E026E0209F61
:105A4000F001219FF00D1124E353F14F93838283E2
:105A500086E40E94195D882309F47DC50E94905C4C
:105A600097FD09C00E94905C8F3F910509F034F4C6
:105A70000E94905C05C080E090E002C08FEF90E053
:105A800026E0209FF001219FF00D1124E353F14FF8
:105A90009583848360C50F941829182F87FD5BC5F3
:105AA0000091460F84E40E94195D882311F40C9440
:105AB0008E360E94945C6B017C0120E030E0A901ED
:105AC0000F94BC62882341F124E01202F0011124FA
:105AD000EE5BF04FC082D182E282F38220E030E0C0
