:100000000C94A0210C94D1210C94D1210C94D121D9
:100010000C94D1210C94D1210C94D1210C94D12198
:100020000C94D1210C94D1FC0C94D1FC0C94D1FCF7
:100030000C94D1210C9467CB0C94D1210C94D12138
:100040000C94D1210D944D010C94D1210C94D1210B
:100050000C94D1210C94D1210D94D3160C94FDF164
:100060000C94D1210C94A7410C949D410C94D12166
:100070000C94D1210C94D1210C94D1210C94D12138
:100080000C94053B0C94D1210C94D1210C94D121DA
:100090000C94D1210C94D1210C94D1210C94D12118
:1000A0000C94D1210C94D1210C94D73A0C94D121E9
:1000B0000C94D1210C94D1210C94D1210C94D121F8
:1000C0000C94D1210C94D1210C94D1210C94D121E8
:1000D0000C94D1210C94D1210C94D1210C94D121D8
:1000E0000C94D121DA41EA41FB4106420E422542FD
:1000F0001242254216421A42254220420F6ECC6C13
:10010000056D4B6E056D056D056D056D056D056D18
:10011000056D056D056D056D056D056D056D056D4F
:10012000056D056D056D056D056D056D056D056D3F
:10013000056D056D056D056D456E056D056D056DEE
:10014000056D056D056D056D056D1E6E056D056D05
:10015000056D056D056D056D056D056D056D056D0F
:10016000626E026DA072C272E27207732C73E37446
:10017000517374739773BC73E17306742B7450746A
:10018000E37475749A74BF745276557659765C76BA
:100190005F768976637666766A766D767076747643
:1001A00077767A7689767E7681768476FCD8DFD803
:1001B000E2D8FFD8E5D8E8D8EBD8F7D8EED80AD9F6
:1001C000F1D8F4D895FA98FA87FA8BFA91FACFFA1F
:1001D0009CFAA0FAA6FAAAFAAEFAB4FAB8FABCFAED
:1001E000CFFAC2FAC6FACAFA35FE3AFE3FFE49FE17
:1001F00053FECCFE5DFE65FE6DFE77FE81FE8BFE3E
:100200009AFEA4FECCFEAEFEB8FEC2FE084AD73B64
:100210003BCE016E84BCBFFDC12F3D6C74319ABDD5
:1002200056833DDA3D00C77F11BED9E4BB4C3E91F9
:100230006BAAAABE000000803F05A84CCDB2D44EE8
:10024000B93836A9020C50B9918688083CA6AAAAEA
:100250002ABE000000803F000D948B2D0C949AFE66
:100260000C947A760D94CF4E0D9466580D94702DA3
:100270000C94F5F40C94CCFE0C9419800C940A7C2C
:100280000C9470760C9474730C943DEC0C94DFD841
:100290000C9477FE0C9462900C94CAFA0C9465FE50
:1002A0000C945A7F0C9455760C9441FA0D94902D31
:1002B0000C9428940C94A4FE0C9472BC0D94262DDE
:1002C0000C946EBC0C94ECD60C946BC80C94616CC2
:1002D0000D949F2D0C94DA410D94802F0C94CFFA3D
:1002E0000C9449FE0C94A3900C941D7D0C94A1C811
:1002F0000C94F3F40C943B7F0C94C2FA0C9416D13A
:100300000D947C2D0C945F760C9491EE0C9495FAE0
:100310000C9484760C94AEFE0C9459760C941E6E5C
:100320000C94D0840C94EED80D94862D0C947CF310
:100330000C9484D40C9497730C94CC6C0C9490D43F
:100340000C9466F20D949A2D0C948CD40C942292F9
:100350000C94D8F90C9489EE0C94CEC80C94BC7F04
:100360000D94792E0C9481FE0C94A6D20D942C3110
:100370000C9407EB0C94247F0C9459FA0C949CFA7F
:100380000C94626C0C94EC7F0C94026D0C943DC840
:100390000C9491FA0C9416910C9487BC0C94EFD0A9
:1003A0000C941E910C94DD7F0C94FB7F0C94A6FAA8
:1003B0000C9416420C9412420C94D3960C94F7F4BD
:1003C0000C949BC90C94E8D80C94307F0C94B8FE24
:1003D0000C94AEFA0C94AA7C0C94456E0C94067F97
:1003E0000C9466760C9450740C9412650C94E27222
:1003F0000C941A420C942BEC0C94056D0C9461CB6C
:100400000C94FFD80C9489760C94C5EF0C94917CD5
:100410000C9480F30C94B26E0C9452760C949AD295
:100420000C94BCFA0C94E0D60C947E760C946090FC
:100430000C94F87E0C94007F0C9407730C945DFE72
:100440000C9417EB0C9444CB0C94F1F90C944F7D65
:100450000C94407C0C943EC90D94242D0C94E5D84A
:100460000C943AFE0C9484F30C94E1730C94C1C781
:100470000C948BFA0C94B8FA0C947EF30C942542ED
:100480000C945C760C9449CB0C94D96E0C94D4D615
:100490000C9498D40C940AD90C943FFE0C94EFF46D
:1004A0000C942C730C94A4D40C94C95F0C9494D425
:1004B0000C9474760C94047D0C9447F20C9412C93D
:1004C0000C94DCD00C94A0720D94802E0D946A2DA7
:1004D0000C94D77E0D94132D0C94E8840C9482F325
:1004E0000C94F1F40C940F6E0C9457CB0C9499EE81
:1004F0000C94C6FA0D94762D0C940C7F0C941DBCB4
:100500000C94B4FA0C94C9D00C946DFE0C948176C2
:100510000C94626E0D94642D0C944B6E0C9448ED0B
:100520000C946D760C94CBEA0C94A1EE0C94AFD1A4
:100530000C9443EC0C9483BC0C94F4D80C94B8C881
:100540000C9488D40C94BF740D9405320D941E2D18
:100550000C94C2720C943B6F0C94367D0C942B74EB
:100560000C9487FA0C9453FE0C941E7F0C948066B6
:100570000C94E2D80C947CD40C9466A80C9488D289
:100580000C94FCD80C9470D40C9463760C948EC7A5
:100590000C9494D20C94656C0C9477760C948482B1
:1005A0000C9499C80C9478F10D94952D0C94EC6BE7
:1005B0000D942E2D0C94DF840C94E3740C9497C846
:1005C0000C94C2FE0C945B7C0C9419EB0D94BE2D24
:1005D0000C94F0F90C94DE7C0C9480D40C94EEEA2C
:1005E0000C9431650C94C37C0C942A7F0C94757424
:1005F0000C9451730C94AAFA0C948BFE0C94064242
:100600000C9406740C94257C0C94BC730C949A7412
:100610000C94B7D40C94F7D80C94F17C0C94767CA1
:100620000C94CE7E0C940A800D94812D0C94EF6B6B
:100630000C9413C80C946A760C94F1D80C940E4266
:100640000C9474D40C94A0FA0C94C2900C94EBD833
:100650000C9498FA0C9408D10C94F0C80C944ECBDE
:100660000C94A0D20C9420420C94BBF60C94127FF4
:100670000C94F6BF0C94FBF10C94EA410C94BF7EF1
:100680000C94C0920C9478D40C94187F0C9435FE82
:100690000C94FB410D9429164E414E494E49545934
:1006A000494E46CDCCCC3D0AD7233C17B7D138773D
:1006B000CC2B329595E6241FB14F0A000020410053
:1006C00000C84200401C4620BCBE4CCA1B0E5AAE9D
:1006D000C59D7400407A10F35A00A0724E180900AC
:1006E00010A5D4E80000E87648170000E40B540297
:1006F0000000CA9A3B000000E1F5050000809698D2
:1007000000000040420F000000A086010000001021
:100710002700000000E80300000000640000000063
:10072000000A00000000000100000000002C76D844
:1007300088DC674F0823DFC1DFAE59E1B1B796E52A
:10074000E3E453C63AE651997696E8E6C28426EB8E
:10075000898C9B62ED407C6FFCEFBC9C9F40F2BAA1
:10076000A56FA5F490055A2AF75C936B6CF9676D39
:10077000C11BFCE0E40D47FEF520E6B500D0ED908E
:100780002E0300943577050080841E080000204E5B
:100790000A000000C80C333333330F986E128311F4
:1007A00041EF8D2114893BE65516CFFEE6DB18D1CB
:1007B000844B381BF77C1D901DA4BBE4242032849D
:1007C000725E228100C9F124ECA1E53D27434F4D23
:1007D0004D554E49434154494F4E0044525952558C
:1007E0004E004552524F525300494E464F0045432A
:1007F000484F0047322F4733206261642070617296
:10080000616D65746572730A00536C6565702E2E98
:100810002E005A2050726F6265205061737420421E
:1008200065640A005A2050726F62652050617374CB
:1008300020426564004D65736820706F696E742096
:100840006F7574206F662072616E67650A00436C75
:1008500069636B20746F20526573756D652E2E2E43
:10086000004E6F204D6F76652E00456E64206669E0
:100870006C65206C6973740A00426567696E206656
:10088000696C65206C6973740A004E6F206D656435
:1008900069610A00286E6F2066696C6529004375DE
:1008A0007272656E742066696C653A20005344204C
:1008B0007072696E74696E67206279746520004E8B
:1008C0006F74205344207072696E74696E670A00F9
:1008D00044656C6574696F6E206661696C65642C33
:1008E0002046696C653A200046696C652064656C39
:1008F000657465643A002569792025696420256955
:10090000682025696D20256973005072696E742016
:1009100074696D653A2000496E76616C6964205097
:10092000696E204D6F64650A0045202553006F668F
:10093000660044454255473A004D3131332053005B
:1009400042656420436F6F6C696E672E2E2E0042E5
:1009500065642048656174696E672E2E2E005368A9
:100960006D656565426F74204F46462E002F2F201F
:10097000004D31343520533C696E6465783E206FFC
:100980007574206F662072616E67652028302D3186
:10099000290A003F4A206F7574206F662072616ECD
:1009A00067652028302E303120746F20302E332997
:1009B0000A0046523A0020466C6F773A2000507287
:1009C0006F7465637465642050696E0A0020536516
:1009D00072766F200020643A0020693A0020703A55
:1009E000006469730043290A0061626C6564202811
:1009F0006D696E2074656D702000436F6C642065B6
:100A0000787472756465732061726520004D3432AC
:100A10003120696E636F72726563742070617261F8
:100A20006D657465722075736167650A004F66664F
:100A300073657473204170706C69656400457272EF
:100A40003A20546F6F206661722100546F6F2066E8
:100A500061722066726F6D207265666572656E6385
:100A60006520706F696E740A00454550524F4D20E5
:100A70004F4B0A00446F6E65207072696E74696E28
:100A8000672066696C650A004D3737004D333100C9
:100A9000EE07E907E207DB07CD074572726F7220A8
:100AA00077726974696E6720746F20454550524FA4
:100AB0004D210A004E6F20436865636B73756D208E
:100AC00077697468206C696E65206E756D626572F9
:100AD0002C204C617374204C696E653A2000636869
:100AE00065636B73756D206D69736D617463682CDC
:100AF000204C617374204C696E653A20004C696E1D
:100B000065204E756D626572206973206E6F74206A
:100B10004C617374204C696E65204E756D62657210
:100B20002B312C204C617374204C696E653A200087
:100B30004D3131300053442072656164206572721A
:100B40006F720A002121204B494C4C206361757360
:100B50006564206279204B494C4C20627574746F37
:100B60006E2F70696E0A002121204B494C4C206386
:100B7000617573656420627920746F6F206D756391
:100B80006820696E6163746976652074696D65209B
:100B90002D2063757272656E7420636F6D6D616E6A
:100BA000643A2000627573793A20706175736564E8
:100BB00020666F7220696E7075740A0062757379B1
:100BC0003A2070617573656420666F722075736575
:100BD000720A00627573793A2070726F636573737D
:100BE000696E670A004D656469612052656D6F76B4
:100BF0006564004D6564696120496E736572746552
:100C00006400506C656173652052657365740050B3
:100C100052494E5445522048414C544544002553B6
:100C20003A202553004B494C4C45442E200050722D
:100C3000696E7465722068616C7465642E206B69DE
:100C40006C6C28292063616C6C6564210A0036375E
:100C500026033C3D380E2E303E121A1C180AFF4364
:100C60000907084400016563686F3A004572726FB6
:100C7000723A0042696C696E656172204C657665F6
:100C80006C696E6720477269643A0A0053544F508A
:100C90005045442E20005072696E74657220737442
:100CA0006F707065642064756520746F2065727262
:100CB0006F72732E204669782074686520657272A1
:100CC0006F7220616E6420757365204D393939204B
:100CD000746F20726573746172742E202854656D70
:100CE00070657261747572652069732072657365D1
:100CF000742E2053657420697420616674657220B7
:100D000072657374617274696E67290A002121200B
:100D100053544F502063616C6C656420626563615D
:100D2000757365206F6620424C546F75636820654B
:100D300072726F72202D20726573746172742077E5
:100D4000697468204D3939390A00486F74656E64DA
:100D500020746F6F20636F6C640A0053656E6420AB
:100D60004D31303820746F20726573756D650A00DF
:100D700053656E64204D31303820746F2068656192
:100D800074206E6F7A7A6C650A00496E73657274AE
:100D90002066696C616D656E7420616E6420736598
:100DA0006E64204D3130380A004C4F570048494797
:100DB00048004F4B004572726F723A20416C6C20B4
:100DC0000020636F6E6E656374696F6E2E2E2E2029
:100DD0000054657374696E672000544D4320434F7F
:100DE0004E4E454354494F4E204552524F520047B4
:100DF00032362048656174696E67204E6F7A7A6C6E
:100E000065004732362048656174696E6720426527
:100E1000640057616974696E6720666F7220686547
:100E2000617475702E0A004669786564204C656EA1
:100E3000677468205072696D6500446F6E6520505C
:100E400072696D696E67004D616E75616C207072BC
:100E5000696D696E672E2E2E004732362043616E13
:100E600063656C6564004C656176696E6720473226
:100E700036003F53706563696669656420582C5974
:100E800020636F6F7264696E617465206F75742082
:100E90006F6620626F756E64732E0A003F285229B8
:100EA00065706561742076616C7565206E6F742065
:100EB000706C61757369626C653B206D757374202D
:100EC0006265206174206C6561737420312E0A00A4
:100ED0003F537065636966696564206E6F7A7A6CEA
:100EE000652074656D7065726174757265206E6FD2
:100EF0007420706C61757369626C652E0A003F53D3
:100F000070656369666965642066696C616D656EAC
:100F1000742073697A65206E6F7420706C617573CC
:100F200069626C652E0A003F537065636966696586
:100F300064207072696D65206C656E677468206EE0
:100F40006F7420706C61757369626C652E0A003F66
:100F5000537065636966696564206E6F7A7A6C6543
:100F60002073697A65206E6F7420706C6175736987
:100F7000626C652E0A003F52657472616374696F1A
:100F80006E204D756C7469706C696572206D757337
:100F900074206265207370656369666965642E0AF2
:100FA000003F5370656369666965642052657472B9
:100FB000616374696F6E204D756C7469706C6965DE
:100FC00072206E6F7420706C61757369626C652E2F
:100FD0000A003F537065636966696564206C6179D6
:100FE000657220686569676874206E6F7420706C24
:100FF00061757369626C652E0A0043292E0A003FF1
:101000005370656369666965642062656420746510
:101010006D7065726174757265206E6F7420706C8E
:1010200061757369626C65202834302D0047323653
:10103000207374617274696E672E2E2E0A00456EDD
:10104000636C6F73757265004C6F6164206D6D0029
:10105000556E6C6F6164206D6D0046696C2E204486
:1010600069612E004520696E206D6DC2B3002008B5
:101070002046616374002008204D6178002008201C
:101080004D696E004175746F74656D7000457272C4
:101090003A207574663820666F6E74206E6F742007
:1010A000696E697469616C697A65642E00000C0F61
:1010B00000FE07022503BB017FFE08FE08FE0508AF
:1010C0000806000040F0C8888898781005080806CF
:1010D0000000C0F88888888888F8050505060001A2
:1010E0002030F830200508080600002070F8202085
:1010F0002020E00509090600FF2070A8A8B888880C
:101100007020070505070001D86C366CD805090961
:101110000600FFF8A88888888888A8F8050A0A06C3
:1011200000FE205050505088A8A888700303030682
:10113000000340A040FFFFFFFFFFFFFFFFFFFFFF97
:10114000FFFFFFFFFFFFFFFFFFFFFF00000006059F
:10115000FF01070706020080808080800080030373
:1011600003060105A0A0A005060606000050F850E1
:1011700050F8500509090600FF2070A8A07028A8A3
:101180007020050707060000C8C810204098980581
:10119000070706000040A0A040A8906801030306CE
:1011A00002058080800309090601FF2040408080FD
:1011B000804040200309090601FF80404020202094
:1011C00040408005070706000020A8702070A82076
:1011D0000505050600012020F82020020303060172
:1011E000FFC04080050101060003F802020206016B
:1011F00000C0C0050707060000081010204040800E
:10120000050707060000708898A8C88870030707BC
:1012100006010040C040404040E0050707060000CE
:10122000708808102040F8050707060000F808102D
:101230003008887005070706000010305090F8103D
:1012400010050707060000F880F0080888700507F9
:1012500007060000304080F0888870050707060008
:1012600000F80810102020200507070600007088ED
:1012700088708888700507070600007088887808DD
:101280001060020505060100C0C000C0C0020606CD
:101290000601FFC0C000C040800305050601012013
:1012A00040804020050303060002F800F80305050E
:1012B0000601018040204080050707060000708875
:1012C00010202000200507070600007088B8A8B885
:1012D0008070050707060000708888F888888805F0
:1012E0000707060000F04848704848F00507070661
:1012F000000070888080808870050707060000F075
:101300004848484848F0050707060000F88080F084
:101310008080F8050707060000F88080F080808054
:101320000507070600007088808098887005070709
:10133000060000888888F888888803070706010067
:10134000E04040404040E00507070600003810102C
:10135000101090600507070600008890A0C0A090BC
:1013600088050707060000808080808080F80507D8
:101370000706000088D8A88888888805070706001F
:10138000008888C8A8988888050707060000708824
:101390008888888870050707060000F08888F08034
:1013A000808005070706000070888888A890680577
:1013B0000707060000F08888F0A090880507070658
:1013C000000070888070088870050707060000F824
:1013D0002020202020200507070600008888888814
:1013E0008888700507070600008888888850502084
:1013F00005070706000088888888A8A85005070701
:1014000006000088885020508888050707060000DD
:1014100088885020202020050707060000F80810C3
:10142000204080F80309090601FFE0808080808069
:101430008080E0050707060000804040201010086B
:101440000309090601FFE020202020202020E005DC
:1014500003030600052050880501010600FEF8037D
:1014600003030601058040200505050600007008FD
:101470007888780507070600008080F0888888F063
:1014800005050506000070808088700507070600C6
:1014900000080878888888780505050600007088A7
:1014A000F08070050707060000304840E0404040EB
:1014B0000507070600FE708888887808700507070A
:1014C0000600008080F088888888030707060100EE
:1014D0004000C0404040E00409090601FE10003011
:1014E000101010109060050707060000808088909B
:1014F000E09088030707060100C04040404040E0FC
:10150000050505060000D0A8A8A8A8050505060041
:1015100000B0C8888888050505060000708888889E
:10152000700507070600FEF0888888F080800507B0
:10153000070600FE788888887808080505050600F3
:1015400000B0C8808080050505060000788070081E
:10155000F00507070600002020F8202020180505C8
:10156000050600008888889868050505060000883B
:10157000888850200505050600008888A8A8500521
:10158000050506000088502050880507070600FE64
:1015900088888850204080050505060000F8102046
:1015A00040F80309090601FF2040404080404040C8
:1015B000200109090602FF80808080808080808071
:1015C0000309090601FF804040402040404080055B
:1015D000030306000248A890FF45305F5345524977
:1015E000414C5F52585F50494E0045305F53455261
:1015F00049414C5F54585F50494E005A5F53455221
:1016000049414C5F52585F50494E005A5F53455212
:1016100049414C5F54585F50494E00595F53455201
:1016200049414C5F52585F50494E00595F534552F3
:1016300049414C5F54585F50494E00585F534552E2
:1016400049414C5F52585F50494E00585F534552D4
:1016500049414C5F54585F50494E005A5F53544FB4
:10166000505F50494E005A5F535445505F50494EA9
:10167000005A5F4D494E5F50494E005A5F454E41FA
:10168000424C455F50494E005A5F4449525F5049B1
:101690004E00595F53544F505F50494E00595F53AD
:1016A0005445505F50494E00595F4D494E5F504977
:1016B0004E00595F454E41424C455F50494E0059DE
:1016C0005F4449525F50494E00585F53544F505F3A
:1016D00050494E00585F535445505F50494E005892
:1016E0005F4D494E5F50494E00585F454E41424C58
:1016F000455F50494E00585F4449525F50494E0083
:10170000535549434944455F50494E00534552564D
:101710004F335F50494E00534552564F325F504948
:101720004E00534552564F315F50494E005345527B
:10173000564F305F50494E00534453530053445F5B
:101740004445544543545F50494E0052414D505317
:101750005F44395F50494E0052414D50535F443809
:101760005F50494E0052414D50535F4431305F50FD
:10177000494E004D4F534645545F445F50494E001B
:101780004D4158363637355F53535F50494E004C04
:1017900045445F50494E004C43445F50494E535FAF
:1017A0005253004C43445F50494E535F454E4142B3
:1017B0004C45004C43445F50494E535F4434004B0A
:1017C000494C4C5F50494E004845415445525F4298
:1017D00045445F50494E004845415445525F305F93
:1017E00050494E0046414E315F50494E0046414EF1
:1017F0005F50494E0045315F535445505F50494E4C
:101800000045315F454E41424C455F50494E0045D1
:10181000315F4449525F50494E0045315F43535F49
:1018200050494E0045305F535445505F50494E007B
:1018300045305F454E41424C455F50494E00453072
:101840005F4449525F50494E00455F4D5558325FE5
:1018500050494E00455F4D5558315F50494E004547
:101860005F4D5558305F50494E00444F474C4344FC
:101870005F53434B00444F474C43445F4D4F5349E4
:101880000042544E5F454E430042544E5F454E3237
:101890000042544E5F454E31004245455045525F2F
:1018A00050494E004156525F53535F50494E0041DC
:1018B00056525F53434B5F50494E004156525F4D65
:1018C0004F53495F50494E004156525F4D49534F67
:1018D0005F50494E0054454D505F4245445F50496A
:1018E0004E0054454D505F315F50494E0054454DB8
:1018F000505F305F50494E0046494C574944544868
:101900005F50494E00545844300052584430004112
:101910006363656C65726174696F6E3A2050005044
:10192000574D3A20202534640020202020434F4D7D
:10193000002020206E6F6E2D7374616E646172647E
:101940002050574D206D6F646500202020636F6D1F
:101950007061726520696E7465727275707420654D
:101960006E61626C6564002020206F766572666C23
:101970006F7720696E7465727275707420656E6120
:10198000626C6564002020202054494D534B004276
:101990003A2000413A2000202020205443435200A6
:1019A0002020202043533A20002020202057474D5C
:1019B0003A20002020202054494D455200206973D0
:1019C00020616C736F207469656420746F20746883
:1019D00069732070696E0054494D45523143000AC5
:1019E000202E002020506F72743A200020202041C9
:1019F0006E616C6F6720696E203D2025356C640038
:101A00003C756E757365642F756E6B6E6F776E3E89
:101A1000004F7574707574203D2000496E707574A8
:101A200020203D200070726F74656374656420002F
:101A300020284125326429202000253364200044D9
:101A40006F6E652E0A0050756C73696E67202020DA
:101A500000556E746F7563686564200066616C7311
:101A600065004641494C3A204E6F207472696767A1
:101A700065722064657465637465640A0046414953
:101A80004C3A204E6F6973652064657465637465B4
:101A900064202D20706C656173652072652D7275F0
:101AA0006E20746573740A003D20424C546F756358
:101AB00068207072652056332E3120286F722063A3
:101AC0006F6D70617469626C6529003D205A205306
:101AD0006572766F2050726F6265003D20424C54F3
:101AE0006F7563682056332E310020282B2F2D2050
:101AF000346D73293A20003A2033306D73206F72B1
:101B0000206D6F72650A002E2050756C736520770A
:101B100069647468002A2A20506C656173652074BA
:101B20007269676765722070726F62652077697489
:101B300068696E20333020736563202A2A0A0046C4
:101B400041494C3A20424C544F55434820656E6100
:101B5000626C6564202D2053657420757020746854
:101B60006973206465766963652061732061205321
:101B70006572766F2050726F626520776974682095
:101B8000494E56455254494E472073657420746F30
:101B9000202774727565272E0A0020204445504C7A
:101BA0004F5945442073746174653A204C4F572057
:101BB000286C6F6769632030290020204445504C11
:101BC0004F5945442073746174653A204849474829
:101BD00020286C6F676963203129003D204D6563C3
:101BE00068616E6963616C2053776974636820640F
:101BF000657465637465640A005741524E494E47E7
:101C00003A20494E56455254494E472073657474E4
:101C1000696E672070726F6261626C7920626163C5
:101C20006B77617264732E0A002E204465706C6FAE
:101C30007920262073746F7720342074696D657362
:101C40000A003D20424C546F75636820436C6173F9
:101C500073696320312E322C20312E332C20536DAA
:101C600061727420312E302C20322E302C20322EF6
:101C7000322C20332E302C20332E312064657465B5
:101C8000637465642E0A002E20436865636B2066CA
:101C90006F7220424C544F5543480A002E205A5F21
:101CA0004D494E5F454E4453544F505F494E564543
:101CB0005254494E473A20002E2050726F626520E0
:101CC0005A5F4D494E5F50494E3A20002C207374A4
:101CD0006F7720616E676C653A202020002C2064AD
:101CE00065706C6F7920616E676C653A2000536592
:101CF00072766F2070726F626520746573740A2E3D
:101D0000207573696E6720696E6465783A202000DB
:101D10005761746368696E672070696E730A006545
:101D20006E6473746F70206D6F6E69746F722000D3
:101D300047004800000088008A008C00B300B4000F
:101D4000000098009A009C00A800AA00AC0028019E
:101D50002A012C01440045006E00800081006F00C4
:101D6000B000B1007000900091007100A000A100CF
:101D700072002001210173000A19000105190101F7
:101D8000F8183B00ED184300E2184500D518440050
:101D9000C8183201BB183301AF183401A41835013B
:101DA000991825019118110189181701811823012B
:101DB000751833016A1834015F18280154182A0174
:101DC00049182C013E181C013018180124181A015A
:101DD0001A182C010F18220101181E01F5172401F1
:101DE000ED170901E4170701D7170A01C817080101
:101DF000BF172901B3171901A3171D0197171B015D
:101E00008F170D0180174201CC183201731707019B
:101E1000BF18330165170A01581708014B1709014C
:101E2000B31834013D173101381735012D170B0157
:101E300022170601171705010C1704018817350131
:101E400000170C01F6163701E9162601DF1603010B
:101E5000D4163601C9160301BF163D01B21638016A
:101E6000A8160E019D163C0192160E01881630012F
:101E70007B163E017116120166162E015B161201C9
:101E80004B1628013B163F012B163B011B16400148
:101E90000B162A01FB154101EA152C01D915420147
:101EA0004D3432380050726F6265204F666673653C
:101EB0007473004A756E6374696F6E2044657600B2
:101EC000416363656C65726174696F6E0056656C21
:101ED0006F636974790053657420486F6D65204F96
:101EE000666673657473004E65787420436F726E16
:101EF000657200446F6E65004E65787400486F6DC2
:101F0000696E672058595A004C6576656C20436F9E
:101F1000726E657273004661646520486569676822
:101F200074004C6576656C20426564004732380A5F
:101F30004732390053746F77004465706C6F7900D5
:101F400053656C662D546573740053572D4D6F6443
:101F50006500486F6D6520257325732573204669DC
:101F6000727374005761726E696E673A20486F6DC4
:101F7000696E672042756D702044697669736F726F
:101F8000203C20310A00000080400000004000009A
:101F900000000000A0410000A0410000004102023A
:101FA000040000A0400000A0400000004000809D10
:101FB00043000098430000C843FFFFFF00809F4399
:101FC000000099430000C843436F6E6669677572ED
:101FD0006174696F6E0043616E63656C0042696C89
:101FE000696E656172204C6576656C696E67004547
:101FF00078747275646572730053686D65656542C7
:102000006F7400323032302D31302D31350054684C
:1020100065726D6973746F727300426F61726420D0
:10202000496E666F005072696E74657220496E6603
:102030006F0053746F70004368616E676520466976
:102040006C616D656E7400507265686561742043E3
:102050007573746F6D004368616E6765204D6564CC
:102060006961004D32310041626F757420507269B0
:102070006E746572004D3630302042300052657308
:10208000756D65205072696E740054756E650053ED
:10209000746F70205072696E7400506175736520A2
:1020A0005072696E74004E6F204D6564696100491D
:1020B0006E666F2053637265656E0053746172744F
:1020C000205072696E740043616E6E6F7420656E8D
:1020D000746572207375626469723A2000022E2E54
:1020E0000053657474696E67732053746F7265640E
:1020F000002062797465733B20637263200053652E
:102100007474696E67732053746F7265642028005D
:10211000454550524F4D206461746173697A652062
:102120006572726F722E0A002073746F726564207C
:1021300073657474696E677320726574726965760D
:102140006564202800202863616C63756C61746588
:102150006429210A0020213D2000454550524F4D61
:1021600020435243206D69736D61746368202D2094
:102170002873746F726564292000496E6465783A2B
:10218000200044494749504F5453204C6F616465C7
:10219000640A0044494749504F5453204C6F6164CE
:1021A000696E670A00204D61726C696E3D56383267
:1021B000290A00454550524F4D2076657273696F6C
:1021C0006E206D69736D61746368202845455052B7
:1021D0004F4D3D0048617264636F646564204465DF
:1021E0006661756C742053657474696E6773204CF6
:1021F0006F616465640A003B200000401C4500409C
:102200001C450000C8420000C8410000A042000078
:10221000A0420000C8430000BE42F4010000F401E7
:10222000000064000000881300001FE02010201050
:102230002010102010202010201030300840048082
:1022400003001FE03FF03FF03FF01FE01FE03FF0D2
:102250003FF03FF00FC0078003003FFFF0380070F1
:1022600030FC3020FC102078102030102C00D02EB4
:1022700031D02F7BD02F7BD02E31D02C00D02030EE
:102280001020781020FC1030FC303800703FFFF038
:102290003FFFF03800703186302387102787902F5A
:1022A00087D02F03D02030102078102078102030D5
:1022B000102F03D02F87D0278790238710318630A7
:1022C0003800703FFFF01FFFF81FFFF804104002B6
:1022D000082002082004104008208010410010410E
:1022E000000820800410400000001FFFF81FFFF8C6
:1022F0003DF00238F0448806451080880245008091
:10230000F002448080A3F2446080900244108090E8
:10231000024410448802451039CC0739E00000001F
:102320000000003870E000004489100000048910AB
:1023300000001889100000048910000004891000B2
:1023400000048910000044891000003870E0002566
:1023500068753A25303268750025303268753A253F
:102360003032687500202020202020200043484182
:102370004D4245525F54454D50455241545552458A
:1023800000424142595354455050494E4700415232
:102390004353004D4F54494F4E5F4D4F44455300FA
:1023A000544845524D414C5F50524F544543544957
:1023B0004F4E004C4F4E475F46494C454E414D45B0
:1023C000004155544F5245504F52545F53445F5350
:1023D0005441545553005344434152440050524FCA
:1023E0004D50545F535550504F525400454D455237
:1023F00047454E43595F5041525345520043415364
:10240000455F4C494748545F4252494748544E45FE
:10241000535300544F47474C455F4C49474854532A
:1024200000534F4654574152455F504F5745520055
:102430004255494C445F50455243454E54004C452B
:1024400056454C494E475F44415441005A5F5052F3
:102450004F42450052554E4F5554004155544F4C34
:102460004556454C005052494E545F4A4F42005029
:10247000524F4752455353004155544F5245504FC8
:1024800052545F54454D5000564F4C554D45545293
:1024900049430042494E4152595F46494C455F54B9
:1024A00052414E534645520053455249414C5F58A4
:1024B0004F4E5F584F4646004649524D5741524590
:1024C0005F4E414D453A4D61726C696E20322E303F
:1024D0002E372E3220284A616E203234203230329C
:1024E000312031333A32333A30342920534F555268
:1024F00043455F434F44455F55524C3A687474708E
:10250000733A2F2F6769746875622E636F6D2F4D54
:1025100061726C696E4669726D776172652F4D618B
:10252000726C696E2050524F544F434F4C5F56456A
:102530005253494F4E3A312E30204D414348494E77
:10254000455F545950453A53686D656565426F74EF
:102550002045585452554445525F434F554E543AC6
:102560003120555549443A63656465326132662DC0
:10257000343161322D343734382D396231322D63A4
:1025800035356336326633363766660A003F5A2081
:102590006F7574206F662072616E67652028003F3A
:1025A00059206F7574206F662072616E67652028F0
:1025B0002D0020746F20003F58206F7574206F66C7
:1025C0002072616E676520282D0050726F62652051
:1025D0004F6666736574205800656E717565756524
:1025E000696E672022006F6B00526573656E643AF6
:1025F000200023646566696E652044454641554C5C
:10260000545F004B6420004B6920004B7020005049
:102610004944204175746F74756E652066696E69F2
:1026200073686564212050757420746865206C613E
:102630007374204B702C204B6920616E64204B64B6
:1026400020636F6E7374616E74732066726F6D2099
:1026500062656C6F7720696E746F20436F6E666978
:102660006775726174696F6E2E680A005049442064
:102670004175746F74756E65206661696C6564215F
:102680002074696D656F75740A000A20436C61736C
:1026900073696320504944200A00204B643A2000AB
:1026A000204B693A2000204B703A20002054753AA4
:1026B0002000204B753A2000206D61783A200020E0
:1026C0006D696E3A200020643A20002062696173CF
:1026D0003A2000504944204175746F74756E65202E
:1026E00073746172740A00504944204175746F74A8
:1026F000756E65206661696C6564212054656D7036
:102700006572617475726520746F6F20686967689F
:102710000A00504944204175746F74756E6500500D
:102720004944204175746F74756E65206661696CEB
:1027300065642120426164206578747275646572F5
:10274000206E756D6265720A003F00496E6974699A
:10275000616C697A6520454550524F4D0050726951
:102760006E742041626F72746564004D3235205082
:102770000A4D32340050617573696E672E2E2E003B
:10278000454550524F4D2056657273696F6E204516
:1027900072726F7200454550524F4D20496E64650C
:1027A00078204572726F7200454550524F4D20435C
:1027B0005243204572726F720049676E6F726500F6
:1027C000486F6D696E67204661696C6564006F7063
:1027D000656E00545249474745524544007A5F6D43
:1027E000696E00795F6D696E00785F6D696E005289
:1027F00065706F7274696E6720656E6473746F7054
:10280000207374617475730A00667265736800647E
:102810006F696E67004E6F772000024C6F61642015
:1028200053657474696E67730053746F72652053D7
:10283000657474696E67730050726F6265205A2008
:102840004F666673657400416476616E63656420EB
:1028500053657474696E677300554E4C4F41442044
:1028600046494C414D454E540046494C414D454E1C
:1028700054204348414E47450046616E20537065E1
:10288000656400526573746F726520446566617596
:102890006C74730050726568656174202420436F06
:1028A0006E6600424C546F756368004D37303220BD
:1028B000542564004D3630302042302054256400C9
:1028C0004D373032203B2564004D373031205425C0
:1028D0006400436F6E74696E75650050757267654C
:1028E000206D6F726500524553554D45204F505431
:1028F000494F4E533A005052494E5420504155537F
:1029000045440020204E6F7A7A6C653A20003132BF
:1029100030004245443A204550434F532031303037
:102920004B0052756E617761792057617463683A24
:10293000204F4E004D61782054656D700032363561
:10294000004D696E2054656D700045313A20455048
:10295000434F53203130304B005053550047656E84
:10296000657269630050726F746F636F6C00312E13
:1029700030004261756400313135323030004372CD
:1029800065616C69747933442052414D5053005055
:1029900061726B696E672E2E2E000000576169749C
:1029A00020666F720066696C616D656E7420636885
:1029B000616E676500746F20737461727400576193
:1029C000697420666F720066696C616D656E742053
:1029D000756E6C6F616400004E6F7A7A6C6520686A
:1029E000656174696E6700506C656173652077611D
:1029F00069742E2E2E0000507265737320627574F8
:102A0000746F6E00746F2068656174206E6F7A7ADF
:102A10006C650000496E736572742066696C616D47
:102A2000656E7400616E64207072657373206275E8
:102A300074746F6E00746F20636F6E74696E756569
:102A4000005761697420666F720066696C616D651C
:102A50006E74206C6F616400005072657373204265
:102A60007574746F6E00746F20726573756D652078
:102A70007072696E7400005761697420666F72200D
:102A80007072696E7400746F20726573756D652E57
:102A90002E2E00005761697420666F720066696CA3
:102AA000616D656E742070757267650000507269A3
:102AB0006E74205061757365640020746F6F206CB4
:102AC0006F6E6720657874727573696F6E207072AF
:102AD0006576656E7465640A0020636F6C642065BA
:102AE0007874727573696F6E2070726576656E7436
:102AF00065640A0053686D656565426F74205265B0
:102B00006164792E005072696E74696E672E2E2E84
:102B100000205A3A0020593A00DB0FC93F45BCDA81
:102B20003F8FB30240FCF0274056946140FE4B9B20
:102B30004084A5D840E0231841346A5641E85997AB
:102B40004164DBD5416E271742B4B75542CE1A9780
:102B500042C8AED542B5885A43D40684BFA65FA703
:102B6000BF7443E0BF10B11AC01C2C58C0E8F697E0
:102B7000C0B849D6C04E4E17C124D355C180249742
:102B8000C1A0B5D5C1121A17C244AE55C278179765
:102B9000C26CACD5C267885AC34F6666004F6E00E0
:102BA000544D4320447269766572730046616E200D
:102BB0005370656564207E004D61696E00537465D5
:102BC000616C746843686F7020456E61626C656407
:102BD000005374657070696E67204D6F64650044C2
:102BE00072697665722043757272656E7400436F08
:102BF0006E74726F6C004261627973746570205AF2
:102C000000466C6F770000000000000000600000CC
:102C1000000000FC00000FF00000000007E00000D2
:102C2000000001861FC018700000000000603C0C0E
:102C3000000001830C6010300000000000603C0CBC
:102C4000000001830C303030000000000060000CF8
:102C5000000000030C183000000000000060003F7E
:102C60000F3C00030C0C6001DF0FE0FE00601C1C39
:102C7000061800060C0C6000F318318300600C0C81
:102C80000318001E0C0C6000E030398300600C0C4F
:102C9000033000030C0C6000C030380F00600C0CD7
:102CA000033000018C0C6000C03FF8FB00600C0C8E
:102CB000033000018C0C6030C030018300600C0CCC
:102CC00001F001818C0C6030C030018300600C0C7D
:102CD00000E001818C183030C018318300600C0C8A
:102CE00040E001838C301860C00C6187C0E01C0C90
:102CF000C06000C30C600FC3F007C0FFC7FC7F07B4
:102D000081C0007E1FC00000000000000000000025
:102D100007000000000000000000000000000000AC
:102D200007000000000001FFFFFFFFFFFFFFFFFFA4
:102D3000FFFFFFFF0FFFFFFFFFFFFFFFFFFFFFFF93
:102D4000FFFF1E0000000000000000000007FFFF62
:102D5000380000000000000000000003FFFF7000CA
:102D600000000000000000000001FFFF6000000004
:102D70000000000000000000FFFF600000000000F5
:102D80000000000000007FFFC00000000000000005
:102D9000007800003FFFC00FC0FC0000000000787A
:102DA00018001FFFC03FE1FF0000000000783C005A
:102DB0000FFFC07FF3FF8000000000783C0007FF9A
:102DC000C0FFFFFFC000000000783C0003FFC1F817
:102DD0007F87E00000000078000001FFC1F03F03A2
:102DE000E00000000078000000FFC1E01E01E01FCD
:102DF0000003E0783C03F07FC1E01E01E07FC00FDC
:102E0000F8783C07FC3FC1E01E01E1FFE01FFC78C1
:102E10003C0FFE1FC1E01E01E3FFF03FFE783C1FA8
:102E2000FE0FC1E01E01E3F3F83F3E783C3F3F0751
:102E3000C1E01E01E7E0FC7C1F783C3E1F07C1E0BB
:102E40001E01E7C07C7C0F783C3C0F03C1E01E01F3
:102E5000E7807C780F783C3C0F03C1E01E01E780DF
:102E60003C7800783C3C0F03C1E01E01E7803C78D1
:102E700000783C3C0F03C1E01E01E7803C780078FD
:102E80003C3C0F03C1E01E01E7C03C7800783C3CAD
:102E90000F03C1E01E01E3E03C78007C3C3C0F03E3
:102EA000C1E01E01E3FF3FF8007FBC3C0F03C1E01F
:102EB0001E01E1FF3FF8003FBFFC0F03C1E01E0110
:102EC000E0FF3FF8001FBFFC0F03C1E01E01E07FE1
:102ED0003FF8000FBFFC0F0360000000000000007F
:102EE000000000000007600000000000000000007B
:102EF000000000067000000000000000000000005C
:102F0000000E380000000000000000000000001C5F
:102F10001E000000000000000000000000780FFF0D
:102F2000FFFFFFFFFFFFFFFFFFFFFFF001FFFFFFBE
:102F3000FFFFFFFFFFFFFFFFFF8070012C019001EB
:102F40002701B0012201C0011D01F001180110028A
:102F5000130130020E016002090190020401C00257
:102F6000FF000003FA004003F5008003F000D003E7
:102F7000EB002004E6007004E100E004DC00400502
:102F8000D700C005D2004006CD00D006C80080079B
:102F9000C3003008BE00F008B900C009B400B00A90
:102FA000AF00B00BAA00D00CA500000EA000500F7F
:102FB0009B00C01096005012910000148C00C015A8
:102FC0008700B0178200B0197D00D01B7800001E6A
:102FD000730040206E0090226900F02464004027B6
:102FE0005F0090295A00E02B5500102E5000203031
:102FF0004B0010324600E033410090353C00103762
:10300000370070383200A0392D00B03A2800A03BBC
:103010002300603C1E00103D1900903D1400103E3E
:103020000F00703E0A00C03E0500003F0000403F18
:10303000FBFF803FF6FFC03FF1FF68747470733A86
:103040002F2F6D61726C696E66772E6F726700321A
:103050002E302E372E32002020506C616E6E65723D
:1030600042756666657242797465733A200020463F
:10307000726565204D656D6F72793A2000436F6D02
:1030800070696C65643A204A616E203234203230B7
:1030900032310A00204C617374205570646174658C
:1030A000643A20323032302D31302D3135207C20C1
:1030B000417574686F723A20287072696E74656425
:1030C000736F6C69642E636F6D2C2043522D313009
:1030D00053290A00322E302E372E320A004D6172EB
:1030E0006C696E0020536F6674776172652052655B
:1030F0007365740A00205761746368646F672052B7
:10310000657365740A002042726F776E206F757464
:103110002052657365740A002045787465726E618B
:103120006C2052657365740A00506F776572557034
:103130000A006175746F25632E6700473237004DB2
:1031400031303031006572726F7220777269746944
:103150006E6720746F2066696C650A00446F6E6547
:1031600020736176696E672066696C652E0A004D72
:10317000323900456E6473746F70730025532025D7
:103180006320256320256320256300656E647374C6
:103190006F7073206869743A20005654726176200B
:1031A0004D696E00566D696E00566D617820450060
:1031B000566D6178205A00566D6178205900566D21
:1031C0006178205800416D6178204500416D61783B
:1031D000205A00416D6178205900416D6178205876
:1031E00000412D54726176656C00412D52657472F8
:1031F00061637400416363656C0050726F626520A7
:1032000059204F66667365740050726F626520586E
:10321000204F666673657400452073746570732F64
:103220006D6D005A2053746570732F6D6D005920B9
:1032300053746570732F6D6D0058205374657073EF
:103240002F6D6D00496E6974000000210024002775
:10325000002A002D003000330001010000040107A6
:10326000010A0100000A0B02090C0D0E08070304F5
:10327000010000000000000000000000000000004D
:10328000000000000000000000000000000000122C
:10329000111000000000000000000000000000000D
:1032A00000000000000000000000002000230026B5
:1032B0000029002C002F003200000100000301064D
:1032C00001090100002200250028002B002E0031FA
:1032D00000340002010000050108010B010505058D
:1032E00005070508080808020202020A0A0808047D
:1032F00004040401010101010101010303030303AB
:10330000030303040707070C0C0C0C0C0C0C0C0239
:1033100002020206060606060606060B0B0B0B0B40
:103320000B0B0B0102102020080810204010204039
:103330008002010201080402010102040810204079
:103340008080402010080402018004020180402097
:1033500010080402010804020101020408102040C0
:103360008001020408102040804D6F76652025738F
:103370006D6D004D6F766520302E316D6D004D6F97
:10338000766520316D6D004D6F76652031306D6D45
:10339000004D6F76652041786973004578747275C9
:1033A000646572004D6F7665205A004D6F7665201A
:1033B00059004D6F766520580020520020204D396D
:1033C00030360020204D3536392053310020204D35
:1033D000363033200020550046696C616D656E748F
:1033E000206C6F61642F756E6C6F6164206C656E0C
:1033F000677468733A004472697665722073746505
:103400007070696E67206D6F64653A0020543020DB
:1034100045005374657070657220647269766572D8
:103420002063757272656E743A0020204D38353114
:103430002058005A2D50726F6265204F6666736582
:10344000740020204D333031205000504944207307
:10345000657474696E67733A002046002048002046
:10346000204D3134352053004D6174657269616CB3
:103470002068656174757020706172616D65746536
:1034800072733A002020473239205720490020200B
:103490004D3432302053004175746F2042656420F2
:1034A0004C6576656C696E673A0020204D32303687
:1034B000205800486F6D65206F66667365743A002A
:1034C000204A0020204D3230352042004164766190
:1034D0006E6365643A20423C6D696E5F7365676D2B
:1034E000656E745F74696D655F75733E20533C6DE6
:1034F000696E5F66656564726174653E20543C6DFB
:10350000696E5F74726176656C5F66656564726131
:1035100074653E204A3C6A756E635F6465763E0062
:1035200020540020204D3230342050004163636528
:103530006C65726174696F6E2028756E6974732F83
:103540007332293A20503C7072696E745F61636314
:10355000656C3E20523C726574726163745F616396
:1035600063656C3E20543C74726176656C5F616388
:1035700063656C3E0020204D3230312058004D6193
:1035800078696D756D20416363656C6572617469FE
:103590006F6E2028756E6974732F7332293A00207C
:1035A000204D3230332058004D6178696D756D20A3
:1035B0006665656472617465732028756E697473DD
:1035C0002F73293A005374657073207065722075EB
:1035D0006E69743A0020440020204D323030205370
:1035E000002044697361626C65640A0046696C611D
:1035F0006D656E742073657474696E67733A00202C
:10360000204D3134392043203B20556E697473209E
:10361000696E2043656C736975730A0020286D6DAF
:1036200029002020473231202020203B20556E6980
:10363000747320696E206D6D0024F4D43050C38EF5
:1036400020C2A24017828B7011127A910D816CD921
:103650000AA861E108C7586607615143061E4B5D21
:1036600005C145A7041A411104093D980371393178
:10367000034036DB0265339102D4305402802E1DA4
:1036800002632CEE01752AC501B028A00110278124
:10369000018F2564012B244B01E0223401AC211F52
:1036A000018D200D01801FFC00841EED00971DDFA1
:1036B00000B81CD200E61BC600201BBC00641AB276
:1036C00000B219A8000A19A0006A189900D1179130
:1036D0000040178B00B516840031167E00B31579B3
:1036E000003A157300C7146F0058146A00EE136691
:1036F000008813630025135E00C7125B006C12572D
:103700000015125400C111510070114F0021114BCE
:1037100000D61049008D10470046104400021042A8
:1037200000C00F4000800F3E00420F3C00060F3BE0
:1037300000CB0E3800930E37005C0E3500270E3498
:1037400000F30D3200C10D3100900D3000600D2EE0
:1037500000320D2D00050D2C00D90C2B00AE0C29CC
:1037600000850C29005C0C2700350C27000E0C2668
:1037700000E80B2400C40B2400A00B23007D0B23C6
:10378000005A0B2100390B2100180B2000F80A1FEA
:1037900000D90A1E00BB0A1E009D0A1D00800A1DDA
:1037A00000630A1C00470A1B002C0A1B00110A1A9E
:1037B00000F7091A00DD091900C4091900AB09193D
:1037C00000920917007B091800630917004C0916BD
:1037D0000036091600200916000A091500F508151B
:1037E00000E0081400CC081400B8081400A4081461
:1037F00000900813007D0812006B0813005808128F
:1038000000460812003408110023081100120811A4
:103810000001081100F0071000E0071000D00710A9
:1038200000C0071000B0070F00A107100091070E9D
:103830000083070F0074070F0065070E0057070E7F
:103840000049070E003B070D002E070E0020070D54
:103850000013070D0006070D00F9060C00ED060D1C
:1038600000E0060C00D4060C00C8060C00BC060CD8
:1038700000B0060C00A4060B0099060C008D060B88
:103880000082060B0077060B006C060B0061060A2F
:103890000057060B004C060A0042060A0038060ACA
:1038A000002E060A0024060A001A060A001006095D
:1038B0000007060A00FD050900F4050900EB0509EB
:1038C00000E2050900D9050900D0050900C705096E
:1038D00000BE050900B5050800AD050800A50509ED
:1038E000009C050800940508008C05080084050864
:1038F000007C050800740508006C050700650508D4
:10390000005D050700560508004E0507004705073E
:10391000004005080038050700310507002A0507A3
:1039200000230507001C050600160507000F050704
:10393000000805060002050700FB040600F5040761
:1039400000EE040600E8040600E2040700DB0406BB
:1039500000D5040600CF040600C9040600C304060F
:1039600000BD040600B7040600B1040500AC04065F
:1039700000A6040600A00405009B040600950405AB
:1039800000900406008A04050085040500800406F2
:10399000007A04050075040500700405006B040539
:1039A0000066040500610405005C04050057040579
:1039B00000520405004D04050048040500430405B9
:1039C000003E0404003A04050035040500300404F8
:1039D000002C04050027040400230405001E040431
:1039E000001A04040016040500110404000D040468
:1039F00000090405000404040000040400FC03049E
:103A000000F8030400F4030400F0030400EC0304D2
:103A100000E8030400E4030400E0030400DC030402
:103A200000D8030400D4030400D0030400CC030432
:103A300000C8030300C503030024F404D9201BC4F9
:103A40000C5C0E9804C4095F0265077101F405F966
:103A500000FB04B30048048700C103690058035504
:103A60000003034500BE023A008402310053022ADB
:103A7000002902250004022000E4011C00C80119ED
:103A800000AF0117009801140084011300710110A8
:103A9000006101100051010E0043010D0036010BC1
:103AA000002B010B0020010B00150109000C01097E
:103AB0000003010800FB000800F3000800EB00070A
:103AC00000E4000600DE000600D8000600D2000672
:103AD00000CC000500C7000500C2000500BD0004C1
:103AE00000B9000400B5000400B1000400AD0004FA
:103AF00000A9000400A5000300A20003009F000429
:103B0000009B00030098000300950002009300034F
:103B100000900003008D0002008B0003008800026B
:103B2000008600020084000300810002007F000282
:103B3000007D0002007B0002007900020077000196
:103B400000760002007400020072000100710002A1
:103B5000006F0002006D0001006C0002006A0001AD
:103B600000690002006700010066000100650001B5
:103B700000640002006200010061000100600001B9
:103B8000005F0002005D0001005C0001005B0001BD
:103B9000005A0001005900010058000100570001BF
:103BA00000560001005500010054000100530000C0
:103BB00000530001005200010051000100500001BB
:103BC000004F0001004E0000004E0001004D0001BA
:103BD000004C0001004B0000004B0001004A0001B6
:103BE00000490001004800000048000100470001B2
:103BF00000460000004600010045000000450001AD
:103C000000440001004300000043000100420000A6
:103C1000004200010041000000410001004000019D
:103C2000003F0000003F0001003E0000003E000198
:103C3000003D0000003D0001003C0000003C000091
:103C4000003C0001003B0000003B0001003A000086
:103C5000003A00010039000000390001003800007E
:103C60000038000000380001003700000037000174
:103C7000003600000036000000360001003500006C
:103C80000035000000350001003400000034000061
:103C90000034000100330000003300000033000155
:103CA000003200000032000000320001003100004C
:103CB0000031000000310001003000000030000041
:103CC00000300001002F0000002F0000002F000036
:103CD000002F0001002E0000002E0000002E000129
:103CE000002D0000002D0000002D0000002D00011F
:103CF000002C0000002C0000002C0000002C000113
:103D0000002B0000002B0000002B0000002B000106
:103D1000002A0000002A0000002A0000002A0001FA
:103D200000290000002900000029000000290000EF
:103D300000290001002800000028000000280000E1
:103D400000280000002800010027000000270000D4
:103D500000270000002700000027000100260000C7
:103D600000260000002600000026000000260001BA
:103D700000250000002500000025000000250000AF
:103D800000250000002500010024000000240000A0
:103D90000024000000240000002400010023000093
:103DA0000023000000230000002300000023000087
:103DB0000023000000230001002200000022000078
:103DC000002200000022000000220000002200016A
:103DD000002100000021000000210000002100005F
:103DE000002100000021000000210001002000004F
:103DF0000020000000200000002000000020000043
:103E0000002000000020000000200001001F000032
:103E1000001F0000001F0000001F0000001F000026
:103E2000001F0000001F0001001E0000001E000017
:103E3000001E0000001E000000043700001E2900C4
:103E400000511B00005810000010090000CC0400B5
:103E5000007802000041010000496E76616C6964DF
:103E60002065787472756465720A0020573A007C88
:103E70003C3E5E2B3D3F2F5B5D3B2C2A225C004588
:103E80003100626564002C2073797374656D207352
:103E9000746F7070656421204865617465725F4954
:103EA000443A200048656174696E67204661696C18
:103EB00065640048656174696E67206661696C6558
:103EC00064004D3131322053687574646F776E0031
:103ED000202D20496E76616C696420657874727556
:103EE000646572206E756D62657220210A00544807
:103EF00045524D414C2052554E415741590054684E
:103F000065726D616C2052756E61776179004572E2
:103F1000723A204D415854454D50004D415854453A
:103F20004D502074726967676572656400457272EE
:103F30003A204D494E54454D50004D494E54454D43
:103F40005020747269676765726564000A0A002010
:103F5000205A5F4D494E3A002020595F4D494E3A54
:103F6000002020585F4D494E3A00202F002042404B
:103F70003A0020403A002053697A653A20004361B4
:103F80006E6E6F74206F70656E20737562646972F7
:103F90002000534420496E6974204661696C0053C7
:103FA000442063617264206F6B0A006F70656E520B
:103FB0006F6F74206661696C65640A00766F6C755A
:103FC0006D652E696E6974206661696C65640A00AE
:103FD0004E6F20534420636172640A004D323320D7
:103FE0002573006F70656E206661696C65642C20B6
:103FF00046696C653A200046696C652073656C659E
:10400000637465640A0046696C65206F70656E654F
:10401000643A2000454E4420535542524F5554496E
:104020004E450A002220706F730022207061726575
:104030006E743A2200535542524F5554494E452012
:1040400043414C4C207461726765743A2200537589
:104050006263616C6C204F766572666C6F770045A9
:1040600078636565646564206D61782053554252BC
:104070004F5554494E452064657074683A310A00C2
:1040800057726974696E6720746F2066696C653A4F
:1040900020004261636B004D6F74696F6E004D3894
:1040A00034004175746F20486F6D650054656D7004
:1040B000657261747572650041425300504C410055
:1040C00050726568656174202400486F74656E6481
:1040D00020746F6F20636F6C640050726F6365654E
:1040E000640044697361626C652053746570706527
:1040F000727300473238005072656865617420241D
:1041000020456E6400507265686561742024204209
:10411000656400436F6F6C646F776E00BC40B8409D
:10412000204D393220580020204D61783A2000205F
:10413000204D696E3A2000536F667420656E64737B
:10414000746F70733A2000737072656164437963B1
:104150006C6500737465616C746843686F700020EF
:10416000647269766572206D6F64653A0900206437
:1041700072697665722063757272656E743A20009A
:1041800020496E76616C6964206578747275646527
:104190007220005072696E742066726F6D204D65DA
:1041A00064696100205A3A200020593A2000426593
:1041B0006420583A200050726F62696E6720466131
:1041C000696C65640A0050726F62696E67204661AF
:1041D000696C656400220A00556E6B6E6F776E2005
:1041E000636F6D6D616E643A2022004F46460A008F
:1041F00046616465204865696768742000426564AB
:10420000204C6576656C696E6720004661696C6557
:104210006420746F20656E61626C65204265642065
:104220004C6576656C696E670A00496E76616C69EB
:1042300064206D6573682E0A0050726F62696E6744
:1042400020506F696E740025532025692F25690061
:1042500050726F62696E67206D65736820706F6958
:104260006E742000202844525952554E290047327E
:1042700039204175746F20426564204C6576656C09
:10428000696E67003F20284C2C522C462C42292076
:104290006F7574206F6620626F756E64732E0A00EE
:1042A0003F2856296572626F7365206C6576656C70
:1042B00020696D706C61757369626C652028302DA2
:1042C00034292E0A00426164205A2076616C75659B
:1042D0000A004E6F2062696C696E656172206772B8
:1042E00069640A0020436F756E7420583A0044696F
:1042F00066663A2020200046726F6D5374703A0053
:10430000537465707065723A00556E4C6576656CD5
:104310003A004C6576656C65643A005261773A20E4
:10432000202020000A4C6F676963616C3A00436F7C
:10433000756E7420453A004361703A0034013201D1
:1043400011241FBECFEFD1E2DEBFCDBF00E00CBF16
:1043500013E0A0E0B2E0E8E5F6ED02E00BBF02C03A
:1043600007900D92A23DB107D9F727E1A2EDB3E086
:1043700001C01D92A439B207E1F711E2CFE9D1E201
:1043800000E006C021970109802FFE010F943467D9
:10439000CE39D10780E00807A9F70F94E94E0D94B4
:1043A0001A6B0C9400002F923F924F925F926F9283
:1043B0007F928F929F92AF92BF92CF92DF92EF92B5
:1043C000FF920F931F93CF93DF93CDB7DEB7E7979D
:1043D0000FB6F894DEBF0FBECDBF8EAB2091DC03CD
:1043E0002CAB21E02093DC03809196058D3409F4F9
:1043F0005BC3843511F40C947C32873411F00C9437
:104400008E3280919405909195058B31910509F438
:1044100020C1B4F48430910534F482309105DCF588
:1044200097FF2DC03DC38531910511F40C94903256
:104430008A31910509F409C1049709F031C3C6C056
:104440008A32910509F44CC254F48D31910509F476
:104450002BC10CF419C14E9709F445C121C38B350A
:10446000910509F4BAC18C35910509F4BBC18A35AF
:10447000910509F015C31092DB030C9490328091E2
:104480007D0E813011F00C9490320F94EB320E942B
:10449000EA8C0C94903220917D0E213011F00C9416
:1044A000903211E0029709F010E00F94EB3219827C
:1044B0001A821B821C821D821E821F82188682E540
:1044C0000E948153882309F44BC00E94FC526B0167
:1044D0007C0120E030E0A9010F943960882309F4C1
:1044E00055C08091430290914402A0914502B09141
:1044F000460288A799A7AAA7BBA7809147029091D7
:104500004802A0914902B0914A0288AB99ABAAAB8C
:10451000BBAB8090421790904317A0904417B09087
:104520004517409046175090471760904817709075
:104530004917A501940168A579A58AA59BA50F94A3
:10454000396081110C949932A301920168A979A96B
:104550008AA99BA90F9439608823C1F00C949932E1
:1045600089E40E948153882331F00E94FC526983C0
:104570007A838B839C838AE40E948153882331F061
:104580000E94FC526D837E838F83988720E030E009
:10459000A90169817A818B819C810F943960811195
:1045A0000C944D3320E030E0A9016D817E818F8134
:1045B00098850F94396081110C944D330E94FD4A07
:1045C00083EF97E00E9447490C94903280E50E9467
:1045D0008153882329F00E94F47B6B017C0103C086
:1045E000C12CD12C760183E50E948153882361F090
:1045F0000E94FC5220E030E04AE754E40F949F60B0
:104600000F94F9686B017C010E943D86809124061D
:10461000811105C060E089E098E00E9455C70E94C2
:104620002EFFC60ED71EE81EF91E0E942EFFDC01CB
:10463000CB018C199D09AE09BF09B7FD02C00C94CE
:10464000903280E00E945F3CF0CF0E94B2530C9405
:10465000903287E00E94F38B81110C9490328CE0B1
:10466000E6E9F2E0DE01119601900D928A95E1F7FC
:1046700060E070E080E50F94FD36BE016F5F7F4F14
:104680000E94B6C20C9490328091080587708730E2
:1046900011F00C94603360E08FE40E949D5381110F
:1046A0000C9490320C9460330E942EFF6093B30FF1
:1046B0007093B40F8093B50F9093B60F87E00E946C
:1046C000F38B81110C9490328091620F882311F446
:1046D0000C943F3560E08FE40E949D5381110C944F
:1046E00090320C943F3520915417309155174091DA
:1046F0005617509157176091430270914402809170
:104700004502909146020F948667AB01BC0188E593
:104710000E94AFAF69837A838B839C832091581763
:104720003091591740915A1750915B176091470289
:10473000709148028091490290914A020F948667D5
:10474000AB01BC0189E50E94AFAF6D837E838F838F
:104750009887BE016B5F7F4FCE0101960F949F3FFC
:10476000882311F40C94903280E00E9410450E943E
:10477000C28F61E085E40E949D5321E0482FBE0175
:104780006B5F7F4FCE0101960F947E3B6B017C01E6
:104790009B01AC010F94786A811119C049815A813B
:1047A0006B817C818EEA91E40E94CC4A4D815E81CE
:1047B0006F81788589EA91E40E94CC4AB701A6010D
:1047C00084EA91E40E94CC4A8AE00E94333B0E9432
:1047D000A98F0E948FBE0C9490328FE08093DB03F0
:1047E0000C94903299E6292E93E0392E2CEFE22E8C
:1047F00024E0F22E23E432E039A728A733E4C32EC5
:1048000037E0D32E00E010E0D1018D911D010E9410
:104810008153882309F44BC00E94FC522B013C01B8
:10482000133049F0F60120813181428153810F9488
:1048300085672B013C01A8A5B9A52D913D914D910E
:104840005C91C301B2010F9485674B015C012DEBB4
:1048500037E346E855EB0F94E66987FD0AC02DEB78
:1048600037E346E855E3C501B4010F9439601816E3
:10487000F4F4133051F440924F025092500260927F
:1048800051027092520201E012C0A5019401F70199
:1048900060817181828193810F948667D7016D93C6
:1048A0007D938D939C931397812F0E94FD8A1F5FA8
:1048B000B4E0EB0EF11CE8A5F9A53496F9A7E8A73A
:1048C000F4E0CF0ED11C143009F09ECF002321F06C
:1048D0008FE492E00E9455890E948FBE0C94903222
:1048E00080917D0E813011F00C94903289E40E9409
:1048F0008153E82E882321F00E94F852082F01C02E
:1049000000E08AE40E948153F82E882321F00E945F
:10491000F852182F01C010E0EE2011F0053020F4FD
:10492000FF2041F0153030F085E398E00E944749C0
:104930000C94903280E1E3E4F2E0A2E4B7E101906C
:104940000D928A95E1F7EE2019F1602F000F770B99
:10495000880B990B0F9440602091DE0E3091DF0E92
:104960004091E00E5091E10E0F949F602091180548
:104970003091190540911A0550911B050F948667D7
:104980006093421770934317809344179093451791
:10499000FF2019F1612F110F770B880B990B0F94E2
:1049A00040602091E20E3091E30E4091E40E509170
:1049B000E50E0F949F6020911C0530911D054091DC
:1049C0001E0550911F050F948667609346177093DC
:1049D0004717809348179093491760E080E50E943D
:1049E0009D538823C1F1EE20D1F0209154173091CE
:1049F0005517409156175091571760914217709173
:104A0000431780914417909145170F9485676093E1
:104A10004217709343178093441790934517FF20D4
:104A2000D1F0209158173091591740915A17509151
:104A30005B176091461770914717809148179091C6
:104A400049170F94856760934617709347178093B3
:104A500048179093491740E050E0BA0186E40E945D
:104A6000AFAF6B017C0120E030E0A9010F94E66953
:104A700018164CF420E030E040E752E4C701B601DC
:104A80000F94806803C060E070E0CB0169837A8393
:104A90008B839C83CE0101960E948BBC0C94903238
:104AA0000F94A83A0C9490328091940590919505BA
:104AB0008837910509F452C70CF0F6C08D34910582
:104AC00009F4A8C40CF06BC08A31910509F4C0C286
:104AD000BCF58431910509F442C27CF48131910521
:104AE00009F429C22CF4029708F4EDC10C94793230
:104AF000429709F436C60C9479328731910509F44E
:104B000063C294F48531910509F45AC2469711F0B5
:104B10000C9479320F94F42480916E15877F806213
:104B200080936E150C9490328831910509F461C21E
:104B3000499711F00C9479320F9428360C949032E6
:104B40008F31910509F49AC37CF48C31910509F4F5
:104B5000E0C20CF48BC28D31910509F4E2C24E978C
:104B600009F4E6C20C9479328B32910509F44AC4F7
:104B70004CF48032910509F43EC38A9709F429C4A4
:104B80000C9479328B34910509F440C48C3491052E
:104B900011F00C9479320E940CC00C9490328C3637
:104BA000910511F40C9490320CF049C085359105B3
:104BB00009F4DAC55CF58235910509F4C4C5E4F45D
:104BC0008135910511F00C9479320F940B170E94E6
:104BD00021C00E944E860E94953868EE73E080E006
:104BE00090E00E947C480E949A3860E08EE599E04F
:104BF0000E9455C70C9490328335910509F4AAC5DB
:104C00008435910509F4ADC50C9479328936910546
:104C100009F455C454F48C35910509F4C8C5883697
:104C2000910509F4FBC30C9479328A36910509F495
:104C30005AC48B36910509F499C40C9479328137A2
:104C4000910509F4F6C48CF48E36910509F49BC4E1
:104C50000CF40BC48F36910509F4A6C48037910576
:104C600011F40C9490320C9479328537910509F443
:104C70002BC66CF48237910509F423C6833791055E
:104C800011F00C9479320E9484BB0C9490328637D8
:104C9000910509F429C68737910511F00C947932F2
:104CA0000E9424BF0C9490328E3221E0920711F4BE
:104CB0000C943C300CF068C08C3C910509F459C749
:104CC0007CF58139910509F457C68CF48A37910532
:104CD00011F40C940B320CF448C68D37910509F48D
:104CE0002FC58C38910509F4C6C40C947932883CE0
:104CF000910509F4B5C654F48B39910509F4FAC449
:104D00008E3B910509F4D6C40C947932893C910507
:104D100009F4EDC68B3C910509F40CC70C9479326B
:104D20008D3D910509F483C784F48E3C910509F407
:104D300036C70CF421C7833D910509F44EC78C3D5D
:104D4000910509F44DC70C9479328232A1E09A079B
:104D500011F40C94502F5CF4823E910509F4BDC708
:104D60008831914011F40C94B92E0C9479328C3224
:104D7000F1E09F0711F40C94A72F8D32914011F4AC
:104D80000C94BC2F0C947932863F31E0930711F4D8
:104D90000C9465310CF04BC08A39B1E09B0711F4DB
:104DA0000C9490320CF58039F1E09F0711F40C94CB
:104DB00080304CF48F32914011F00C9479320E9483
:104DC000C6AF0C9490328139A1E09A0711F40C948B
:104DD00083308239914011F00C9479320F94963FD0
:104DE0000E948FBE0C9490328C3AE1E09E0711F441
:104DF0000C9405316CF4843A21E0920711F40C9480
:104E00008D30853A914011F40C9490300C947932A5
:104E1000843FA1E09A0711F40C946231853F9140E0
:104E200011F00C9479320E9489A00C9490328B3549
:104E3000E2E09E0711F40C948F311CF58C3022E0D7
:104E4000920711F40C9482316CF4873FA1E09A0729
:104E500011F40C946831883F914011F40C94713135
:104E60000C9479328933E2E09E0711F40C944E32AF
:104E70008835924011F00C9479320F9415350C94CA
:104E80009032803A23E0920709F4EAC17CF483353A
:104E9000A3E09A0711F40C9408328A38934011F079
:104EA0000C9479320F94C5330C949032873EE3E032
:104EB0009E0711F40C945132893E934011F40C94E6
:104EC0005F320C94793280E50E948153882329F067
:104ED0000E94F47B6B017C0103C0C12CD12C7601B4
:104EE00083E50E948153882361F00E94FC5220E0F8
:104EF00030E04AE754E40F949F600F94F9686B0127
:104F00007C010E943D8680919205909193050097C7
:104F100021F061E00E94EEC705C060E08EE498E0F9
:104F20000E9455C740E0C701B6010E945F410E9440
:104F300092EA0C9490328091970584FF02C00C9401
:104F400042358091990587FF02C00C9442358091CB
:104F50009A05837011F00C9442350C945E35809163
:104F60006E1583FF25C089E798E00E94474980912C
:104F70006E1583FF17C082E892E10F947A0D8BE1E2
:104F8000E2E8F2E1DE01119601900D928A95E1F7D7
:104F900060E070E0CE0101960F941F2CCE010196C7
:104FA0000F947F0D8AE698E00E9447490C94903256
:104FB0000E94CD4B8AE898E00E9447490C949032B9
:104FC0000F94B3250C949032E0919205F0919305E3
:104FD0008081882329F0803209F410823196F8CF3D
:104FE00060E080919205909193050F94BF2A0C94F4
:104FF00090328091B8168823F9F080E090E0A0EA22
:10500000B1E488A399A3AAA3BBA31C8E1D8E1E8EF8
:105010001F8E19821A821B821C8200E010E020E0A1
:10502000AE01405E5F4FBE01645E7F4FCE010196D0
:105030000E94754C0C9490320E947138882321F0A4
:105040000F9405250E94D2BF0E9492EA0C949032E0
:1050500080916E1583FD02C00C94903283E50E940E
:10506000815381110C946C350C94903283E40E942E
:105070003353882319F18EE998E00E9447498091C3
:105080002C12882391F0BE016F5F7F4F89E292E17D
:105090000F94410C8E010F5F1F4FD8018D918D0130
:1050A000882339F00E94333BF8CF84E998E00E94CE
:1050B00047498AE00E94333B0C94903280916E15F0
:1050C00082FF21C08DEA98E00E94474960916A15ED
:1050D00070916B1580916C1590916D154AE00E944E
:1050E0003A3B8FE20E94333B6091661570916715E1
:1050F00080916815909169154AE00E943A3B0E94A0
:10510000383C0C9490328FEB98E00E9447490C9405
:10511000903280919205909193050F94752A0C948A
:10512000903280916E158E7F80936E150C94903224
:1051300080916E1583FD02C00C9490320F948E3ACC
:1051400080916E1583FD02C00C94903240919205BF
:1051500050919305BE01645E7F4F80E00F949623CB
:105160008C01009711F40C9490326C8D7D8D198216
:105170001C8222E0AC01CE0101960F94AF11811187
:1051800002C0F12C14C0CE0101960F940423882391
:10519000C1F361E0CE0101960F94250C009789F3CD
:1051A00025EEFC0120831C820F94F126F82ECE01FF
:1051B00001960F947F0DB801FF2099F088EE98E0DA
:1051C0000E94EA4A8AE00E94333B10926A151092CC
:1051D0006B1510926C1510926D150E947CCF0C947B
:1051E000903280ED98E00E94EA4A87E99BE10E94B4
:1051F00047490C94903280916E1582FD0E943D8645
:1052000080916E1583FD02C00C94903260E080E5C1
:105210000E949D53182F682F8091920590919305BD
:105220000F94BF2A83E50E948153882381F00E9456
:10523000C452AB01BC0140936A1550936B15609347
:105240006C1570936D1589E292E10F9417290F94F4
:10525000052511110C9490320E94D2BF0C9490320B
:10526000209192053091930590916E1592609093E4
:105270006E15C9010F94752A0C9490320E9483BF59
:105280007B018C0120E831E541E050E00F948F660E
:10529000C9016DE671E00F940C674B015C01C80118
:1052A000B70120E13EE040E050E00F948F66CA0174
:1052B000B90128E130E040E050E00F948F66762E8F
:1052C000672EC62ED72E8CE3282E312C412C512C44
:1052D000C801B701A20191010F948F66F62EE72E47
:1052E000CA01B901A20191010F948F66CB018E0111
:1052F0000F5F1F4F8114910499F0EF92FF927F93FB
:105300006F936F927F92BF92AF929F928F9286EF30
:1053100098E09F938F931F930F930F94D15F13C0C7
:10532000A114B104B1F0EF92FF927F936F936F924B
:105330007F92BF92AF928AEF98E09F938F931F93D3
:105340000F930F94D15F0FB6F894DEBF0FBECDBFA1
:1053500030C0CD2879F0EF92FF927F936F936F92D8
:105360007F928EEF98E09F938F931F930F930F94EC
:10537000D15FE9CF892B69F0EF92FF927F936F9312
:1053800082E099E09F938F931F930F930F94D15FC7
:10539000DACFEF92FF9286E099E09F938F931F936D
:1053A0000F930F94D15F0F900F900F900F900F906D
:1053B0000F9060E0C8010E94EEC70E94CD4BB8017B
:1053C0008AE099E00E94EA4A8AE00E94333B0C940A
:1053D00090326DE070E080E50E948E538C0197FF63
:1053E00002C00C949032E82E60E089E40E949D5344
:1053F00081110C947D35802F0E944C3881118AC414
:105400000C947D350E948E780C9490320E94D2BF0D
:105410000C9490320E9421C00C9490328091400CE8
:1054200083FF02C00C9490320F949C3387FF02C01C
:105430000C94903289E40E948153882311F40C94D7
:10544000BA350E94D45290E01816190614F481E07F
:1054500090E026E0289FF001299FF00D1124E251F1
:10546000F14F808191810C94C4358091400C83FF71
:1054700002C00C9490320F949C33F82E87FF02C028
:105480000C94903289E40E948153082F882311F4F0
:105490000C94CD350E94D45290E01816190614F4DD
:1054A00081E090E026E0289FF001299FF00D112473
:1054B000E251F14F8081918110E00C94DD350F9421
:1054C0009C33182F87FD0AC086EE95E20E9447495B
:1054D000812F0F9461168AE00E94333B3CA93093E0
:1054E000DC030C943F3760E080E50F945041F82EC8
:1054F00081E08F1510F40C94903281E40E943353B4
:10550000882329F060916B07062F10E002C00FEF8F
:1055100010E089E40E948153882399F00E94D452BC
:1055200090E01816190614F481E090E026E0289F18
:10553000F001299FF00D1124E251F14F04811581F2
:1055400008C083E50E948153882319F00E94C45249
:105550008B01EF2DF0E0E559F84FB8010F3F110531
:1055600019F010F06FEF70E06083DAC760E080E55B
:105570000F945041823008F0D3C7E82FF0E0E5598E
:10558000F84F1082CDC78EE40E948153882309F41E
:10559000C7C70E94C45260931F0670932006809371
:1055A000210690932206BCC783E50E9433538823CB
:1055B00031F060E083E50F9450418093400C0E94ED
:1055C000CD4B82E399E00E9447498091400C8823AB
:1055D00069F110E9E12E1AE0F12E00E010E020E080
:1055E0008091400C90E0A0E0B0E0002E04C0B695A1
:1055F000A795979587950A94D2F780FF0EC0DD2472
:10560000D394D20E222319F08CE20E94333BF7018F
:10561000859194910E9447492D2D0F5F1F4F92E075
:10562000E90EF11C05301105D9F643CD8EE299E063
:105630003ECD83E50E948153882371F00E94D452AD
:10564000282F30E02D3331051CF48093000268C709
:105650008CE38093000264C70E94CD4B409100020E
:1056600050E060E070E089E399E00E94AE4A8AE091
:105670000E94333B55C78091400C83FD51C789E49C
:105680000E948153882311F40C9427360E94D4522F
:1056900090E01816190614F481E090E026E0289FA7
:1056A000F001299FF00D1124E251F14F8281938185
:1056B0000C9432368091400C83FD32C789E40E94FD
:1056C0008153882311F40C9439360E94D45290E00F
:1056D0001816190614F481E090E026E0289FF001E6
:1056E000299FF00D1124E251F14F8281938110E046
:1056F0000C944A3683E50E948153882309F410C72D
:105700000E94D452182F90E0CD970CF01CE3109318
:10571000D6030E942EFF6B017C01212F30E0A8EE02
:10572000B3E00F94E366C60ED71EE81EF91EC092C2
:10573000D203D092D303E092D403F092D503F0C603
:105740000F942836EDC68091DB038F7D80618093B6
:10575000DB03E6C68091DB038F7E80628093DB03F0
:10576000DFC60F94FF37DCC683E50E9433538823DE
:1057700009F4D6C60E942EFF6093B30F7093B40F46
:105780008093B50F9093B60F0E94FC5220E030E05A
:105790004AE754E40F949F600F94F9686093D7032D
:1057A0007093D8038093D9039093DA03B9C60F940A
:1057B0009C3387FDB5C69091970594FD04C09091E8
:1057C000990597FF0AC0A9E6CA2EA3E0DA2EB1E434
:1057D000EB2EBCE0FB2E10E009C090919A0593706F
:1057E00091F7682F81E00F945F389AC6D6018D91AA
:1057F0006D010E948153882309F459C0133009F0C8
:105800004FC00E94FC524B015C0120E030E040EAB6
:1058100051E40F94396087FF3AC0A501940160916B
:10582000610C7091620C8091630C9091640C0F94E8
:1058300080682B013C019B01AC016091710C70915F
:10584000720C8091730C9091740C0F949F60609314
:10585000710C7093720C8093730C9093740C609124
:105860005F077091600780916107909162070F94C4
:105870003E60A30192010F949F600F94F9686093BA
:105880005F0770936007809361079093620780922F
:10589000610C9092620CA092630CB092640C07C0F1
:1058A0000E94FC52F701648B758B868B978B1F5F70
:1058B000F4E0EF0EF11C143009F098CF0E94198625
:1058C0002FC60F94F5492CC68091920590919305AF
:1058D000009709F4B9CBDC012C91222309F4B4CB55
:1058E00060E00E94EEC71CC60091920510919305DE
:1058F00094E0F12C40E0915021F1F8018081282FB3
:105900002B7F213421F421812133D9F407C0803544
:10591000C1F4818180538A3048F013C0813421F072
:10592000853421F441E002C0FF24F39498012E5FF6
:105930003F4F89012F5F3F4FF80180818032C9F3CB
:10594000DACF41110E94CD4BFF2021F08DE699E086
:105950000E944749C8010E943E3CE2C52093A90C21
:105960002093A80C0E9474BFDBC51092A90C109262
:10597000A80C0E9474BFD4C560E070E083E50E946B
:105980008E53823038F00E94FD4A81E799E00E94F0
:105990004749C6C58C01112788E40E94815388239A
:1059A000E1F00E94F8528A3A910544F00E94F852C0
:1059B0008B3F910534F40E94F85205C08AEA90E0CA
:1059C00002C08AEF90E026E0209FF001219FF00DB9
:1059D0001124E251F14F9183808382E40E9481532C
:1059E0008823D9F00E94F852059744F00E94F8529B
:1059F0008F36910534F40E94F85205C085E090E09E
:105A000002C08EE690E026E0209FF001219FF00D7D
:105A10001124E251F14F9383828386E40E948153E3
:105A2000882309F47DC50E94F85297FD09C00E94A1
:105A3000F8528F3F910509F034F40E94F85205C0E6
:105A400080E090E002C08FEF90E026E0209FF00120
:105A5000219FF00D1124E251F14F9583848360C59D
:105A60000F949C33182F87FD5BC50091670F84E46A
:105A70000E948153882311F40C9473360E94FC52C7
:105A80006B017C0120E030E0A9010F94396088238C
:105A900041F124E01202F0011124ED59F04FC082CF
:105AA000D182E282F38220E030E0A9016091630FAD
:105AB0007091640F8091650F9091660F0F9439601B
:105AC00081110CC080E090E0A0EEBFE38093630FF3
:105AD0009093640FA093650FB093660F01E00C9450
