:100000000C94CC1F0C94FD1F0C94FD1F0C94FD1F31
:100010000C94FD1F0C94FD1F0C94FD1F0C94FD1FF0
:100020000C94FD1F0C946E880C946E880C946E8852
:100030000C94FD1F0C949FC80C94FD1F0C94FD1F85
:100040000C94FD1F0C9439B30C94FD1F0C94FD1FF0
:100050000C94FD1F0C94FD1F0C944BE30C94CB9758
:100060000C94FD1F0C94C13C0C94B73C0C94FD1FE8
:100070000C94FD1F0C94FD1F0C94FD1F0C94FD1F90
:100080000C94FD1F0C94FD1F0C94FD1F0C94FD1F80
:100090000C94FD1F0C94FD1F0C94FD1F0C94FD1F70
:1000A0000C94FD1F0C94FD1F0C94FD1F0C94FD1F60
:1000B0000C94FD1F0C94FD1F0C94FD1F0C94FD1F50
:1000C0000C94FD1F0C94FD1F0C94FD1F0C94FD1F40
:1000D0000C94FD1F0C94FD1F0C94FD1F0C94FD1F30
:1000E0000C94FD1FF43C043D153D203D283D3F3D53
:1000F0002C3D3F3D303D343D3F3D3A3D9C7F597E58
:10010000927ED87F927E927E927E927E927E927E28
:10011000927E927E927E927E927E927E927E927E5F
:10012000927E927E927E927E927E927E927E927E4F
:10013000927E927E927E927ED27F927E927E927EFE
:10014000927E927E927E927E927EAB7F927E927E15
:10015000927E927E927E927E927E927E927E927E1F
:10016000EF7F8F7E57865A8649864D8653869186C5
:100170005E86628668866C86708676867A867E86DD
:100180009186848688868C86D289D789DC89E6899F
:10019000F089698AFA89028A0A8A148A1E8A288A58
:1001A000378A418A698A4B8A558A5F8A3BC51EC550
:1001B00021C53EC524C527C52AC536C52DC549C597
:1001C00030C533C5E201FE010E03A002DC0140038D
:1001D00054011202C4026002D40230013E027401D2
:1001E0004003BE013A02C8015C021E02DC02DE01CD
:1001F000B6022C03480138028802860226025A0100
:10020000A402FE022C031C03CE014401084AD73B82
:100210003BCE016E84BCBFFDC12F3D6C74319ABDD5
:1002200056833DDA3D00C77F11BED9E4BB4C3E91F9
:100230006BAAAABE000000803F05A84CCDB2D44EE8
:10024000B93836A9020C50B9918688083CA6AAAAEA
:100250002ABE000000803F000C9494500D942306A9
:100260000D940A1F0D9469060C944DBF0D947607EA
:100270000D9499060D9463060C94CE4D0C94F8558C
:100280000D944C0C0C942C3D0D9488210C94FA5533
:100290000D9467210C94B2850C94597E0C943A4FBE
:1002A0000C942FC10C9443C10D94551E0C944550D1
:1002B0000C9449750D9478210C9457860C9486C83B
:1002C0000D9452110C94846C0C94043D0C948FC8C2
:1002D0000C9433C50C94F0C50C9406C60C948FBDD9
:1002E0000C9498970C948F7E0D94541F0D94BD061A
:1002F0000C941EC50C94A9520C9481C80D94DE0B6D
:100300000C94E7740C9462860C94303D0C947C6CD5
:100310000C9459BF0C94A8F20D9480060C94B8501C
:100320000C94524D0C94266E0C945F8A0C9470863B
:100330000C942DC50C94DC550C948DF20C949A50B1
:100340000C944BC50C94F84C0C944BC10C941E8A25
:100350000C94E37D0C9423C10C943F4D0C948C863B
:100360000C949FC30C943FC10C94BF530C943EF665
:100370000C94D77D0D94440C0C947CC80D94791F7B
:100380000D94480C0C94114D0C94028A0D947B062C
:100390000D94C31F0D9485060C94085E0D94852161
:1003A0000C943BBF0C9424C50D9494060C942EF62B
:1003B0000C9436F60C94A2BD0D94301E0D94602161
:1003C0000C949D4D0D94A41D0C94DA7D0C942B4E31
:1003D0000C94DAF30C94D2890C94794E0C94343D3D
:1003E0000C94A0500C949C7F0C94C0740C9476C612
:1003F0000C9446F60C94558A0C9462BE0D94C61D5E
:100400000C9449C50C9439720C941B860C940056BC
:100410000C94FA4D0C94886D0C94BC740C94288A3E
:100420000C9426F60D94781E0C94A6F20C948486F7
:100430000C945C810D94F4450C94B3850D94592172
:100440000C943EC50C9468860C9440570D9474210E
:100450000C94FE550C94096C0C9408500C94BE50EE
:100460000D942F0C0C94E5F40C94AB7F0C94F08954
:100470000D946A210D949E1F0C94DC890D942F1FFE
:100480000C94ED550C943F3D0C94D27F0C944AC6CD
:100490000C9427500C94C8F30C946B4D0D943A11A6
:1004A0000C949A850C94D7890C9437C10C94927E45
:1004B0000C949C4F0C94283D0D9456210C943BC5F4
:1004C0000D94C01E0C94EF7F0C94378A0C943BC1A2
:1004D0000D94290A0C94E94F0C948E6F0C947A8633
:1004E0000C94BD4F0D941D060C94E0F30C94AC508D
:1004F0000D948F060C94844D0C947E860C9493C3BB
:100500000C9457C10C9491860C94F6550D9471215E
:100510000D946E210C942C4D0D94330C0C94768616
:100520000C948E5C0C94BBBD0C94F9F70C94C9BD73
:100530000C946AF20C94D87F0C942BC10C94DE5569
:100540000D940B1E0C946C860D947B210C94DE8C08
:100550000C945A860C94148A0C94A3C50C9447C12D
:100560000C9453BF0C9427C50C94C66B0D94632157
:100570000C944B8A0C9436500C94BD740C94114E10
:100580000D9475060C944D860D949B1E0C94D3C649
:100590000D949E060C942AC50C94153D0C940A8A61
:1005A0000C94734E0C9499C80D94E51E0D946F062F
:1005B0000C9447BF0C945E860D945D210C94B25050
:1005C0000D94F8440C947CBD0C94CFC50C94D9C503
:1005D0000D9425060D947D070C9475C50C94038627
:1005E0000C94286C0C94FA890C94A1E20C9421C50B
:1005F0000C9427C10C9487C30C9485500D947E21D4
:100600000C946AC10D9412060C94E6890C94D1C521
:100610000C94FC550C94CA5A0C943A3D0D94E61D6A
:100620000D94110B0D948A060C94A6500C9436C5AB
:100630000D947D080C94698A0D9482210C94B8F273
:100640000C94EF4D0C9488860C94F43C0C94C86B7D
:100650000C9428C60C9430C50D948D210C945386AF
:100660000C94A64D0C94418A0C94F27D0D942D06A9
:100670000C94CAF80C9402560C94203D0C944986B4
:100680000D94E71F0C9433C14E414E494E495459C5
:10069000494E46CDCCCC3D0AD7233C17B7D138774D
:1006A000CC2B329595E6241FB14F0A000020410063
:1006B00000C84200401C4620BCBE4CCA1B0E5AAEAD
:1006C000C59D7400407A10F35A00A0724E180900BC
:1006D00010A5D4E80000E87648170000E40B5402A7
:1006E0000000CA9A3B000000E1F5050000809698E2
:1006F00000000040420F000000A086010000001032
:100700002700000000E80300000000640000000073
:10071000000A00000000000100000000002C76D854
:1007200088DC674F0823DFC1DFAE59E1B1B796E53A
:10073000E3E453C63AE651997696E8E6C28426EB9E
:10074000898C9B62ED407C6FFCEFBC9C9F40F2BAB1
:10075000A56FA5F490055A2AF75C936B6CF9676D49
:10076000C11BFCE0E40D47FEF520E6B500D0ED909E
:100770002E0300943577050080841E080000204E6B
:100780000A000000C80C333333330F986E12831104
:1007900041EF8D2114893BE65516CFFEE6DB18D1DB
:1007A000844B381BF77C1D901DA4BBE424203284AD
:1007B000725E228100C9F124ECA1E53D27434F4D33
:1007C0004D554E49434154494F4E0044525952559C
:1007D0004E004552524F525300494E464F0045433A
:1007E000484F0047322F47332062616420706172A6
:1007F000616D65746572730A00536C6565702E2EA9
:100800002E004D65736820706F696E74206F75746B
:10081000206F662072616E67650A00436C69636BC6
:1008200020746F20526573756D652E2E2E004E6FED
:10083000204D6F76652E00456E642066696C6520DC
:100840006C6973740A00426567696E2066696C653D
:10085000206C6973740A004E6F206D656469610ACB
:1008600000286E6F2066696C652900437572726599
:100870006E742066696C653A20005344207072697A
:100880006E74696E67206279746520004E6F742003
:100890005344207072696E74696E670A0044656C17
:1008A0006574696F6E206661696C65642C204669A9
:1008B0006C653A200046696C652064656C657465FA
:1008C000643A002569792025696420256968202516
:1008D000696D20256973005072696E742074696DAA
:1008E000653A2000496E76616C69642050696E201B
:1008F0004D6F64650A0045202553006F666600440D
:10090000454255473A004D3131332053004265642A
:1009100020436F6F6C696E672E2E2E004265642037
:1009200048656174696E672E2E2E0053686D65658B
:1009300065426F74204F46462E004348414D424564
:10094000525F54454D504552415455524500424125
:1009500042595354455050494E4700415243530069
:100960004D4F54494F4E5F4D4F44455300544845F9
:10097000524D414C5F50524F54454354494F4E00E5
:100980004C4F4E475F46494C454E414D4500415501
:10099000544F5245504F52545F53445F5354415447
:1009A0005553005344434152440050524F4D50540C
:1009B0005F535550504F525400454D455247454E98
:1009C00043595F50415253455200434153455F4C98
:1009D000494748545F4252494748544E4553530093
:1009E000544F47474C455F4C494748545300534F79
:1009F0004654574152455F504F5745520042554962
:100A00004C445F50455243454E54004C4556454C6E
:100A1000494E475F44415441005A5F50524F42454E
:100A20000052554E4F5554004155544F4C45564574
:100A30004C005052494E545F4A4F420050524F476B
:100A400052455353004155544F5245504F52545FF5
:100A500054454D5000564F4C554D45545249430056
:100A600042494E4152595F46494C455F5452414EAE
:100A7000534645520053455249414C5F584F4E5FD3
:100A8000584F4646004649524D574152455F4E41E8
:100A90004D453A4D61726C696E20322E302E372EE4
:100AA0003220284A616E20323320323032312031F8
:100AB000393A34363A32372920534F555243455F3D
:100AC000434F44455F55524C3A68747470733A2FE3
:100AD0002F6769746875622E636F6D2F4D61726C3C
:100AE000696E4669726D776172652F4D61726C69CE
:100AF0006E2050524F544F434F4C5F56455253490E
:100B00004F4E3A312E30204D414348494E455F54B7
:100B10005950453A53686D656565426F7420455874
:100B20005452554445525F434F554E543A31205527
:100B30005549443A63656465326132662D343161EA
:100B4000322D343734382D396231322D63353563E7
:100B500036326633363766660A002F2F20004D3155
:100B6000343520533C696E6465783E206F7574207F
:100B70006F662072616E67652028302D31290A006A
:100B8000416363656C65726174696F6E3A205000F1
:100B90003F4A206F7574206F662072616E67652012
:100BA00028302E303120746F20302E33290A004631
:100BB000523A0020466C6F773A200050726F74658D
:100BC000637465642050696E0A0020643A002069ED
:100BD0003A0020703A006469730043290A00616298
:100BE0006C656420286D696E2074656D702000430B
:100BF0006F6C6420657874727564657320617265CA
:100C000020004D34323120696E636F7272656374F7
:100C100020706172616D65746572207573616765BE
:100C20000A004F666673657473204170706C696565
:100C300064004572723A20546F6F20666172210021
:100C4000546F6F206661722066726F6D20726566E8
:100C50006572656E636520706F696E740A00454544
:100C600050524F4D204F4B0A00446F6E65207072FA
:100C7000696E74696E672066696C650A004D373766
:100C8000004D333100DE07D907D207CB07BD07453A
:100C900072726F722077726974696E6720746F2048
:100CA000454550524F4D210A0053544F5050454432
:100CB0002E20005072696E7465722073746F7070AC
:100CC00065642064756520746F206572726F72733D
:100CD0002E2046697820746865206572726F7220D4
:100CE000616E6420757365204D39393920746F2029
:100CF000726573746172742E202854656D7065720C
:100D000061747572652069732072657365742E2035
:100D1000536574206974206166746572207265730E
:100D200074617274696E67290A004E6F20436865AA
:100D3000636B73756D2077697468206C696E6520CC
:100D40006E756D6265722C204C617374204C696EF7
:100D5000653A2000636865636B73756D206D697318
:100D60006D617463682C204C617374204C696E65EE
:100D70003A20004C696E65204E756D62657220697F
:100D800073206E6F74204C617374204C696E652003
:100D90004E756D6265722B312C204C617374204C42
:100DA000696E653A20004D31313000534420726540
:100DB0006164206572726F720A002121204B494CD8
:100DC0004C20636175736564206279204B494C4CFB
:100DD00020627574746F6E2F70696E0A0021212075
:100DE0004B494C4C206361757365642062792074B3
:100DF0006F6F206D75636820696E616374697665D5
:100E00002074696D65202D2063757272656E742083
:100E1000636F6D6D616E643A2000627573793A207C
:100E200070617573656420666F7220696E70757489
:100E30000A00627573793A20706175736564206683
:100E40006F7220757365720A00627573793A20704B
:100E5000726F63657373696E670A004D65646961DB
:100E60002052656D6F766564004D65646961204947
:100E70006E73657274656400506C656173652052B1
:100E800065736574005052494E5445522048414C98
:100E90005445440025533A202553004B494C4C45BA
:100EA000442E20005072696E7465722068616C7403
:100EB00065642E206B696C6C28292063616C6C65FD
:100EC00064210A00363726033C3D380E2E303E1290
:100ED0001A1C180AFF43090708440001473236204C
:100EE00043616E63656C6564004732362048656116
:100EF00074696E67204E6F7A7A6C650047323620CF
:100F000048656174696E6720426564005761697461
:100F1000696E6720666F72206865617475702E0A4D
:100F2000004669786564204C656E6774682050726D
:100F3000696D6500446F6E65205072696D696E67FA
:100F4000004D616E75616C207072696D696E672EFF
:100F50002E2E004C656176696E6720473236003F61
:100F600053706563696669656420582C5920636F06
:100F70006F7264696E617465206F7574206F66208E
:100F8000626F756E64732E0A003F28522965706582
:100F900061742076616C7565206E6F7420706C6171
:100FA000757369626C653B206D7573742062652092
:100FB0006174206C6561737420312E0A003F537098
:100FC00065636966696564206E6F7A7A6C65207402
:100FD000656D7065726174757265206E6F742070D6
:100FE0006C61757369626C652E0A003F53706563AE
:100FF00069666965642066696C616D656E742073ED
:10100000697A65206E6F7420706C61757369626CAB
:10101000652E0A003F5370656369666965642070D8
:1010200072696D65206C656E677468206E6F7420E0
:10103000706C61757369626C652E0A003F53706550
:10104000636966696564206E6F7A7A6C652073697E
:101050007A65206E6F7420706C61757369626C655F
:101060002E0A003F52657472616374696F6E204D81
:10107000756C7469706C696572206D75737420622B
:1010800065207370656369666965642E0A003F5365
:101090007065636966696564205265747261637422
:1010A000696F6E204D756C7469706C696572206E25
:1010B0006F7420706C61757369626C652E0A003FF5
:1010C000537065636966696564206C617965722037
:1010D000686569676874206E6F7420706C617573E1
:1010E00069626C652E0A0043292E0A003F53706521
:1010F000636966696564206265642074656D706506
:10110000726174757265206E6F7420706C61757396
:1011100069626C65202834302D00473236207374A4
:10112000617274696E672E2E2E0A004520737465F5
:1011300070732F6D6D005A2053746570732F6D6D31
:1011400000592053746570732F6D6D0058205374CF
:101150006570732F6D6D00496E6974004D343238BF
:10116000004A756E6374696F6E2044657600416352
:1011700063656C65726174696F6E0056656C6F6350
:101180006974790053657420486F6D65204F6666F9
:1011900073657473004E65787420436F726E657268
:1011A00000446F6E65004E657874004C6576656C22
:1011B000696E6720446F6E6521004E65787420501B
:1011C0006F696E74002569202F202575004732391C
:1011D00020563100436C69636B20746F2042656751
:1011E000696E00486F6D696E672058595A004C65EA
:1011F00076656C20436F726E65727300466164653C
:1012000020486569676874004C6576656C204265A6
:1012100064004C6F6164206D6D00556E6C6F61648D
:10122000206D6D0046696C2E204469612E004520BA
:10123000696E206D6DC2B3002008204661637400A2
:101240002008204D6178002008204D696E0041750E
:10125000746F74656D70005654726176204D696EBE
:1012600000566D696E00566D6178204500566D61BF
:1012700078205A00566D6178205900566D617820AB
:101280005800416D6178204500416D6178205A0019
:10129000416D6178205900416D6178205800412DE1
:1012A00054726176656C00412D526574726163748D
:1012B00000416363656C006563686F3A0045727254
:1012C0006F723A0042696C696E656172204C657696
:1012D000656C696E6720477269643A0A00486F74EA
:1012E000656E6420746F6F20636F6C640A005365D1
:1012F0006E64204D31303820746F20726573756DC7
:10130000650A0053656E64204D31303820746F20BB
:1013100068656174206E6F7A7A6C650A00496E7335
:101320006572742066696C616D656E7420616E64AF
:101330002073656E64204D3130380A004C4F5700E1
:1013400048494748004F4B004572726F723A20413E
:101350006C6C200020636F6E6E656374696F6E2E17
:101360002E2E200054657374696E672000544D431F
:1013700020434F4E4E454354494F4E204552524F05
:101380005200436F6E66696775726174696F6E00B3
:1013900043616E63656C0042696C696E65617220C1
:1013A0004C6576656C696E67004578747275646526
:1013B00072730053686D656565426F740032303238
:1013C000302D31302D313500546865726D6973747C
:1013D0006F727300426F61726420496E666F0050D5
:1013E00072696E74657220496E666F0053746F7017
:1013F000004368616E67652046696C616D656E7457
:10140000005072656865617420437573746F6D0078
:101410004368616E6765204D65646961004D3231D6
:101420000041626F7574205072696E746572004D70
:1014300036303020423000526573756D6520507231
:10144000696E74004E6F204D656469610054756E5D
:10145000650053746F70205072696E74005061752E
:101460007365205072696E7400496E666F20536315
:101470007265656E005374617274205072696E7487
:101480000043616E6E6F7420656E746572207375B3
:10149000626469723A2000022E2E00236465666938
:1014A0006E652044454641554C545F004B64200016
:1014B0004B6920004B702000504944204175746FE7
:1014C00074756E652066696E697368656421205065
:1014D000757420746865206C617374204B702C20C7
:1014E0004B6920616E64204B6420636F6E7374617E
:1014F0006E74732066726F6D2062656C6F77206901
:101500006E746F20436F6E66696775726174696F80
:101510006E2E680A00504944204175746F74756ED0
:1015200065206661696C6564212074696D656F75FD
:10153000740A000A20436C61737369632050494444
:10154000200A00204B643A2000204B693A200020FA
:101550004B703A20002054753A2000204B753A20F9
:1015600000206D61783A2000206D696E3A200020DD
:10157000643A200020626961733A20005049442097
:101580004175746F74756E652073746172740A00AE
:10159000504944204175746F74756E6520666169A9
:1015A0006C6564212054656D706572617475726537
:1015B00020746F6F20686967680A005049442041B1
:1015C00075746F74756E6500504944204175746F71
:1015D00074756E65206661696C6564212042616482
:1015E000206578747275646572206E756D626572BF
:1015F0000A004572723A207574663820666F6E7400
:10160000206E6F7420696E697469616C697A6564B3
:101610002E00000C0F00FE07022503BB017FFE0811
:10162000FE08FE05080806000040F0C88888987883
:1016300010050808060000C0F88888888888F80522
:1016400005050600012030F83020050808060000D6
:101650002070F820202020E00509090600FF2070F6
:10166000A8A8B888887020070505070001D86C363F
:101670006CD80509090600FFF8A88888888888A81A
:10168000F8050A0A0600FE205050505088A8A88885
:101690007003030306000340A040FFFFFFFFFFFFAE
:1016A000FFFFFFFFFFFFFFFFFFFFFFFFFFFFFFFF4A
:1016B0000000000605FF0107070602008080808009
:1016C000800080030303060105A0A0A0050606060E
:1016D000000050F85050F8500509090600FF20702E
:1016E000A8A07028A87020050707060000C8C81029
:1016F0002040989805070706000040A0A040A89049
:10170000680103030602058080800309090601FFC2
:101710002040408080804040200309090601FF806E
:10172000404020202040408005070706000020A8F8
:10173000702070A8200505050600012020F8202053
:101740000203030601FFC04080050101060003F803
:10175000020202060100C0C00507070600000810CB
:101760001020404080050707060000708898A8C830
:10177000887003070706010040C040404040E00574
:101780000707060000708808102040F805070706C4
:101790000000F808103008887005070706000010E0
:1017A000305090F81010050707060000F880F00888
:1017B000088870050707060000304080F0888870B0
:1017C000050707060000F80810102020200507076D
:1017D000060000708888708888700507070600007A
:1017E00070888878081060020505060100C0C000F6
:1017F000C0C00206060601FFC0C000C0408003054D
:10180000050601012040804020050303060002F880
:1018100000F8030505060101804020408005070708
:101820000600007088102020002005070706000031
:101830007088B8A8B880700507070600007088880F
:10184000F8888888050707060000F048487048486F
:10185000F005070706000070888080808870050703
:1018600007060000F04848484848F005070706000A
:1018700000F88080F08080F8050707060000F880F7
:1018800080F08080800507070600007088808098BF
:101890008870050707060000888888F8888888030C
:1018A0000707060100E04040404040E0050707060A
:1018B000000038101010109060050707060000881F
:1018C00090A0C0A090880507070600008080808057
:1018D0008080F805070706000088D8A888888888CF
:1018E0000507070600008888C8A8988888050707A4
:1018F0000600007088888888887005070706000041
:10190000F08888F0808080050707060000708888CE
:1019100088A89068050707060000F08888F0A09066
:101920008805070706000070888070088870050722
:1019300007060000F82020202020200507070600C9
:1019400000888888888888700507070600008888CE
:10195000888850502005070706000088888888A8D6
:10196000A850050707060000888850205088880581
:10197000070706000088885020202020050707065A
:101980000000F80810204080F80309090601FFE074
:1019900080808080808080E005070706000080400E
:1019A00040201010080309090601FFE02020202034
:1019B000202020E0050303060005205088050101D2
:1019C0000600FEF803030306010580402005050517
:1019D00006000070087888780507070600008080F8
:1019E000F0888888F0050505060000708080887002
:1019F0000507070600000808788888887805050527
:101A00000600007088F08070050707060000304867
:101A100040E04040400507070600FE70888888784F
:101A200008700507070600008080F0888888880312
:101A300007070601004000C0404040E004090906D5
:101A400001FE10003010101010906005070706000E
:101A50000080808890E09088030707060100C0405E
:101A600040404040E0050505060000D0A8A8A8A811
:101A7000050505060000B0C888888805050506002C
:101A80000070888888700507070600FEF08888883F
:101A9000F080800507070600FE78888888780808A7
:101AA000050505060000B0C8808080050505060014
:101AB0000078807008F00507070600002020F82055
:101AC0002020180505050600008888889868050507
:101AD0000506000088888850200505050600008856
:101AE00088A8A850050505060000885020508805E4
:101AF00007070600FE8888885020408005050506F7
:101B00000000F8102040F80309090601FF204040BA
:101B10004080404040200109090602FF808080800B
:101B200080808080800309090601FF8040404020BA
:101B30004040408005030306000248A890FF456E20
:101B4000636C6F73757265004D6F76696E672E2ECC
:101B50002E004D6F7665205A004D6F7665202573F7
:101B60006D6D004D6F766520302E316D6D004D6FBF
:101B7000766520316D6D004D6F76652031306D6D6D
:101B8000004D6F76652041786973004578747275F1
:101B9000646572004D6F76652059004D6F76652043
:101BA000580000002100240027002A002D003000EA
:101BB000330001010000040107010A0100000A0BC3
:101BC00002090C0D0E0807030401000000000000CC
:101BD0000000000000000000000000000000000005
:101BE00000000000000000001211100000000000C2
:101BF00000000000000000000000000000000000E5
:101C00000000000020002300260029002C002F00E7
:101C1000320000010000030106010901000022005A
:101C2000250028002B002E003100340002010000A6
:101C3000050108010B010505050507050808080849
:101C4000020202020A0A0808040404040101010154
:101C5000010101010303030303030303040707074F
:101C60000C0C0C0C0C0C0C0C0202020206060606F4
:101C7000060606060B0B0B0B0B0B0B0B01021020C1
:101C800020080810204010204080020102010804B2
:101C90000201010204081020408080402010080446
:101CA000020180040201804020100804020108049F
:101CB00002010102040810204080010204081020E3
:101CC0004080000080400000004000000000000054
:101CD000A0410000A041000000410202040000A059
:101CE000400000A0400000004000809D430000989C
:101CF000430000C843FFFFFF00809F43000099435B
:101D00000000C8435761726E696E673A20486F6D74
:101D1000696E672042756D702044697669736F72D1
:101D2000203C20310A0053657474696E6773205338
:101D3000746F7265640053657474696E67732053C1
:101D4000746F7265642028000000000000000060CD
:101D50000000000000FC00000FF00000000007E0A1
:101D60000000000001861FC0187000000000006025
:101D70003C0C000001830C6010300000000000608B
:101D80003C0C000001830C3030300000000000608B
:101D9000000C000000030C18300000000000006080
:101DA000003F0F3C00030C0C6001DF0FE0FE006001
:101DB0001C1C061800060C0C6000F3183183006030
:101DC0000C0C0318001E0C0C6000E030398300601E
:101DD0000C0C033000030C0C6000C030380F0060A6
:101DE0000C0C033000018C0C6000C03FF8FB00605D
:101DF0000C0C033000018C0C6030C030018300609B
:101E00000C0C01F001818C0C6030C030018300604B
:101E10000C0C00E001818C183030C0183183006058
:101E20000C0C40E001838C301860C00C6187C0E06E
:101E30001C0CC06000C30C600FC3F007C0FFC7FCE0
:101E40007F0781C0007E1FC000000000000000006E
:101E5000000007000000000000000000000000007B
:101E6000000007000000000001FFFFFFFFFFFFFF71
:101E7000FFFFFFFFFFFF0FFFFFFFFFFFFFFFFFFF62
:101E8000FFFFFFFF1E000000000000000000000731
:101E9000FFFF380000000000000000000003FFFF0B
:101EA000700000000000000000000001FFFF600063
:101EB00000000000000000000000FFFF60000000C4
:101EC00000000000000000007FFFC00000000000D4
:101ED0000000007800003FFFC00FC0FC00000000C1
:101EE000007818001FFFC03FE1FF000000000078ED
:101EF0003C000FFFC07FF3FF8000000000783C0033
:101F000007FFC0FFFFFFC000000000783C0003FF98
:101F1000C1F87F87E00000000078000001FFC1F0F9
:101F20003F03E00000000078000000FFC1E01E0158
:101F3000E01F0003E0783C03F07FC1E01E01E07F7A
:101F4000C00FF8783C07FC3FC1E01E01E1FFE01F35
:101F5000FC783C0FFE1FC1E01E01E3FFF03FFE785E
:101F60003C1FFE0FC1E01E01E3F3F83F3E783C3F0B
:101F70003F07C1E01E01E7E0FC7C1F783C3E1F07E5
:101F8000C1E01E01E7C07C7C0F783C3C0F03C1E040
:101F90001E01E7807C780F783C3C0F03C1E01E01F6
:101FA000E7803C7800783C3C0F03C1E01E01E780ED
:101FB0003C7800783C3C0F03C1E01E01E7803C7890
:101FC00000783C3C0F03C1E01E01E7C03C7800787C
:101FD0003C3C0F03C1E01E01E3E03C78007C3C3C4C
:101FE0000F03C1E01E01E3FF3FF8007FBC3C0F037D
:101FF000C1E01E01E1FF3FF8003FBFFC0F03C1E05D
:102000001E01E0FF3FF8001FBFFC0F03C1E01E01EF
:10201000E07F3FF8000FBFFC0F03600000000000EE
:102020000000000000000007600000000000000049
:10203000000000000006700000000000000000002A
:102040000000000E3800000000000000000000004A
:10205000001C1E00000000000000000000000078CE
:102060000FFFFFFFFFFFFFFFFFFFFFFFFFF001FF7D
:10207000FFFFFFFFFFFFFFFFFFFFFF8070012C014D
:1020800090012701B0012201C0011D01F0011801DA
:102090001002130130020E016002090190020401D6
:1020A000C002FF000003FA004003F5008003F000C7
:1020B000D003EB002004E6007004E100E004DC0043
:1020C0004005D700C005D2004006CD00D006C800AC
:1020D0008007C3003008BE00F008B900C009B40092
:1020E000B00AAF00B00BAA00D00CA500000EA000F3
:1020F000500F9B00C01096005012910000148C00ED
:10210000C0158700B0178200B0197D00D01B780081
:10211000001E730040206E0090226900F0246400CD
:1021200040275F0090295A00E02B5500102E5000E8
:1021300020304B0010324600E033410090353C0027
:102140001037370070383200A0392D00B03A28001F
:10215000A03B2300603C1E00103D1900903D140080
:10216000103E0F00703E0A00C03E0500003F000018
:10217000403FFBFF803FF6FFC03FF1FF6874747083
:10218000733A2F2F6D61726C696E66772E6F72676E
:1021900000322E302E372E32002020506C616E6EB1
:1021A000657242756666657242797465733A20009D
:1021B0002046726565204D656D6F72793A20004347
:1021C0006F6D70696C65643A204A616E203233200D
:1021D000323032310A00204C6173742055706461D2
:1021E0007465643A20323032302D31302D31352053
:1021F0007C20417574686F723A20287072696E7421
:102200006564736F6C69642E636F6D2C2043522D6F
:10221000313053290A00322E302E372E320A004D2B
:1022200061726C696E0020536F667477617265200D
:1022300052657365740A00205761746368646F6740
:102240002052657365740A002042726F776E206FAA
:1022500075742052657365740A0020457874657240
:102260006E616C2052657365740A00506F776572F9
:1022700055700A006175746F25632E670047323709
:10228000004D31303031006572726F7220777269A3
:1022900074696E6720746F2066696C650A00446F0C
:1022A0006E6520736176696E672066696C652E0ABB
:1022B000004D323900456E6473746F70730025539E
:1022C00020256320256320256320256300656E6437
:1022D00073746F7073206869743A20002053697AB0
:1022E000653A200043616E6E6F74206F70656E20DA
:1022F0007375626469722000534420496E697420CA
:102300004661696C0053442063617264206F6B0AFC
:10231000006F70656E526F6F74206661696C6564E2
:102320000A00766F6C756D652E696E697420666142
:10233000696C65640A004E6F2053442063617264C7
:102340000A004D3233202573006F70656E20666180
:10235000696C65642C2046696C653A200046696C9E
:10236000652073656C65637465640A0046696C6515
:10237000206F70656E65643A2000454E44205355C9
:1023800042524F5554494E450A002220706F730047
:102390002220706172656E743A2200535542524F8A
:1023A0005554494E452043414C4C20746172676539
:1023B000743A220053756263616C6C204F766572CB
:1023C000666C6F77004578636565646564206D6150
:1023D0007820535542524F5554494E4520646570FC
:1023E00074683A310A0057726974696E6720746FB5
:1023F0002066696C653A200020746F6F206C6F6EE8
:102400006720657874727573696F6E207072657677
:10241000656E7465640A0020636F6C64206578746F
:10242000727573696F6E2070726576656E7465641F
:102430000A00DB0FC93F45BCDA3F8FB30240FCF016
:10244000274056946140FE4B9B4084A5D840E02332
:102450001841346A5641E859974164DBD5416E27EB
:102460001742B4B75542CE1A9742C8AED542B58886
:102470005A43D40684BFA65FA7BF7443E0BF10B120
:102480001AC01C2C58C0E8F697C0B849D6C04E4EAA
:1024900017C124D355C1802497C1A0B5D5C1121A44
:1024A00017C244AE55C2781797C26CACD5C26788C4
:1024B0005AC320520020204D3930360020204D359F
:1024C00036392053310020204D363033200020553E
:1024D0000046696C616D656E74206C6F61642F7568
:1024E0006E6C6F6164206C656E677468733A00444B
:1024F0007269766572207374657070696E67206D9D
:102500006F64653A00205430204500537465707044
:102510006572206472697665722063757272656E89
:10252000743A0020204D333031205000504944206F
:1025300073657474696E67733A0020460020480022
:1025400020204D3134352053004D6174657269612E
:102550006C2068656174757020706172616D65745E
:102560006572733A002020473239205720490020F5
:10257000204D3432302053004175746F2042656421
:10258000204C6576656C696E673A0020204D3230CC
:1025900036205800486F6D65206F66667365743A23
:1025A00000204A0020204D32303520420041647620
:1025B000616E6365643A20423C6D696E5F73656766
:1025C0006D656E745F74696D655F75733E20533C15
:1025D0006D696E5F66656564726174653E20543C2A
:1025E0006D696E5F74726176656C5F666565647255
:1025F0006174653E204A3C6A756E635F6465763E31
:102600000020540020204D323034205000416363BC
:10261000656C65726174696F6E2028756E6974737C
:102620002F7332293A20503C7072696E745F616377
:1026300063656C3E20523C726574726163745F61C5
:102640006363656C3E20543C74726176656C5F61B7
:102650006363656C3E0020204D3230312058004DC0
:102660006178696D756D20416363656C6572617435
:10267000696F6E2028756E6974732F7332293A0062
:1026800020204D3230332058004D6178696D756DD2
:10269000206665656472617465732028756E69745F
:1026A000732F73293A00537465707320706572201C
:1026B000756E69743A0020440020204D323030207D
:1026C00053002044697361626C65640A0046696C5A
:1026D000616D656E742073657474696E67733A001A
:1026E00020204D3134392043203B20556E697473CE
:1026F00020696E2043656C736975730A0020286D2C
:102700006D29002020473231202020203B20556EAB
:1027100069747320696E206D6D0024F4D43050C349
:102720008E20C2A24017828B7011127A910D816C9B
:10273000D90AA861E108C7586607615143061E4BD4
:102740005D05C145A7041A411104093D980371397B
:1027500031034036DB0265339102D4305402802EBF
:102760001D02632CEE01752AC501B028A0011027B7
:1027700081018F2564012B244B01E0223401AC211F
:102780001F018D200D01801FFC00841EED00971D90
:10279000DF00B81CD200E61BC600201BBC00641A78
:1027A000B200B219A8000A19A0006A189900D1173E
:1027B000910040178B00B516840031167E00B315CA
:1027C00079003A157300C7146F0058146A00EE13AD
:1027D00066008813630025135E00C7125B006C124D
:1027E000570015125400C111510070114F002111F2
:1027F0004B00D61049008D104700461044000210CF
:102800004200C00F4000800F3E00420F3C00060F08
:102810003B00CB0E3800930E37005C0E3500270EC0
:102820003400F30D3200C10D3100900D3000600D09
:102830002E00320D2D00050D2C00D90C2B00AE0CF6
:102840002900850C29005C0C2700350C27000E0C94
:102850002600E80B2400C40B2400A00B23007D0BF2
:1028600023005A0B2100390B2100180B2000F80A15
:102870001F00D90A1E00BB0A1E009D0A1D00800A07
:102880001D00630A1C00470A1B002C0A1B00110ACA
:102890001A00F7091A00DD091900C4091900AB096B
:1028A0001900920917007B091800630917004C09E9
:1028B000160036091600200916000A091500F50849
:1028C0001500E0081400CC081400B8081400A4088F
:1028D0001400900813007D0812006B0813005808BC
:1028E00012004608120034081100230811001208D3
:1028F000110001081100F0071000E0071000D007D8
:102900001000C0071000B0070F00A10710009107CA
:102910000E0083070F0074070F0065070E005707AE
:102920000E0049070E003B070D002E070E00200782
:102930000D0013070D0006070D00F9060C00ED064B
:102940000D00E0060C00D4060C00C8060C00BC0606
:102950000C00B0060C00A4060B0099060C008D06B6
:102960000B0082060B0077060B006C060B0061065D
:102970000A0057060B004C060A0042060A003806F9
:102980000A002E060A0024060A001A060A0010068B
:10299000090007060A00FD050900F4050900EB051A
:1029A0000900E2050900D9050900D0050900C7059D
:1029B0000900BE050900B5050800AD050800A5051C
:1029C00009009C050800940508008C050800840592
:1029D00008007C050800740508006C050700650503
:1029E00008005D050700560508004E05070047056D
:1029F00007004005080038050700310507002A05D3
:102A00000700230507001C050600160507000F0533
:102A100007000805060002050700FB040600F50490
:102A20000700EE040600E8040600E2040700DB04E9
:102A30000600D5040600CF040600C9040600C3043E
:102A40000600BD040600B7040600B1040500AC048E
:102A50000600A6040600A00405009B0406009504D9
:102A60000500900406008A04050085040500800422
:102A700006007A04050075040500700405006B0467
:102A8000050066040500610405005C0405005704A8
:102A90000500520405004D040500480405004304E8
:102AA00005003E0404003A04050035040500300426
:102AB00004002C04050027040400230405001E0460
:102AC00004001A04040016040500110404000D0497
:102AD0000400090405000404040000040400FC03CD
:102AE0000400F8030400F4030400F0030400EC0302
:102AF0000400E8030400E4030400E0030400DC0332
:102B00000400D8030400D4030400D0030400CC0361
:102B10000400C8030300C503030024F404D9201BE8
:102B2000C40C5C0E9804C4095F0265077101F405CA
:102B3000F900FB04B30048048700C103690058038F
:102B4000550003034500BE023A00840231005302DF
:102B50002A002902250004022000E4011C00C8010B
:102B60001900AF01170098011400840113007101CE
:102B700010006101100051010E0043010D003601EB
:102B80000B002B010B0020010B00150109000C01AB
:102B9000090003010800FB000800F3000800EB0037
:102BA0000700E4000600DE000600D8000600D200A0
:102BB0000600CC000500C7000500C2000500BD00EE
:102BC0000400B9000400B5000400B1000400AD0029
:102BD0000400A9000400A5000300A20003009F0058
:102BE00004009B000300980003009500020093007E
:102BF0000300900003008D0002008B00030088009A
:102C000002008600020084000300810002007F00B1
:102C100002007D0002007B000200790002007700C4
:102C200001007600020074000200720001007100D1
:102C300002006F0002006D0001006C0002006A00DB
:102C400001006900020067000100660001006500E4
:102C500001006400020062000100610001006000E8
:102C600001005F0002005D0001005C0001005B00EC
:102C700001005A00010059000100580001005700EE
:102C800001005600010055000100540001005300EE
:102C900000005300010052000100510001005000EB
:102CA00001004F0001004E0000004E0001004D00E9
:102CB00001004C0001004B0000004B0001004A00E5
:102CC00001004900010048000000480001004700E1
:102CD00001004600000046000100450000004500DC
:102CE00001004400010043000000430001004200D5
:102CF00000004200010041000000410001004000CE
:102D000001003F0000003F0001003E0000003E00C7
:102D100001003D0000003D0001003C0000003C00BF
:102D200000003C0001003B0000003B0001003A00B5
:102D300000003A00010039000000390001003800AD
:102D400000003800000038000100370000003700A4
:102D5000010036000000360000003600010035009A
:102D60000000350000003500010034000000340090
:102D70000000340001003300000033000000330085
:102D8000010032000000320000003200010031007A
:102D90000000310000003100010030000000300070
:102DA0000000300001002F0000002F0000002F0065
:102DB00000002F0001002E0000002E0000002E0059
:102DC00001002D0000002D0000002D0000002D004E
:102DD00001002C0000002C0000002C0000002C0042
:102DE00001002B0000002B0000002B0000002B0036
:102DF00001002A0000002A0000002A0000002A002A
:102E0000010029000000290000002900000029001D
:102E10000000290001002800000028000000280010
:102E20000000280000002800010027000000270003
:102E300000002700000027000000270001002600F6
:102E400000002600000026000000260000002600EA
:102E500001002500000025000000250000002500DD
:102E600000002500000025000100240000002400CF
:102E700000002400000024000000240001002300C2
:102E800000002300000023000000230000002300B6
:102E900000002300000023000100220000002200A7
:102EA000000022000000220000002200000022009A
:102EB000010021000000210000002100000021008D
:102EC000000021000000210000002100010020007E
:102ED0000000200000002000000020000000200072
:102EE00000002000000020000000200001001F0062
:102EF00000001F0000001F0000001F0000001F0056
:102F000000001F0000001F0001001E0000001E0046
:102F100000001E0000001E000000043700001E29F3
:102F20000000511B00005810000010090000CC04E4
:102F3000000078020000410100004C6F61642053E2
:102F4000657474696E67730053746F72652053659E
:102F50007474696E677300416476616E63656420A2
:102F600053657474696E677300554E4C4F4144202D
:102F700046494C414D454E540046494C414D454E05
:102F800054204348414E47450046616E20537065CA
:102F9000656400526573746F72652044656661757F
:102FA0006C74730050726568656174202420436FEF
:102FB0006E66004D37303220542564004D36303077
:102FC00020423020542564004D373032203B2564A8
:102FD000004D3730312054256400436F6E74696EA4
:102FE0007565005075726765206D6F72650052459A
:102FF00053554D45204F5054494F4E533A0050526F
:10300000494E54205041555345440020204E6F7A7C
:103010007A6C653A2000313230004245443A20450E
:1030200050434F53203130304B0052756E61776101
:10303000792057617463683A204F4E004D617820C3
:1030400054656D7000323635004D696E2054656DE3
:10305000700045313A204550434F53203130304BBA
:10306000005053550047656E657269630050726F7A
:10307000746F636F6C00312E3000426175640031F3
:10308000313532303000437265616C697479334494
:103090002052414D5053005061726B696E672E2E65
:1030A0002E0000005761697420666F720066696CBB
:1030B000616D656E74206368616E676500746F2072
:1030C0007374617274005761697420666F72006670
:1030D000696C616D656E7420756E6C6F6164000063
:1030E0004E6F7A7A6C652068656174696E6700500E
:1030F0006C6561736520776169742E2E2E00005017
:103100007265737320627574746F6E00746F2068DB
:10311000656174206E6F7A7A6C650000496E736524
:1031200072742066696C616D656E7400616E6420F6
:10313000707265737320627574746F6E00746F20A3
:10314000636F6E74696E7565005761697420666F90
:10315000720066696C616D656E74206C6F616400ED
:1031600000507265737320427574746F6E00746FD3
:1031700020726573756D65207072696E74000057FA
:1031800061697420666F72207072696E7400746F6A
:1031900020726573756D652E2E2E0000576169745F
:1031A00020666F720066696C616D656E7420707563
:1031B0007267650000667265736800646F696E67A8
:1031C000004E6F77200002496E76616C696420655D
:1031D000787472756465720A0020573A007C3C3E30
:1031E0005E2B3D3F2F5B5D3B2C2A225C00486F6DC0
:1031F000696E67204661696C6564006F70656E007A
:10320000545249474745524544007A5F6D696E0004
:10321000795F6D696E00785F6D696E005265706FE1
:103220007274696E6720656E6473746F7020737456
:10323000617475730A00453100626564002C207367
:10324000797374656D2073746F70706564212048A4
:1032500065617465725F49443A200048656174692C
:103260006E67204661696C65640048656174696ECB
:1032700067206661696C6564004D313132205368A6
:103280007574646F776E00202D20496E76616C69CD
:1032900064206578747275646572206E756D626500
:1032A0007220210A00544845524D414C2052554E3F
:1032B0004157415900546865726D616C2052756EBA
:1032C00061776179004572723A204D415854454DFD
:1032D00050004D415854454D5020747269676765E0
:1032E000726564004572723A204D494E54454D5006
:1032F000004D494E54454D502074726967676572A0
:103300006564000A0A0020205A5F4D494E3A0020A9
:1033100020595F4D494E3A002020585F4D494E3AA2
:1033200000202F002042403A0020403A00446F6EB7
:10333000652E0A0050756C73696E67202020005559
:103340006E746F75636865642000534552564F2054
:103350006E6F74207365742075702E0A0057617447
:103360006368696E672070696E730A00656E6473C6
:10337000746F70206D6F6E69746F722000204D390C
:103380003220580020204D61783A200020204D69DD
:103390006E3A2000536F667420656E6473746F70AC
:1033A000733A20007370726561644379636C6500E1
:1033B000737465616C746843686F7000206472692F
:1033C000766572206D6F64653A09002064726976D3
:1033D00065722063757272656E743A200020496EC2
:1033E00076616C696420657874727564657220001A
:1033F0004F6666004F6E00544D43204472697665F7
:1034000072730046616E205370656564207E004DC6
:1034100061696E00537465616C746843686F7020F5
:10342000456E61626C6564005374657070696E67A7
:10343000204D6F6465004472697665722043757231
:1034400072656E7400436F6E74726F6C00426162DD
:103450007973746570205A00466C6F77001FE02006
:1034600010201020101020102020102010303008C4
:1034700040048003001FE03FF03FF03FF01FE01FDB
:10348000E03FF03FF03FF00FC0078003003FFFF048
:1034900038007030FC3020FC102078102030102CC8
:1034A00000D02E31D02F7BD02F7BD02E31D02C00CE
:1034B000D020301020781020FC1030FC3038007004
:1034C0003FFFF03FFFF03800703186302387102730
:1034D00087902F87D02F03D02030102078102078AD
:1034E000102030102F03D02F87D0278790238710EC
:1034F0003186303800703FFFF01FFFF81FFFF804DF
:1035000010400208200208200410400820801041CA
:10351000001041000820800410400000001FFFF848
:103520001FFFF83DF00238F04488064510808802FD
:10353000450080F002448080A3F244608090024401
:10354000108090024410448802451039CC0739E0BD
:103550000000000000003870E00000448910000006
:10356000048910000018891000000489100000046C
:103570008910000004891000004489100000387090
:10358000E0002568753A25303268750025303268CC
:10359000753A253032687500202020202020200038
:1035A0004261636B004D6F74696F6E004D3834007B
:1035B00054656D70657261747572650041425300A7
:1035C000504C410050726568656174202400486F5A
:1035D00074656E6420746F6F20636F6C640050724A
:1035E0006F636565640044697361626C6520537440
:1035F000657070657273004175746F20486F6D65FA
:103600000047323800507265686561742024204597
:103610006E640050726568656174202420426564A0
:1036200000436F6F6C646F776E00C035BC353F0030
:10363000496E697469616C697A6520454550524FDD
:103640004D005072696E742041626F72746564003F
:103650004D323520500A4D32340050617573696E19
:10366000672E2E2E00454550524F4D2056657273E1
:10367000696F6E204572726F7200454550524F4D12
:1036800020496E646578204572726F72004545501E
:10369000524F4D20435243204572726F720049676A
:1036A0006E6F726500446966663A2020200046729B
:1036B0006F6D5374703A00537465707065723A00A0
:1036C000556E4C6576656C3A004C6576656C656444
:1036D0003A005261773A20202020000A4C6F676937
:1036E00063616C3A00436F756E7420453A00436124
:1036F000703A00656E7175657565696E67202200A8
:103700006F6B00526573656E643A200045305F53FD
:10371000455249414C5F52585F50494E0045305F19
:1037200053455249414C5F54585F50494E005A5FCF
:1037300053455249414C5F52585F50494E005A5FC1
:1037400053455249414C5F54585F50494E00595FB0
:1037500053455249414C5F52585F50494E00595FA2
:1037600053455249414C5F54585F50494E00585F91
:1037700053455249414C5F52585F50494E00585F83
:1037800053455249414C5F54585F50494E005A5F6F
:1037900053544F505F50494E005A5F535445505F49
:1037A00050494E005A5F4D494E5F50494E005A5F96
:1037B000454E41424C455F50494E005A5F44495284
:1037C0005F50494E00595F53544F505F50494E006F
:1037D000595F535445505F50494E00595F4D494E13
:1037E0005F50494E00595F454E41424C455F50493C
:1037F0004E00595F4449525F50494E00585F535440
:103800004F505F50494E00585F535445505F5049E8
:103810004E00585F4D494E5F50494E00585F454E2F
:1038200041424C455F50494E00585F4449525F50F9
:10383000494E00535549434944455F50494E005352
:103840004552564F335F50494E00534552564F3202
:103850005F50494E00534552564F315F50494E001C
:10386000534552564F305F50494E00534453530016
:1038700053445F4445544543545F50494E005241C0
:103880004D50535F44395F50494E0052414D5053A3
:103890005F44385F50494E0052414D50535F4431B0
:1038A000305F50494E004D4F534645545F445F5082
:1038B000494E004D4158363637355F53535F5049B6
:1038C0004E004C45445F50494E004C43445F5049C4
:1038D0004E535F5253004C43445F50494E535F4533
:1038E0004E41424C45004C43445F50494E535F4467
:1038F00034004B494C4C5F50494E004845415445BB
:10390000525F4245445F50494E004845415445523C
:103910005F305F50494E0046414E315F50494E0086
:1039200046414E5F50494E0045315F535445505F0C
:1039300050494E0045315F454E41424C455F50492C
:103940004E0045315F4449525F50494E0045315F5A
:1039500043535F50494E0045305F535445505F50CC
:10396000494E0045305F454E41424C455F50494EFF
:103970000045305F4449525F50494E00455F4D5508
:1039800058325F50494E00455F4D5558315F5049A0
:103990004E00455F4D5558305F50494E00444F47EB
:1039A0004C43445F53434B00444F474C43445F4DAB
:1039B0004F53490042544E5F454E430042544E5FC0
:1039C000454E320042544E5F454E3100424545500F
:1039D00045525F50494E004156525F53535F504924
:1039E0004E004156525F53434B5F50494E00415683
:1039F000525F4D4F53495F50494E004156525F4D03
:103A000049534F5F50494E0054454D505F42454425
:103A10005F50494E0054454D505F315F50494E0054
:103A200054454D505F305F50494E0046494C574910
:103A30004454485F50494E00545844300052584452
:103A4000300050574D3A202025346400202020209B
:103A5000434F4D002020206E6F6E2D7374616E6495
:103A60006172642050574D206D6F646500202020E6
:103A7000636F6D7061726520696E746572727570C6
:103A80007420656E61626C6564002020206F76652D
:103A900072666C6F7720696E7465727275707420CF
:103AA000656E61626C6564002020202054494D538E
:103AB0004B00423A2000413A20002020202054436D
:103AC0004352002020202043533A20002020202071
:103AD00057474D3A20002020202054494D455200A0
:103AE00020697320616C736F207469656420746F42
:103AF00020746869732070696E0054494D455231D5
:103B000043000A202E002020506F72743A200020BB
:103B10002020416E616C6F6720696E203D20253545
:103B20006C64003C756E757365642F756E6B6E6F9B
:103B3000776E3E004F7574707574203D2000496E9D
:103B400070757420203D200070726F746563746519
:103B50006420002028412532642920200025336478
:103B6000200050494E3A20004700480000008800DD
:103B70008A008C00B300B400000098009A009C00FA
:103B8000A800AA00AC0028012A012C01440045002D
:103B90006E00800081006F00B000B10070009000E6
:103BA00091007100A000A1007200200121017300AA
:103BB0003D3A0001383A01012B3A3B00203A4300DC
:103BC000153A4500083A4400FB393201EE39330119
:103BD000E2393401D7393501CC392501C439110115
:103BE000BC391701B4392301A83933019D39340197
:103BF0009239280187392A017C392C0171391C013D
:103C00006339180157391A014D392C014239220103
:103C100034391E01283924012039090117390701D7
:103C20000A390A01FB380801F2382901E63819017E
:103C3000D6381D01CA381B01C2380D01B338420104
:103C4000FF393201A6380701F239330198380A01E9
:103C50008B3808017E380901E639340170383101AA
:103C60006B38350160380B01553806014A380501BB
:103C70003F380401BB38350133380C01293837018E
:103C80001C3826011238030107383601FC370301BE
:103C9000F2373D01E5373801DB370E01D0373C0103
:103CA000C5370E01BB373001AE373E01A4371201D4
:103CB00099372E018E3712017E3728016E373F016A
:103CC0005E373B014E3740013E372A012E37410116
:103CD0001D372C010C3742012062797465733B203B
:103CE00063726320004E6F20454550524F4D2E0A9F
:103CF00000454550524F4D206461746173697A6587
:103D0000206572726F722E0A002073746F72656480
:103D10002073657474696E67732072657472696567
:103D2000766564202800202863616C63756C61747B
:103D3000656429210A0020213D2000454550524F4D
:103D40004D20435243206D69736D61746368202D6B
:103D5000202873746F726564292000496E64657849
:103D60003A200044494749504F5453204C6F6164F6
:103D700065640A0044494749504F5453204C6F61D1
:103D800064696E670A00204D61726C696E3D563839
:103D900032290A00454550524F4D207665727369AD
:103DA0006F6E206D69736D6174636820284545509E
:103DB000524F4D3D0048617264636F6465642044F6
:103DC000656661756C742053657474696E677320E1
:103DD0004C6F616465640A003B200000401C450094
:103DE000401C450000C8420000C8410000A042003D
:103DF00000A0420000C8430000BE42F4010000F4ED
:103E000001000064000000881300005072696E74A5
:103E10002066726F6D204D65646961005072696E35
:103E2000742050617573656400486F6D652025735B
:103E30002573257320466972737400220A00556E3B
:103E40006B6E6F776E20636F6D6D616E643A2022CA
:103E50000053686D656565426F74205265616479D1
:103E60002E005072696E74696E672E2E2E00205AD5
:103E70003A0020593A004F46460A004661646520E0
:103E80004865696768742000426564204C65766502
:103E90006C696E6720004661696C656420746F20F0
:103EA000656E61626C6520426564204C6576656C68
:103EB000696E670A00496E76616C6964206D65738E
:103EC000682E0A00477269642070726F62696E67BB
:103ED00020646F6E652E0A0069646C650A00206FAD
:103EE000662000706F696E7420004D616E75616CA4
:103EF0002047323920004D616E75616C20473239A0
:103F00002061626F727465640A002028445259521D
:103F1000554E2900473239204175746F204265643F
:103F2000204C6576656C696E67003F20284C2C52EA
:103F30002C462C4229206F7574206F6620626F75A5
:103F40006E64732E0A003F2856296572626F73658E
:103F5000206C6576656C20696D706C617573696243
:103F60006C652028302D34292E0A00426164205AC5
:103F70002076616C75650A004E6F2062696C696E0F
:103F800065617220677269640A0020436F756E7400
:103F900020583A001A02E00211241FBECFEFD1E2EE
:103FA000DEBFCDBF00E00CBF13E0A0E0B2E0EEE367
:103FB000F1EB02E00BBF02C007900D92A037B107F2
:103FC000D9F726E1A0E7B3E001C01D92A33CB207F8
:103FD000E1F71FE1CBECDFE100E006C0219701092A
:103FE000802FFE010F94A754CA3CD10780E0080738
:103FF000A9F70F94343E0D948D580C9400002F9225
:104000003F924F925F926F927F928F929F92AF9268
:10401000BF92CF92DF92EF92FF920F931F93CF93B5
:10402000DF93CDB7DEB7E7970FB6F894DEBF0FBECC
:10403000CDBF8EAB20917A032CAB81E080937A03C5
:10404000809146158D3409F482C2843511F40C94A4
:10405000FC2F873411F00C940E3080914415909110
:1040600045158A31910509F41BC194F484309105FA
:1040700034F482309105D4F597FF2CC064C28430AB
:10408000910509F4CEC0459711F40C9410305BC231
:104090008A32910509F4B5C16CF48C31910509F4AB
:1040A0001DC10CF401C14D9709F04DC20F94A3310D
:1040B0000C9410308B35910509F420C18C35910595
:1040C00009F421C18A35910509F03DC210927903A6
:1040D0000C9410308091F906813011F00C9410305E
:1040E0000E9495EB0E94F0D70C9410302091F906B5
:1040F000213011F00C94103011E0029709F010E01B
:104100000E9495EB19821A821B821C821D821E82DC
:104110001F82188682E50E94CF40882309F44BC095
:104120000E9498406B017C0120E030E0A9010F94CF
:10413000AC4D882309F455C0809147029091480204
:10414000A0914902B0914A0288A799A7AAA7BBA744
:1041500080914B0290914C02A0914D02B0914E0281
:1041600088AB99ABAAABBBAB8090F3159090F415DC
:10417000A090F515B090F6154090F7155090F815F1
:104180006090F9157090FA15A501940168A579A5BC
:104190008AA59BA50F94AC4D81110C941930A301F5
:1041A000920168A979A98AA99BA90F94AC4D88238B
:1041B000C1F00C94193089E40E94CF40882331F07B
:1041C0000E94984069837A838B839C838AE40E944F
:1041D000CF40882331F00E9498406D837E838F8387
:1041E000988720E030E0A90169817A818B819C81E8
:1041F0000F94AC4D81110C94CD3020E030E0A9013A
:104200006D817E818F8198850F94AC4D81110C94C6
:10421000CD300E94BD6783EE97E00E9407660C9444
:10422000103080E50E94CF40882329F00F94AA2304
:104230006B017C0103C0C12CD12C760183E50E9467
:10424000CF40882361F00E94984020E030E04AE7A8
:1042500054E40F94124E0F946C566B017C010E9433
:10426000D8928091A614811105C060E089EF97E093
:104270000F9401110E94BF97C60ED71EE81EF91EAB
:104280000E94BF97DC01CB018C199D09AE09BF09C3
:10429000B7FD02C00C94103080E00E947937F0CF57
:1042A0000E9400410C9410300F94F52D81110C9454
:1042B00010308CE0E6E9F2E0DE01119601900D92FB
:1042C0008A95E1F760E070E080E50E94A7EFBE010B
:1042D0006F5F7F4F0F94620C0C9410308091070534
:1042E0008770873011F00C94E03060E08FE40E941A
:1042F000EB4081110C9410300C94E0308FE08093EF
:1043000079030C94103019E5212E13E0312E0BEFB8
:10431000E02E04E0F02E27E432E039A728A788E554
:10432000C82E86E1D82E00E010E0D1018D911D014C
:104330000E94CF40882309F44BC00E9498402B0173
:104340003C01133049F0F6012081318142815381D3
:104350000F94F8542B013C01A8A5B9A52D913D91CE
:104360004D915C91C301B2010F94F8544B015C0173
:104370002DEB37E346E855EB0F94595787FD0AC0FC
:104380002DEB37E346E855E3C501B4010F94AC4D7E
:104390001816F4F4133051F4409253025092540220
:1043A000609255027092560201E012C0A50194017C
:1043B000F70160817181828193810F94F954D70153
:1043C0006D937D938D939C931397812F0E941CD79F
:1043D0001F5FB4E0EB0EF11CE8A5F9A53496F9A730
:1043E000E8A7F4E0CF0ED11C143009F09ECF0023D3
:1043F00021F083E592E00E94F0950E94BCDC0C94D1
:1044000010308091F906813011F00C94103089E45D
:104410000E94CF40E82E882321F00E949440082F6C
:1044200001C000E08AE40E94CF40F82E882321F0EA
:104430000E949440182F01C010E0EE2011F00330CC
:1044400020F4FF2041F0133030F082E098E00E9429
:1044500007660C94103080E1E7E4F2E0A3EFB5E1E9
:1044600001900D928A95E1F7EE2019F1602F000F6F
:10447000770B880B990B0F94B34D2091F20C309170
:10448000F30C4091F40C5091F50C0F94124E2091C6
:10449000CB153091CC154091CD155091CE150F9480
:1044A000F9546093F3157093F4158093F515909378
:1044B000F615FF2019F1612F110F770B880B990B5F
:1044C0000F94B34D2091F60C3091F70C4091F80CFD
:1044D0005091F90C0F94124E2091CF153091D015B8
:1044E0004091D1155091D2150F94F9546093F7155E
:1044F0007093F8158093F9159093FA1540E050E009
:10450000BA0186E40E9463796B017C0120E030E00F
:10451000A9010F94595718164CF420E030E040E7F9
:1045200052E4C701B6010F94F35503C060E070E098
:10453000CB0169837A838B839C83CE0101960E9491
:10454000E7DA0C9410300F94E72D0C941030809122
:104550004415909145158637910509F4BBC70CF0B9
:10456000D1C08C34910509F482C40CF05DC089314E
:10457000910509F4A1C21CF58431910509F419C211
:104580007CF48131910509F400C22CF4029708F4FF
:10459000C4C10C94F92F429709F424C60C94F92F46
:1045A0008631910509F43AC20CF434C28731910581
:1045B00009F43EC2489709F450C20C94F92F8E3189
:1045C000910509F4E6C2ACF48B31910509F486C279
:1045D0000CF476C28C31910509F4D3C24D9711F0D9
:1045E0000C94F92F809150138E7F809350130C946C
:1045F00010308A32910509F41DC44CF48F319105B5
:1046000009F46DC3809709F427C30C94F92F8B32FA
:10461000910509F428C48B34910511F00C94F92FFD
:104620000E94B9DD0C9410308A36910509F488C4D3
:10463000CCF58435910509F4D5C5FCF48135910597
:1046400009F4B3C54CF48D34910511F00C94F92F95
:104650000E94F2DD0C9410308235910509F4BBC53F
:104660008335910511F00C94F92F809179038F7E99
:104670008062809379030C9410308C35910509F495
:104680000AC634F48535910509F4E2C50C94F92F76
:104690008836910509F4EFC38936910509F43CC4C5
:1046A0000C94F92F8F36910509F4B0C48CF48C3634
:1046B000910511F40C9410300CF486C48D369105DC
:1046C00009F400C48E36910509F48DC40C94F92FB9
:1046D0008237910509F469C65CF48037910511F4BD
:1046E0000C9410308137910509F4D5C40C94F92F3E
:1046F0008337910509F45CC68537910509F4DAC65C
:104700000C94F92F8C3221E0920711F40C943E2D79
:104710000CF078C0883C910509F49CC7CCF58D3726
:10472000910509F43FC5FCF48837910509F40FC7DA
:104730000CF40AC78937910509F411C78A37910526
:1047400011F00C94F92F19821A821B821C8209E540
:1047500013E09E012F5F3F4F7901DD24D394CC24D9
:10476000C3940C94A22F8139910509F4FFC634F447
:104770008C38910509F4B1C40C94F92F8B3991054B
:1047800009F4EAC48E3B910509F4C6C40C94F92FD0
:104790008E3C910511F40C94FD2BB4F48B3C9105E7
:1047A00009F4C5C734F4893C910509F49AC70C94FF
:1047B000F92F8C3C910509F4D9C78D3C910511F472
:1047C0000C94EA2B0C94F92F8D3D910511F40C9467
:1047D000452C64F4833D910511F40C941B2C8C3D05
:1047E000910511F40C941E2C0C94F92F823E910526
:1047F00011F40C949B2C8232914011F40C94E72C10
:104800000C94F92F863FB1E09B0711F40C94F52E20
:104810000CF042C08A39F1E09F0711F40C9410307B
:10482000C4F48E3231E0930711F40C94D32D14F4B8
:104830000C94532D8F32B1E09B0711F40C94172E7A
:104840008039914011F00C94F92F0E94D8920C9469
:1048500010308C3AF1E09F0711F40C94942E6CF414
:10486000843A31E0930711F40C941A2E853A914062
:1048700011F40C941D2E0C94F92F843FB1E09B078A
:1048800011F40C94F22E853F914011F00C94F92F05
:104890000F94FC2A0C9410308835F2E09F0711F435
:1048A0000C941F2FC4F4883F31E0930711F40C944B
:1048B000012F14F40C94F82E8C30B2E09B0711F405
:1048C0000C94122F8933924011F00C94F92F0E940E
:1048D0000DED0C941030803AF3E09F0709F4F1C11C
:1048E0007CF48B3532E0930711F40C94222F8A3834
:1048F000934011F00C94F92F0E946FEC0C9410303F
:10490000873EB3E09B0711F40C94D12F893E93406E
:1049100011F40C94DF2F0C94F92F80E50E94CF4006
:10492000882329F00F94AA236B017C0103C0C12CBA
:10493000D12C760183E50E94CF40882361F00E944C
:10494000984020E030E04AE754E40F94124E0F9470
:104950006C566B017C010E94D89280914215909117
:104960004315009721F061E00F947F1105C060E0CE
:104970008BE198E00F94011140E0C701B6010E945D
:10498000793C0F949C2C0C94103080913E1584FF40
:1049900002C00C9422328091401587FF02C00C9413
:1049A000223280914115837011F00C9422320C94C4
:1049B0003E328091501383FF25C086E498E00E9428
:1049C00007668091501383FF17C080EB90E10E942F
:1049D00086CE8BE1E0EBF0E1DE01119601900D92C5
:1049E0008A95E1F760E070E0CE0101960E941EA179
:1049F000CE0101960E948BCE87E398E00E94076665
:104A00000C9410300E94C16787E598E00E94076609
:104A10000C9410300E94FB9F0C9410300E948498DC
:104A200080915013877F8062809350130C941030D4
:104A3000E0914215F09143158081882329F080325E
:104A400009F410823196F8CF60E080914215909180
:104A500043150E944E9D0C941030809105078823C9
:104A6000F9F080E090E0A0EAB1E488A399A3AAA3BA
:104A7000BBA31C8E1D8E1E8E1F8E19821A821B8256
:104A80001C8200E010E020E0AE01405E5F4FBE01FE
:104A9000645E7F4FCE0101960E9469680C941030CD
:104AA0000E940435882321F00E9495980E94B9DD68
:104AB0000F949C2C0C9410300E94D2EE0C94103069
:104AC0008091501383FD02C00C94103083E50E9446
:104AD000CF4081110C944C320C94103083E40E942E
:104AE0000C60882319F18BE698E00E94076680919C
:104AF0005A10882391F0BE016F5F7F4F87E590E1E8
:104B00000E944DCD8E010F5F1F4FD8018D918D01F9
:104B1000882339F00E944D36F8CF81E698E00E9454
:104B200007668AE00E944D360C9410308091501335
:104B300082FF21C08AE798E00E94076660914C13CB
:104B400070914D1380914E1390914F134AE00E9443
:104B500054368FE20E944D3660914813709149138C
:104B600080914A1390914B134AE00E9454360E9460
:104B700052370C9410308CE898E00E9407660C9431
:104B8000103080914215909143150E94049D0C9421
:104B900010308091501383FD02C00C9410300F949C
:104BA000CD2D8091501383FD02C00C9410304091A4
:104BB000421550914315BE01645E7F4F80E00F9413
:104BC00008058C01009711F40C9410306C8D7D8DCC
:104BD00019821C8222E0AC01CE0101960E94BBD258
:104BE000811102C0F12C14C0CE0101960F947604FD
:104BF0008823C1F361E0CE0101960E9431CD009778
:104C000089F325EEFC0120831C820E944399F82E33
:104C1000CE0101960E948BCEB801FF2099F085EB62
:104C200098E00E94AA678AE00E944D3610924C13C9
:104C300010924D1310924E1310924F130E94AE9E7D
:104C40000C9410308DE998E00E94AA6788E69FE3F3
:104C50000E9407660C9410308091501382FD0E94D0
:104C6000D8928091501383FD02C00C94103060E004
:104C700080E50E94EB40182F682F8091421590919B
:104C800043150E944E9D83E50E94CF40882381F00A
:104C90000E946040AB01BC0140934C1350934D13F4
:104CA00060934E1370934F1387E590E10E94699BC8
:104CB0000E94959811110C9410300E94B9DD0C944B
:104CC000103020914215309143159091501392600D
:104CD00090935013C9010E94049D0C9410300E94BF
:104CE0006ADD7B018C0120E831E541E050E00F9462
:104CF0000254C9016DE671E00F947F544B015C01D1
:104D0000C801B70120E13EE040E050E00F940254BA
:104D1000CA01B90128E130E040E050E00F940254AC
:104D2000762E672EC62ED72EBCE32B2E312C412C8F
:104D3000512CC801B701A20191010F940254F62E23
:104D4000E72ECA01B901A20191010F940254CB01CF
:104D50008E010F5F1F4F8114910499F0EF92FF9223
:104D60007F936F936F927F92BF92AF929F928F9239
:104D700083EC98E09F938F931F930F930F94444D70
:104D800013C0A114B104B1F0EF92FF927F936F931F
:104D90006F927F92BF92AF9287EC98E09F938F9330
:104DA0001F930F930F94444D0FB6F894DEBF0FBEC0
:104DB000CDBF30C0CD2879F0EF92FF927F936F93F3
:104DC0006F927F928BEC98E09F938F931F930F933A
:104DD0000F94444DE9CF892B69F0EF92FF927F93B6
:104DE0006F938FEC98E09F938F931F930F930F9483
:104DF000444DDACFEF92FF9283ED98E09F938F932B
:104E00001F930F930F94444D0F900F900F900F909E
:104E10000F900F9060E0C8010F947F110E94C1674E
:104E2000B80187ED98E00E94AA678AE00E944D369B
:104E30000C9410306DE070E080E50E94DC408C0145
:104E400097FF02C00C941030E82E60E089E40E94C5
:104E5000EB4081110C945D32802F0E94DF34811170
:104E600087C50C945D320E94E4F00C9410300E94CF
:104E7000DDDD0C9410308091980C83FF02C00C94FF
:104E800010300E9446EC87FF02C00C94103089E479
:104E90000E94CF40882311F40C949A320E947040F3
:104EA00090E01816190614F481E090E026E0289F9F
:104EB000F001299FF00D1124EE5FF24F8081918166
:104EC0000C94A4328091980C83FF02C00C94103093
:104ED0000E9446ECF82E87FF02C00C94103089E443
:104EE0000E94CF40082F882311F40C94AD320E9409
:104EF000704090E01816190614F481E090E026E066
:104F0000289FF001299FF00D1124EE5FF24F808160
:104F1000918110E00C94BD320E9446EC182F87FD61
:104F20000AC080E097E30E940766812F0E94D9E2C1
:104F30008AE00E944D363CA930937A030C94993450
:104F400060E080E50F949731F82E81E08F1510F422
:104F50000C94103081E40E940C60882329F0609149
:104F6000C307062F10E002C00FEF10E089E40E9493
:104F7000CF40882399F00E94704090E018161906DF
:104F800014F481E090E026E0289FF001299FF00DC5
:104F90001124EE5FF24F0481158108C083E50E9461
:104FA000CF40882319F00E9460408B01EF2DF0E084
:104FB000ED53F84FB8010F3F110519F010F06FEFE6
:104FC00070E060830C94103060E080E50F949731BE
:104FD000823010F00C941030E82FF0E0ED53F84FD1
:104FE00010820C9410308EE40E94CF40882311F47C
:104FF0000C9410300E9460406093620470936304CC
:1050000080936404909365040C94103083E50E94AF
:105010000C60882331F060E083E50F949731809332
:10502000980C0E94C1678FEF98E00E9407668091FC
:10503000980C882369F1A5E8EA2EACE0FA2E00E08E
:1050400010E020E08091980C90E0A0E0B0E0002E0D
:1050500004C0B695A795979587950A94D2F780FFD7
:105060000EC0DD24D394D20E222319F08CE20E94CC
:105070004D36F701859194910E9407662D2D0F5FA3
:105080001F4F92E0E90EF11C05301105D9F649CD0C
:105090008BEF98E044CD83E50E94CF40882371F0E8
:1050A0000E947040282F30E02D3331051CF480938E
:1050B0000002B6C78CE380930002B2C70E94C167AA
:1050C0004091000250E060E070E086E099E00E94CC
:1050D0006E678AE00E944D36A3C78091980C83FDCD
:1050E0009FC789E40E94CF40882311F40C940733B2
:1050F0000E94704090E01816190614F481E090E0C8
:1051000026E0289FF001299FF00D1124EE5FF24F59
:10511000828193810C9412338091980C83FD80C717
:1051200089E40E94CF40882311F40C9419330E9423
:10513000704090E01816190614F481E090E026E023
:10514000289FF001299FF00D1124EE5FF24F82811C
:10515000938110E00C942A3383E50E94CF4088238A
:1051600009F45EC70E947040182F90E0CD970CF0B4
:105170001CE3109374030E94BF976B017C01212FE5
:1051800030E0A8EEB3E00F945654C60ED71EE81ECA
:10519000F91EC0927003D0927103E0927203F092F4
:1051A00073033EC70E94D2EE3BC70E9483E30E9476
:1051B000F2DD0E94E9920E94283568EE73E080E0FB
:1051C00090E00E94D8650E942D3560E08BE299E066
:1051D0000F94011125C7809179038F7D80618093A1
:1051E00079031EC783E50E94CF408823E9F00E941F
:1051F000BF976093920D7093930D8093940D90934D
:10520000950D0E94984020E030E04AE754E40F9466
:10521000124E0F946C5660930102709302028093B9
:10522000030290930402FCC680913E1584FF02C0E5
:105230000C9453338091401587FF02C00C94533374
:1052400080914115837011F00C9453330C94843386
:1052500083E50E940C60882309F4E2C60E94BF9790
:105260006093920D7093930D8093940D9093950D90
:105270000E94984020E030E04AE754E40F94124E38
:105280000F946C5660937503709376038093770345
:1052900090937803C5C60E9446EC87FDC1C69091E5
:1052A0003E1594FD04C09091401597FF0AC0E9E5B2
:1052B000CE2EE3E0DE2EF9E9EF2EFCE0FF2E10E02B
:1052C00009C090914115937091F7682F81E00E9479
:1052D000A9F0A6C6D6018D916D010E94CF4088230A
:1052E00009F459C0133009F04FC00E9498404B0197
:1052F0005C0120E030E040EA51E40F94AC4D87FFC0
:105300003AC0A50194016091B90C7091BA0C8091DA
:10531000BB0C9091BC0C0F94F3552B013C019B01ED
:10532000AC016091C90C7091CA0C8091CB0C90912A
:10533000CC0C0F94124E6093C90C7093CA0C8093DE
:10534000CB0C9093CC0C6091B7077091B80780910B
:10535000B9079091BA070F94B14DA30192010F9430
:10536000124E0F946C566093B7077093B8078093F2
:10537000B9079093BA078092B90C9092BA0CA09298
:10538000BB0CB092BC0C07C00E949840F701648B24
:10539000758B868B978B1F5FF4E0EF0EF11C14303A
:1053A00009F098CF0E94ED913BC60F94251B38C69B
:1053B00085E89AE00E94076660E085E79AE00F942E
:1053C0000B1B60E080E69AE00F940B1B61E08BE31F
:1053D00096E30F940B1B61E085E59AE00F940B1B9D
:1053E00061E085E49AE00F940B1B60E08CE39AE0A7
:1053F0000F940B1B61E082E39AE00F940B1B60E0BB
:1054000088E29AE00F940B1B60E081E29AE00F942F
:105410000B1B60E089E19AE00F940B1B61E08BE0CD
:105420009AE00F940B1B60E08DEF99E00F940B1B3B
:1054300060E08EEE99E00F940B1B60E080EE99E047
:105440000F940B1B60E08AEC99E00F940B1B61E05A
:1054500089EB99E00F940B1B60E08AEA99E00F94C6
:105460000B1B61E083EA99E00F940B1B60E08EE870
:1054700099E00F940B1B60E080E899E00F940B1B00
:1054800061E08DE699E00F940B1B60E080E699E007
:105490000F940B1B61E08BE599E00F940B1B61E00F
:1054A0008EE499E00F940B1B60E08AE399E00F947F
:1054B0000B1BB6C58091421590914315009709F4D6
:1054C000F7CADC012C91222309F4F2CA60E00F94A0
:1054D0007F11A6C5009142151091431594E0F12C5F
:1054E00040E0915021F1F8018081282F2B7F213459
:1054F00021F421812133D9F407C08035C1F48181A1
:1055000080538A3048F013C0813421F0853421F46F
:1055100041E002C0FF24F39498012E5F3F4F8901C0
:105520002F5F3F4FF80180818032C9F3DACF4111FC
:105530000E94C167FF2021F08AE59BE00E94076678
:10554000C8010E9458376CC50E9443DD69C581E0DF
:1055500080932405809323050E945FDD61C510922E
:105560002405109223050E945FDD5AC560E070E0BB
:1055700083E50E94DC40823038F00E94BD678EE5F2
:105580009BE00E9407664CC58C01112788E40E94AD
:10559000CF408823E1F00E9494408A3A910544F07C
:1055A0000E9494408B3F910534F40E94944005C0C2
:1055B0008AEA90E002C08AEF90E026E0209FF001A6
:1055C000219FF00D1124EE5FF24F9183808382E4DE
:1055D0000E94CF408823D9F00E949440059744F060
:1055E0000E9494408F36910534F40E94944005C087
:1055F00085E090E002C08EE690E026E0209FF0017A
:10560000219FF00D1124EE5FF24F9383828386E495
:105610000E94CF40882309F403C50E94944097FD5F
:1056200009C00E9494408F3F910509F034F40E9414
:10563000944005C080E090E002C08FEF90E026E04B
:10564000209FF001219FF00D1124EE5FF24F958312
:105650008483E6C40E9446EC182F87FDE1C40091C4
:105660003B0D84E40E94CF40882311F40C948733CF
:105670000E9498406B017C0120E030E0A9010F946A
:10568000AC4D882341F124E01202F0011124E95CC1
:10569000F24FC082D182E282F38220E030E0A901A1
:1056A0006091370D7091380D8091390D90913A0DC0
:1056B0000F94AC4D81110CC080E090E0A0EEBFE3F0
:1056C0008093370D9093380DA093390DB0933A0D18
:1056D00001E00C94873380E080933B0D0E94DE8CC8
:1056E0009FC40E9446EC87FD9BC469E5E62E63E0FB
:1056F000F62E09E91CE079EAC72E7CE0D72ED70107
:105700008D917D010E940C60882359F00E94984081
:105710000F946C56F80160837183828393830E9497
:10572000A6910C5F1F4FC016D10649F779C40E949D
:1057300046EC87FD75C459E5E52E53E0F52E09E9E1
:105740001CE0D7018D917D010E940C60882339F007
:105750000E949840F80164A375A386A397A30C5FE9
:105760001F4FFCE0093A1F0761F75AC480913F15AB
:1057700087FF02C00C948D33809140158E7011F01C
:105780000C948D334091CD0C5091CE0C6091CF0C88
:105790007091D00C80E89BE00E948C674091D10C06
:1057A0005091D20C6091D30C7091D40C82EB94E2A6
:1057B0000E948C674091D50C5091D60C6091D70C0B
:1057C0007091D80C81E096E20E948C678AE00E947A
:1057D0004D3626C480913E1581FF02C00C94D33310
:1057E00080913F1581FF02C00C94D3338091401506
:1057F0008C7011F00C94D33313C447E2E42E45E0CF
:10580000F42E10E088E5810F0E940C60882359F087
:105810000E949840D7016D937D938D939C9313972D
:10582000812F0E941CD71F5FB4E0EB0EF11C1330D8
:1058300049F70C94FD210E94BAEFF2C383E50E9460
:10584000CF40882331F00E94944090936802809367
:10585000670280913E1590913F15A0914015B0913F
:105860004115892B8A2B8B2B09F0DAC360916702D3
:10587000709168028FEA9BE00E949D6785E20E941A
:105880004D368AE00E944D36CBC30E9446ECF82E7E
:1058900087FDC6C383E50E94CF400F2D0F2C000C5F
:1058A000110B882369F10E949440F801EE0FFF1F4D
:1058B000EC5EFD4F91838083000F111F000F111FBD
:1058C000F801E95AFD4F7F01BC01990F880B990B34
:1058D0000F94B34D2AE037ED43E25CE30F94124E90
:1058E000F801E85FFA4F20813181428153810F94A2
:1058F000124ED7016D937D938D939C93139790C314
:105900000E94C16785E40E944D3680E38F0D0E949E
:105910004D36000F111FF801EC5EFD4F6081718163
:1059200083EB9BE00E949D6785E20E944D368AE0F2
:105930000E944D3675C380E50E940C60882309F4EF
:105940006FC360E070E080E50E94DC40F82E6FEFEE
:105950007FEF83E50E94DC408C010196039708F0FD
:105960005FC3F7FC5DC38F2D0E94DF34882339F0BD
:105970000E94BD678BEB9BE00E94076651C30E94AB
:10598000D89260E08F2D0E946D890F3FBFEF1B07FB
:1059900031F00130110571F000E010E00DC08F2DE5
:1059A0000E94158931E020E0892B09F030E0032FB7
:1059B000122F02C001E010E08F2D0E941589801780
:1059C000910709F42DC380E00E947937F5CF8AE56D
:1059D0000E94CF40811106C083E50E94CF408823FA
:1059E00009F440C00E94984020E030E040E050ECD4
:1059F0000F94AC4D87FD36C70E94984020E030E000
:105A000040E050E40F94595718160CF425C70E9433
:105A100098406B017C0184E00E943CD7811122C038
:105A20002091B50C3091B60C4091B70C5091B80C48
:105A3000C701B6010F94124E0F9465562091F20DD6
:105A40003091F30D260F371F3093F30D2093F20D95
:105A50002091C80D3091C90D620F731F7093C90D4D
:105A60006093C80D8091401587FD02C78091411554
:105A7000837009F0FDC60E94C167D2C264E071E084
:105A800083E50E94A7EF8C0168EE73E080E50E9439
:105A9000A7EF8938E3E19E0710F088E893E1B801A9
:105AA0000F94CA10BDC260E085E40F949731811154
:105AB00073C080E50E940C60882351F00E949840DA
:105AC0006093400E7093410E8093420E9093430E6C
:105AD00089E40E940C60882381F00E9498402CEA9F
